:020000040800F2
:1000000000010020D10A0008F1730008F173000814
:10001000F1730008F1730008F1730008910B0008F8
:10002000910B0008910B0008910B0008C10B000810
:10003000910B0008910B0008910B0008910C00082F
:10004000910B00080132000891320008C13200080B
:10005000910B0008910B0008213000085130000876
:1000600081300008B1300008E13000084129000863
:1000700071290008A1290008D1290008012A0008D7
:10008000312A0008612A0008C12E0008A1390008A1
:10009000E13C0008910B0008F13200081131000822
:1000A000910B0008910B0008910B0008910B0008C0
:1000B000910B0008910B0008910B0008910B0008B0
:1000C000910B0008910B0008910B0008910B0008A0
:1000D000910B0008F1360008910B0008910B000805
:1000E000813100083132000861320008910B0008AC
:0400F000910B000868
:1001000080B5234B002400AF5C6001F059FD00F086
:1001100057FE06F0CDFE03F0E3FF1E4B21461868A4
:10012000224605F075FA1C4B4FF0FF329A60DA60F8
:1001300045F25552194B40251A6006225A6040F686
:10014000FF729A604CF6CC421A6008F029FD08F064
:1001500037FE07F0B5FF08F0FBFC08F019FB08F0CC
:10016000A7FF21460E4801F083FD07F059F904F17D
:10017000804404F5013407F073FB07F069F9258327
:10018000C82001F0D5F86583C82001F0D1F8F2E766
:1001900000000140240C0020002004E0003000405A
:1001A000C40A002000000000000000000000000061
:1001B00081F0004102E000BF83F0004330B54FEA18
:1001C00041044FEA430594EA050F08BF90EA020F85
:1001D0001FBF54EA000C55EA020C7FEA645C7FEA18
:1001E000655C00F0E2804FEA5454D4EB5555B8BF3B
:1001F0006D420CDD2C4480EA020281EA030382EAAC
:10020000000083EA010180EA020281EA0303362D3D
:1002100088BF30BD11F0004F4FEA01314FF4801C10
:100220004CEA113102D0404261EB410113F0004F22
:100230004FEA03334CEA133302D0524263EB4303D9
:1002400094EA050F00F0A780A4F10104D5F1200E77
:100250000DDB02FA0EFC22FA05F2801841F10001D2
:1002600003FA0EF2801843FA05F359410EE0A5F1A6
:1002700020050EF1200E012A03FA0EFC28BF4CF0D7
:10028000020C43FA05F3C01851EBE37101F000458D
:1002900007D54FF0000EDCF1000C7EEB00006EEB9A
:1002A0000101B1F5801F1BD3B1F5001F0CD3490824
:1002B0005FEA30004FEA3C0C04F101044FEA44527B
:1002C00012F5800F80F09A80BCF1004F08BF5FEA02
:1002D000500C50F1000041EB045141EA050130BDE2
:1002E0005FEA4C0C404141EB010111F4801FA4F185
:1002F0000104E9D191F0000F04BF01460020B1FADA
:1003000081F308BF2033A3F10B03B3F120020CDA11
:100310000C3208DD02F1140CC2F10C0201FA0CF0EF
:1003200021FA02F10CE002F11402D8BFC2F1200C54
:1003300001FA02F120FA0CFCDCBF41EA0C0190400A
:10034000E41AA2BF01EB0451294330BD6FEA040453
:100350001F3C1CDA0C340EDC04F11404C4F120023E
:1003600020FA04F001FA02F340EA030021FA04F350
:1003700045EA030130BDC4F10C04C4F1200220FAA7
:1003800002F001FA04F340EA0300294630BD21FAE5
:1003900004F0294630BD94F0000F83F4801306BFAB
:1003A00081F480110134013D4EE77FEA645C18BF9F
:1003B0007FEA655C29D094EA050F08BF90EA020F36
:1003C00005D054EA000C04BF1946104630BD91EA2E
:1003D000030F1EBF0021002030BD5FEA545C05D131
:1003E0004000494128BF41F0004130BD14F5800470
:1003F0003CBF01F5801130BD01F0004545F0FE41E4
:1004000041F470014FF0000030BD7FEA645C1ABF18
:10041000194610467FEA655C1CBF0B46024650EA4F
:10042000013406BF52EA033591EA030F41F400217B
:1004300030BD00BF90F0000F04BF0021704730B501
:100440004FF4806404F132044FF000054FF00001D6
:1004500050E700BF90F0000F04BF0021704730B597
:100460004FF4806404F1320410F0004548BF40426C
:100470004FF000013EE700BF42004FEAE2014FEAC1
:1004800031014FEA02701FBF12F07F4393F07F4F9C
:1004900081F06051704792F0000F14BF93F07F4FCE
:1004A000704730B54FF4607401F0004521F0004111
:1004B00020E700BF50EA010208BF704730B54FF097
:1004C00000050AE050EA010208BF704730B511F09C
:1004D000004502D5404261EB41014FF4806404F1D4
:1004E00032045FEA915C3FF4DCAE4FF003025FEA56
:1004F000DC0C18BF03325FEADC0C18BF033202EBDE
:10050000DC02C2F1200300FA03FC20FA02F001FA37
:1005100003FE40EA0E0021FA02F11444C1E600BFD6
:1005200070B54FF0FF0C4CF4E06C1CEA11541DBF89
:100530001CEA135594EA0C0F95EA0C0F00F0DEF854
:100540002C4481EA030621EA4C5123EA4C5350EA39
:10055000013518BF52EA033541F4801143F480138A
:1005600038D0A0FB02CE4FF00005E1FB02E506F01B
:100570000042E0FB03E54FF00006E1FB03569CF070
:10058000000F18BF4EF0010EA4F1FF04B6F5007F76
:1005900064F5407404D25FEA4E0E6D4146EB0606E8
:1005A00042EAC62141EA55514FEAC52040EA5E5071
:1005B0004FEACE2EB4F1FD0C88BFBCF5E06F1ED81B
:1005C000BEF1004F08BF5FEA500E50F1000041EB52
:1005D000045170BD06F0004646EA010140EA0200FF
:1005E00081EA0301B4EB5C04C2BFD4EB0C0541EA21
:1005F000045170BD41F480114FF0000E013C00F336
:10060000AB8014F1360FDEBF002001F0004170BD59
:10061000C4F10004203C35DA0C341BDC04F1140472
:10062000C4F1200500FA05F320FA04F001FA05F2FE
:1006300040EA020001F0004221F0004110EBD370CB
:1006400021FA04F642EB06015EEA430E08BF20EAF7
:10065000D37070BDC4F10C04C4F1200500FA04F39A
:1006600020FA05F001FA04F240EA020001F000412C
:1006700010EBD37041F100015EEA430E08BF20EA9F
:10068000D37070BDC4F1200500FA05F24EEA020EE7
:1006900020FA04F301FA05F243EA020321FA04F016
:1006A00001F0004121FA04F220EA020000EBD370CD
:1006B0005EEA430E08BF20EAD37070BD94F0000FCD
:1006C0000FD101F00046400041EB010111F4801F01
:1006D00008BF013CF7D041EA060195F0000F18BFB2
:1006E000704703F00046520043EB030313F4801FEE
:1006F00008BF013DF7D043EA0603704794EA0C0FA8
:100700000CEA135518BF95EA0C0F0CD050EA4106BD
:1007100018BF52EA4306D1D181EA030101F000413A
:100720004FF0000070BD50EA410606BF1046194662
:1007300052EA430619D094EA0C0F02D150EA01366E
:1007400013D195EA0C0F05D152EA03361CBF1046AF
:1007500019460AD181EA030101F0004141F0FE414E
:1007600041F470014FF0000070BD41F0FE4141F4D2
:10077000780170BD70B54FF0FF0C4CF4E06C1CEAD2
:1007800011541DBF1CEA135594EA0C0F95EA0C0F87
:1007900000F0A7F8A4EB050481EA030E52EA033542
:1007A0004FEA013100F088804FEA03334FF0805563
:1007B00045EA131343EA12634FEA022245EA111590
:1007C00045EA10654FEA00260EF000419D4208BF41
:1007D000964244F1FD0404F5407402D25B084FEAEE
:1007E0003202B61A65EB03055B084FEA32024FF49A
:1007F00080104FF4002CB6EB020E75EB030E22BFF7
:10080000B61A754640EA0C005B084FEA3202B6EBB6
:10081000020E75EB030E22BFB61A754640EA5C0065
:100820005B084FEA3202B6EB020E75EB030E22BFF5
:10083000B61A754640EA9C005B084FEA3202B6EBF6
:10084000020E75EB030E22BFB61A754640EADC00B5
:1008500055EA060E18D04FEA051545EA16754FEA17
:1008600006164FEAC30343EA52734FEAC2025FEA35
:100870001C1CC0D111F4801F0BD141EA00014FF0C4
:1008800000004FF0004CB6E711F4801F04BF014395
:100890000020B4F1FD0C88BFBCF5E06F3FF6AFAEB1
:1008A000B5EB030C04BFB6EB020C5FEA500C50F141
:1008B000000041EB045170BD0EF0004E4EEA1131C4
:1008C00014EB5C04C2BFD4EB0C0541EA045170BDCB
:1008D00041F480114FF0000E013C90E645EA060E0F
:1008E0008DE60CEA135594EA0C0F08BF95EA0C0F3D
:1008F0003FF43BAF94EA0C0F0AD150EA01347FF485
:1009000034AF95EA0C0F7FF425AF104619462CE75B
:1009100095EA0C0F06D152EA03353FF4FDAE1046BE
:10092000194622E750EA410618BF52EA43067FF40F
:10093000C5AE50EA41047FF40DAF52EA43057FF49F
:10094000EBAE12E700000000000000000000000015
:100950004FF0FF3C06E000BF4FF0010C02E000BF8B
:100960004FF0010C4DF804CD4FEA410C7FEA6C5C6E
:100970004FEA430C18BF7FEA6C5C1BD001B050EA11
:10098000410C0CBF52EA430C91EA030F02BF90EAFC
:10099000020F0020704710F1000F91EA030F58BFBB
:1009A000994208BF90422CBFD8176FEAE37040F01D
:1009B000010070474FEA410C7FEA6C5C02D150EABB
:1009C000013C07D14FEA430C7FEA6C5CD6D152EA76
:1009D000033CD3D05DF8040B704700BF844610463B
:1009E00062468C461946634600E000BF01B5FFF73A
:1009F000B7FF002848BF10F1000F01BD4DF808ED0A
:100A0000FFF7F4FF0CBF012000205DF808FB00BFDA
:100A10004DF808EDFFF7EAFF34BF012000205DF834
:100A200008FB00BF4DF808EDFFF7E0FF94BF012081
:100A300000205DF808FB00BF4DF808EDFFF7CEFF82
:100A400094BF012000205DF808FB00BF4DF808EDC1
:100A5000FFF7C4FF34BF012000205DF808FB00BF92
:100A60004FEA410212F5001215D211D56FF47873D6
:100A7000B3EB625212D94FEAC12343F0004343EA79
:100A8000505311F0004F23FA02F018BF4042704754
:100A90004FF00000704750EA013005D111F00040DE
:100AA00008BF6FF0004070474FF00000704700BF74
:100AB00080B500AF80BD0000000000000000000015
:100AC000FEE7000000000000000000000000000041
:100AD00072B6214B83F30988022282F31488BFF394
:100AE0006F8F1E4A1E494FF055308A4202D242F89B
:100AF000040BFAE71B4A4FF055319A4202D242F8F2
:100B0000041BFAE706F03CFC174A184B18498B42C5
:100B100004D252F8040F43F8040BF8E7154B164AB9
:100B20000021934202D243F8041BFAE7FFF7C0FF0B
:100B3000124C134DAC4203D254F8043B9847F9E7EA
:100B4000FFF7DEFA0F4C104DAC4203D254F8043BD1
:100B50009847F9E7FFF7B4FF0005002000000020E8
:100B60000001002000010020ECE800080005002042
:100B70003405002038050020481A0020F400000841
:100B8000F4000008F4000008F40000080000000071
:100B9000FEE7000000000000000000000000000070
:100BA00080B500AF72B6FEE7000000000000000054
:100BB00000F036FB00DF0000000000000000000035
:100BC00080B500AFEFF30983203383F30988002356
:100BD00083F3118880BD00000000000000000000C9
:100BE00080B50B4B00229A600A4A00AFDA601021F0
:100BF000072000F0BDF84FF400710A2000F0B8F8AB
:100C000080210B20BD46BDE8804000F0B1B800BF98
:100C100000ED00E00003FA05000000000000000005
:100C200080B5202300AF83F31188154B5B6813F464
:100C3000006321D0EFF30982A2F1200383F3098836
:100C400010494FF0807342F8043C8B69096893F8AF
:100C5000220089689B6820B1994294BF0023012338
:100C600003E0994234BF002301230BB1064B00E09F
:100C7000064B42F8083C80BD83F3118880BD00BF5D
:100C800000ED00E0440A0020B10B0008B40B00089E
:100C900080B5202300AF83F3118800F0C9F800234A
:100CA00083F31188BD46BDE88040FFF7B9BF00005F
:100CB0002DE9F04FC1F80CD0D0F80CD0BDE8F08F82
:100CC00080B5002300AF83F311882846A04700F0C9
:100CD00077FB80BD00000000000000000000000065
:100CE00020F0030202F1604202F56142C300B0B598
:100CF00003F01803D2F80053FF249C40994025EAE2
:100D000004042143C2F8001300F01F0240098000D0
:100D1000012300F16040934000F56140C0F880314C
:100D200000AF0360B0BD0000000000000000000044
:100D300000F01F0101228A4043090C49203380B58D
:100D400041F8232020F0030303F1604303F56143DE
:100D5000C000D3F8002300F01800FF2101FA00F0D2
:100D600022EA000000AFC3F8000380BD00E100E00C
:100D700000F0030320F0030000F1604090B500F59F
:100D80006D40DB008469FF229A4024EA0202994008
:100D9000114300AF816190BD000000000000000021
:100DA00080B5034B034A9B6900AF9A6130BFFDE7F2
:100DB000440A002090AC0008000000000000000081
:100DC00080B582B002AFFFF70BFF00F0F9F800F03A
:100DD000AFF800F0E5FD00F033FE00F059F84021D7
:100DE0000C4800F035FA0C490C4B0122C3618861B4
:100DF00080F82020002383F3118862B608488969AF
:100E000088610093B021074B074800F059FABD46AE
:100E100080BD00BF38050020440A002000010020EA
:100E2000D0AC0008A10D00087805002000000000EB
:100E3000F8B5144B00AF9B6993F8222012B1013A28
:100E400083F822205A6A01325A620F4BDA681C4634
:100E50000132DA601A689A4213D025469368013B42
:100E600093602268936863B91168D6682960D3607B
:100E70004D6083F311881069B047202383F31188F4
:100E8000EFE7F8BD440A0020340A0020000000000B
:100E9000044A80B51346402143F8081B00AF536055
:100EA00080BD00BF280600200000000000000000F8
:100EB0000D4A0E495368C96880B519600C49103352
:100EC000896900AF43F80C1C816A43F8081C90F84C
:100ED000201003F8041C02F581618B4228BF02F147
:100EE0000803536080BD00BF28060020340A00209C
:100EF000440A002000000000000000000000000084
:100F000098B5084C00AF2060074806F049FA206801
:100F100006F046FA06F05CFABD46BDE89840FFF7D9
:100F20003FBE00BF300A0020A0AC00080000000057
:100F300080B5054B4FF0FF329A60002200AF5B6036
:100F40001B60DA6080BD00BF340A00200000000092
:100F500090B5C2600A4A0361136800AF9C68A14261
:100F600002D9091B1B68F9E75C680360446093427F
:100F70005860206081601EBF9A68511A996090BDC8
:100F8000340A002000000000000000000000000003
:100F90000368084A80B593421CBF9968826800AF15
:100FA0001CBF52189A604268136003685A6000239D
:100FB000C36080BD340A0020000000000000000073
:100FC00080B5044B002200AF5B601B609A605B61E0
:100FD0001B6180BD440A00200000000000000000EA
:100FE00080B5002380F820308268064B00AF1B6874
:100FF00099689142FBD25A68036042605860106061
:1010000080BD00BF440A0020000000000000000076
:1010100080B5202300AF83F3118890F82030032B94
:1010200003D00D2B05D04BB90EE0826A93680133D3
:10103000936090E80C001A60026853604FF0FF3331
:101040008362FFF7CDFF002383F3118880BD00008A
:10105000B0B5114C1423A56900AF85F82230236880
:1010600085F820001A68284654602260012283F81F
:101070002020A361FFF71CFFEA69ADF124039A4227
:1010800002D90648FFF73CFF2946A069BD46BDE8E6
:10109000B040FFF70DBE00BF440A0020C0AC0008FE
:1010A000B0B54B1C86B0054600AF0B4C0DD0A36904
:1010B0000A4A381DFFF74CFF2846FFF7C9FF3B6976
:1010C0002BB1381DFFF764FF01E0FFF7C1FFA369F3
:1010D0001837986ABD46B0BD440A002011100008B8
:1010E000F8B5134E8162B36981689A6800AF914286
:1010F000044604D8BD46BDE8F840FFF771BF184666
:10110000FFF76EFF0546012384F82030B461FFF736
:10111000CFFEEA69ADF124039A4202D90548FFF7F0
:10112000EFFE29462046BD46BDE8F840FFF7C0BDAA
:10113000440A0020C0AC00080000000000000000CD
:10114000B0B5114C00AF2368A5691A6828465460F1
:101150002260012283F82020A361142385F8223025
:10116000FFF73EFF2846FFF7A3FEEA69ADF124032F
:101170009A4202D90548FFF7C3FE2946A069BD4639
:10118000BDE8B040FFF794BD440A0020C0AC0008A1
:10119000154BB0B51D461A689C69116800AF4B60CD
:1011A0001960012182F820109A61002284F8202021
:1011B000A2681B6899689142FBD85A6823606260F4
:1011C00020465C601460FFF773FEE269ADF1240312
:1011D0009A4202D90548FFF793FE2146A869BD4609
:1011E000BDE8B040FFF764BD440A0020C0AC000871
:1011F000074B80B41A689B6992689B6800AF9A425B
:1012000003D9BD4680BCFFF7C3BFBD4680BC704755
:10121000440A002000000000000000000000000060
:1012200080B4074B00AF9B6993F822301BB9BD46D1
:1012300080BCFFF785BFBD4680BCFFF7A9BF00BFDC
:10124000440A002000000000000000000000000030
:10125000022280F82020002280F8212042630263CD
:1012600042628261094A90B581608163516902617D
:1012700041611424506100F12C0280F82240086181
:10128000C26200F13C0200AFC26190BD440A00207E
:101290002439B0B44418C4604350114600AFFB6811
:1012A0006360034B2362BD46B0BCFFF7D1BF00BFF4
:1012B000C10C000800000000000000000000000059
:1012C000F0B5044683B01D4602AF00F13C03FF2693
:1012D000A34202D004F8016BFAE7441855269C4259
:1012E00002D903F8016BFAE7202383F31188BB6965
:1012F00000932B46FFF7CCFF00210446FFF7F0FEDA
:10130000002383F3118820460437BD46F0BD00005A
:1013100080B5202300AF83F3118890F8213043F08B
:10132000040380F82130002383F3118880BD00007E
:1013300080B5014600AF202383F311880620FFF714
:10134000AFFE002383F3118880BD00000000000081
:1013500080B5202300AF83F31188064B1A689B6980
:1013600092689B689A4201D3FFF7EAFE002383F359
:10137000118880BD440A0020000000000000000029
:10138000B0B50E4B00AF9C69A06204F12C05E06A79
:10139000A84204D00368E362FFF722FEF7E794F85F
:1013A00021309B0704D1226963691A612269536164
:1013B0000E20BD46BDE8B040FFF74ABE440A0020FB
:1013C00080B4202300AF83F31188BD4680BCFFF7B3
:1013D000D7BF000000000000000000000000000077
:1013E00098B5044600AF202383F3118890F820308D
:1013F0000E2B07D0064BC26A9B691A60C362072096
:10140000FFF726FEA06A002383F3118898BD00BF72
:10141000440A00200000000000000000000000005E
:1014200080B5202300AF83F31188034B1869002394
:1014300083F3118880BD00BF440A00200000000033
:1014400080B5202300AF83F31188044B00699842D4
:1014500008BF0020002383F3118880BD440A0020C8
:1014600090B4836800AF5A1E002A826011DA19B95D
:1014700083604FF0FF300DE0084B9B699862426833
:1014800018605A60436003201360BD4690BCFFF7AC
:1014900007BE0020BD4690BC704700BF440A002034
:1014A00080B5202300AF83F31188FFF7D9FF002315
:1014B00083F3118880BD00000000000000000000E0
:1014C00080B4826800AF0132002A0346826009DCE2
:1014D000006802681A60536000238362BD4680BCC6
:1014E000FFF77EBDBD4680BC7047000000000000D5
:1014F0000B4690B500AF1B68994205D15A6803604E
:1015000042605860106090BD9C6882689442F2D23C
:10151000F4E70000000000000000000000000000F0
:1015200080B5002300AF40600060836080BD000094
:10153000F8B51A4B846800AF06469D6944B3AB68A2
:10154000A2689A4219D2A36094F820306BB1042BA0
:1015500013D194E80C001A60226820465360A16AF7
:10156000FFF7C6FFA36A9C68E9E794E80C001A60DD
:10157000226820465360FFF733FD28463146FFF7C7
:10158000B7FF0420AE62BD46BDE8F840FFF760BD7E
:101590006B6B8560C3606863F8BD00BF440A0020C0
:1015A00080B5202300AF83F31188FFF7C1FF00232C
:1015B00083F3118880BD00000000000000000000DF
:1015C000B0B5144B00AF9A69202383F31188546B94
:1015D0002068E168A042516315D0936B41B10D685A
:1015E0008D4203D0AD68AB4238BF2B46C968F5E7E2
:1015F0009360036823605C60436BA060E3604463B6
:10160000FFF76EFD01E00023A360002383F3118840
:101610002046B0BD440A0020000000000000000089
:1016200080B5036B00AF194390F820300163082B9D
:1016300003D1836A194205D180BD092B06D1836A83
:101640008B4303D1FFF7CCFC0023836280BD0000F5
:10165000F8B505460E46046800AFAC4208D0E36812
:10166000A1683343E3606068FFF7DAFF2468F4E7BA
:10167000F8BD0000000000000000000000000000B5
:1016800080B400AF61B1094B9B69986242681860F1
:101690005A6043600D201360BD4680BCFFF700BD5B
:1016A0004FF0FF30BD4680BC704700BF440A0020A9
:1016B00090B500AFC361FB6800240A44406000603D
:1016C000846041618161C1600261036290BD00007C
:1016D000B0B50446C36800AF4361836100238360F3
:1016E0006FF001052068A04206D0036823605C60AB
:1016F000FFF776FC8562F5E7B0BD00000000000052
:10170000034680B59A69406900AF90429A6803D158
:1017100012B16FF0030080BD01329A60421C5A6121
:10172000017059691A69914201D3DA685A611868DF
:10173000984208D002681A605360FFF751FC0023FA
:101740008362184680BD002080BD000000000000BC
:10175000F8B5044600AF0E46202383F31188C36911
:1017600003B19847A5683DB931462046FFF788FF89
:101770000028F7DA2B460BE0A269013D531CA36158
:10178000A56010782269934224BFE368A361002317
:1017900083F31188F8BD0000000000000000000085
:1017A0002DE9F84F9B4600AF044689469246D0F893
:1017B0001C80202383F311880025B8F1000F01D08D
:1017C0002046C047A6684EB959462046FFF758FF45
:1017D0000028F7D0334683F3118817E0A369013E50
:1017E0005A1CA261A6601B7809F805302369A2691A
:1017F0009A4224BFE368A361002383F31188013573
:10180000AA4503D0202383F31188D6E72846BDE8F4
:10181000F88F000000000000000000000000000041
:1018200080B500AFC361BB6882600A44406000605D
:1018300041618161C1600261036280BD00000000FE
:10184000B0B50446C268036900AF9B1A4261826169
:1018500083606FF001052068A04206D00368236012
:101860005C60FFF7BDFB8562F5E7B0BD00000000DE
:101870002DE9F041202300AF04460E46904683F345
:101880001188A56855B941462046FFF7F9FE0028A2
:10189000F7DA2B4683F31188BDE8F0816369013DD7
:1018A0005A1C6261A5601E70236962699A4224BF56
:1018B000E3686361E3690BB120469847002383F333
:1018C00011881846BDE8F08100000000000000000B
:1018D00098B54269816900AF8A420346826803D1A4
:1018E00012B16FF0020098BD01329A604A1C9A61F1
:1018F0000C7819698A4201D3DA689A6118689842AB
:1019000006D002681A605360FFF76AFB0023836207
:10191000204698BD0000000000000000000000000C
:101920002DE9F84F9A4600AF04460E469046D0F88F
:101930001C90202383F311884FF0000BA5684DB94C
:1019400051462046FFF79CFE0028F7D02B4683F334
:1019500011881FE06369013D5A1C6261A5603278FD
:10196000751C1A70236962699A4224BFE368636137
:10197000B9F1000F01D02046C847002383F3118836
:10198000B8F101080BF1010B04D0202383F3118877
:101990002E46D3E75846BDE8F88F0000000000004F
:1019A000064B80B5064A23F007031360054B064A31
:1019B00023F0070300AF136080BD00BF4F1A002063
:1019C000640A002000400020600A0020000000009F
:1019D0000749084A073020F0070380B508681268F5
:1019E00000AF121A93429ABF1B180B60002080BDF3
:1019F000640A0020600A00200000000000000000CF
:101A000080B5202300AF83F31188FFF7E1FF0023A7
:101A100083F3118880BD000000000000000000007A
:101A2000034B80B51868034B00AF1B68C01A80BD1C
:101A3000600A0020640A002000000000000000008E
:101A400080B40648064B00AF036000238360C36088
:101A50001030BD4680BCFFF763BD00BF680A0020A0
:101A6000011A000800000000000000000000000053
:101A7000F8B51F4D0731002818BF054600AF05F126
:101A8000100021F0070405F10806FFF789FD306812
:101A9000E8B143689C4218D804F108029342D0F898
:101AA00000E002D2C6F800E009E040F802E0811848
:101AB0006FF00702121B13444B6031604460044610
:101AC00044F8085BFFF77CFD10E00646DFE7FFF710
:101AD00077FD2B680BB9002408E004F10800984753
:101AE0000028F8D04460056000F108042046F8BDE5
:101AF000680A002000000000000000000000000054
:101B0000F8B50446A0F1080550F8080C00AF00F144
:101B100008061030FFF744FD3346B3421A6801D07F
:101B2000AB4225D20AB1954222D244F8082C1D605E
:101B300054F8040C54F8086C00F108016A18B24219
:101B400007D152680244083244F8042C6A5844F819
:101B5000082C586800F1080119448D420AD154F844
:101B6000042C024408325A6054F8082C1A6001E030
:101B70001346D2E7BD46BDE8F840FFF721BD00009F
:101B8000B0B50D4C00AF002818BF044604F110009A
:101B90000D46FFF705FD002304F108001C46006810
:101BA00018B1426801341344F9E705B12B60FFF71F
:101BB00007FD2046B0BD00BF680A002000000000FD
:101BC00080B500AF00F0E4FF084801F0E9FC00F048
:101BD00037F800F09DF800F02BF900F0D1FB00F091
:101BE00067FABD46BDE8804005F0D2BBD0D60008FC
:101BF00080B5094B814200AF5B6803D9834203D2B1
:101C0000002080BD834204D28B422CBF00200120E3
:101C100080BD012080BD00BF001000E0000000007A
:101C200098B5054B00AF5A68141821461046FFF7C7
:101C3000DFFF0028F9D198BD001000E0000000008F
:101C400080B400AFBD4680BC01F07AB8000000004F
:101C500080B401230370002343608360C360036189
:101C6000436100AF1830BD4680BCFFF759BC00008F
:101C700098B5044600AF202383F31188416001F03A
:101C80007FF802232370002383F3118898BD00009E
:101C900098B5044600AF202383F3118801F098F82B
:101CA00001232370002383F3118898BD00000000F6
:101CB000B0B51D4600AF0446202383F311880323EB
:101CC000C560084D82600161037001F0A1F8AB6945
:101CD00002206361FFF7BCF9AB69986A002383F3C4
:101CE0001188B0BD440A0020000000000000000080
:101CF00080B4183000AFBD4680BCFFF751BC000077
:101D000080B400AFBD4680BCFFF75ABC00000000A5
:101D100080B400AFBD4680BC01F07ABB000000007B
:101D200080B501230370002300AF436080BD000035
:101D300098B5044600AF202383F31188416001F079
:101D4000F7FB02232370002383F3118898BD000062
:101D500098B5044600AF202383F3118801F068FB97
:101D600001232370002383F3118898BD0000000035
:101D700080B40C3000AFBD4680BCFFF711BD000041
:101D800080B44FF0FF3300AF0C30BD4680BCFFF78E
:101D900007BD00000000000000000000000000007F
:101DA00080B4303000AFBD4680BCFFF7B9BD000045
:101DB00080B44FF0FF3300AF3030BD4680BCFFF73A
:101DC000AFBD0000000000000000000000000000A7
:101DD00080B40C3000AFBD4680BCFFF7B9BC00003A
:101DE00080B44FF0FF3100AF0C30BD4680BCFFF730
:101DF000AFBC000000000000000000000000000078
:101E000080B4303000AFBD4680BCFFF731BD00006C
:101E100080B44FF0FF3200AF3030BD4680BCFFF7DA
:101E200027BD0000000000000000000000000000CE
:101E300080B400AFBD4680BC01F0E2BC00000000F1
:101E40000346B0B5044615460D4A82B043F8042B4C
:101E500043600123037202AF00900B46102200F191
:101E600054010C30FFF724FC00942B46102204F19F
:101E7000640104F13000FFF7D3FCBD46B0BD00BFE4
:101E8000F0AC0008000000000000000000000000AE
:101E900098B5044600AF202383F3118801F0C8FCF5
:101EA00002232372002383F3118898BD00000000F1
:101EB00098B5044600AF202383F3118801F000FD9C
:101EC0000123237204F13000FFF7BAFC04F10C0087
:101ED000FFF7FEFBFFF78CF9002383F3118898BD11
:101EE000B0B5436900AF04460D461BB90421084450
:101EF000FFF7AEFB294604F10C00FFF701FC0028B8
:101F000006DA8021201DBD46BDE8B040FFF7A0BB2A
:101F1000B0BD000000000000000000000000000054
:101F200098B5046A00AFD4F85422136819780429CC
:101F300025D1217A022922D11B891279134113F06C
:101F400001031CD1E16B226C521AA16B521A16D0FC
:101F500083F31188D4F854021346017904F1300256
:101F6000006800F0ADFA202383F31188D4F85432CE
:101F700019791868BD46BDE8984000F0C9BA98BD07
:101F800098B5046A00AFD4F854321A68117804295D
:101F90002CD1217A022929D1597953890B4113F087
:101FA000010323D102EB8102D268A069518AE26960
:101FB000121A6069121A914218D883F31188B2FB81
:101FC000F1F3D4F854024B4304F10C024179006858
:101FD00000F066FA202383F31188D4F8543259793B
:101FE0001868BD46BDE8984000F07ABA98BD000078
:101FF00080B40C3000AFBD4680BCFFF7D1BB000001
:1020000080B44FF0FF3300AF0C30BD4680BCFFF70B
:10201000C7BB00000000000000000000000000003E
:1020200080B4303000AFBD4680BCFFF779BC000003
:1020300080B44FF0FF3300AF3030BD4680BCFFF7B7
:102040006FBC000000000000000000000000000065
:1020500080B40C3000AFBD4680BCFFF779BB0000F8
:1020600080B44FF0FF3100AF0C30BD4680BCFFF7AD
:102070006FBB000000000000000000000000000036
:1020800080B4303000AFBD4680BCFFF7F1BB00002C
:1020900080B44FF0FF3200AF3030BD4680BCFFF758
:1020A000E7BB00000000000000000000000000008E
:1020B00080B500AF80BD00000000000000000000FF
:1020C000034690B504460F4A83B043F8042B43609F
:1020D0000123037202AF009000F154010A4B4FF448
:1020E00080720C30FFF7E4FA0094084B4FF48072D2
:1020F00004F5AA7104F13000FFF792FB0437BD46E6
:1021000090BD00BF10AD0008811F0008211F00080E
:1021100080B50A6800AF202383F311880B7902EBA6
:10212000830398624B79113342F823008B7902EBD9
:102130008302022390620372C0F85412002383F3D7
:10214000118880BD000000000000000000000000B9
:10215000B0B5D0F8543200AF1A680446202383F398
:102160001188D0F85432002519790430093102EB76
:1021700081014D605979113142F821509B7902213A
:10218000093302EB8302012355600371FFF760FA04
:1021900004F10C00FFF79CFA04F13000FFF750FB4C
:1021A000FFF726F82B4683F31188B0BD000000002E
:1021B000F8B50446D0F8543200F10C0600AF3046B2
:1021C0001D68FFF785FA04F13000FFF739FB201D89
:1021D0000121FFF73DFAD4F85432284659793246A6
:1021E00005EB8103DB685B8A00F05AF92846D4F8D6
:1021F00054325979BD46BDE8F84000F071B900008D
:1022000080B590F8743000AF03F06003202B19D133
:1022100090F87520212A0AD0222A4FF000030CD012
:10222000202A0FD1084A82660722C26607E0064BC1
:1022300083660723C366002301E08366C3660367E2
:10224000012080BD002080BD0005002000000000AE
:102250002DE9F04100EB8108D8F8284000AF054691
:102260000E4664B3202383F311880821201DFFF755
:10227000EFF9E26B236C9B1AA26B9A1A04D000232D
:1022800083F3118813460AE0D8F80C305A69516874
:1022900091B11A8A531E0B400ED183F3118804F1B9
:1022A00030023146284600F00BF9202383F31188D1
:1022B0003146284600F02CF9002383F31188BDE84D
:1022C000F08100000000000000000000000000009D
:1022D0002DE9F04100EB8108D8F8444000AF0546F5
:1022E0000E4634B3202383F3118804216018FFF7CE
:1022F000AFF9D8F80C30A1695A8AE3695B1A6169B1
:10230000591A8A4212D8002383F31188B1FBF2F3E1
:1023100028465343314604F10C0200F0C1F8202353
:1023200083F311883146284600F0DAF8002383F35E
:102330001188BDE8F08100000000000000000000EE
:1023400080B500AF80BD000000000000000000006C
:1023500098B5044690F8763000AF80F87E3001F0F2
:102360007FFB63681B6813B1012120469847032354
:10237000237098BD00000000000000000000000075
:1023800080B400AFBD4680BC01F012BB000000006D
:1023900090B501230370002300AF436000F12802D1
:1023A00000F1440442F8043FA2424FF00001D3611F
:1023B000F8D10181418190BD0000000000000000C3
:1023C00098B5044600AF202383F31188416000F1E3
:1023D000080300F12802002143F8041F9342FBD1B7
:1023E000204601F0F5FA02232370002383F31188BD
:1023F00098BD000000000000000000000000000088
:1024000098B5044600AF202383F3118801F008FB40
:1024100001232370002383F3118898BD000000007E
:10242000F8B50546506900AF0E46144618B11022A3
:10243000002106F07DFFA06918B11422002106F0EA
:1024400077FF3146284605EB8603DC60BD46BDE8D4
:10245000F84001F015BB0000000000000000000083
:10246000B0B400EB8104E4680025A46900AF2570D6
:10247000E2606360A560BD46B0BC01F0C1BB000076
:10248000B0B400EB8104E4680025646900AF2570F6
:10249000E2606360A560BD46B0BC01F0C9BB00004E
:1024A000B0B400EB8104E4680125A46900AF636067
:1024B00000232570E260A360BD46B0BC01F0A0BB64
:1024C000B0B400EB8104E4680125646900AF636087
:1024D00000232570E260A360BD46B0BC01F0A8BB3C
:1024E000F8B5458900AF45FA01F414F001044FF046
:1024F000010308D103FA01F242EA0503438101F026
:10250000CFFB2046F8BD1846F8BD000000000000D3
:10251000F8B5058900AF45FA01F414F001044FF055
:10252000010308D103FA01F242EA0503038101F035
:10253000C7FB2046F8BD1846F8BD000000000000AB
:1025400080B402230370002300AFA0F87C3080F831
:102550007E3080F87F300381438100F1080200F172
:10256000280142F8043F8A42FBD1002380F86430FE
:10257000BD4680BC01F0E4BA00000000000000008D
:10258000F8B50446002380F8643000AF00F174020F
:1025900001F016FB63689B6833B994F8743013F04C
:1025A000600640F0CB8005E020469847002840F0C8
:1025B000D780F2E794F8755003F07F0343EA0525CE
:1025C000B5F5407F40D00EDC022D7BD003DC5DB33F
:1025D000012D70D0B2E0B5F5807F2CD0B5F5817FAC
:1025E00000F08A80AAE0B5F5C06F3BD00CDC40F269
:1025F00002339D4200F09180B5F5A06F40F09E80BF
:10260000A666E666814B54E0B5F5106F3FD040F604
:1026100002439D424FD0B5F5006F40F08F8004F12A
:102620007F03A366012330E004F17C03A366022349
:10263000E366256794E094F87630012B7ED1B4F8F8
:102640007C3023F0020307E094F87630012B75D13B
:10265000B4F87C3043F00203A4F87C30A666E6664A
:10266000266783E094F87920616894F878304D68A3
:1026700043EA022394F8771094F876202046A8477E
:1026800000285BD04368A3660368E36632E094F8F1
:10269000763084F87F300BB9032300E004232370E5
:1026A00063681B6813B10221204698470023A36684
:1026B000E36623675AE0564BA3660223E3660023D2
:1026C00023674DE094F87810204611F0800F01F058
:1026D0000F0102D001F064FA01E001F051FA012883
:1026E00005D002282AD14B4BE066A36602E04A4B94
:1026F000E566A366266733E094F87630F3B994F87C
:10270000783013F00F01D1D01A06204602D501F01F
:10271000CFFCCBE701F0B4FCC8E794F876306BB996
:1027200094F8783013F00F01C0D01B06204602D574
:1027300001F096FCBAE701F083FCB7E700212046E0
:1027400001F08EFC0021204601F07AFC63681B68D2
:1027500013B1052120469847062384F86430F8BD5C
:10276000B4F87A30E26E934200D2E36694F97430A2
:10277000E56E002B22DA85B1012384F86430A26E65
:102780002B4600212046FFF77BFE202383F3118890
:1027900000212046FFF7BCFE21E0032384F86430CB
:1027A0002A462B4629462046FFF75AFE202383F36C
:1027B000118829462046FFF793FE22E08DB10423BD
:1027C00084F86430A26E2B4600212046FFF748FEB5
:1027D000202383F3118800212046FFF781FE002388
:1027E00010E0052384F864302A462B46294620460B
:1027F000FFF746FE202383F3118829462046FFF782
:1028000087FE2B4683F31188F8BD00BF51230008D3
:1028100030AD000840AD000850AD000800000000D9
:10282000B0B590F8643000AF022B044620D0052BE1
:1028300032D0012B35D1B0F87A30C26E934217D91D
:10284000C3681D8AB2FBF5F305FB132585B92B463A
:102850002A462946FFF714FE202383F311882946D0
:102860002046FFF755FE2B4683F31188022326E00E
:10287000032384F8643000231A4619462046FFF7E4
:10288000EFFD202383F3118800212046FFF728FE67
:10289000002383F31188B0BD036F03B19847002371
:1028A0000DE0002101F0DCFB0021204601F0C8FB17
:1028B00063681B6813B1052120469847062384F8F6
:1028C0006430B0BD00000000000000000000000007
:1028D00098B590F8643000AF032B044614D0042B55
:1028E0001BD1052380F8643000231A461946FFF7F0
:1028F000C7FD202383F3118800212046FFF708FE3F
:10290000002383F3118898BDC3689B699B6823B932
:10291000036F03B1984700230EE00021204601F029
:102920009FFB0021204601F08BFB63681B6813B1FD
:10293000052120469847062384F8643098BD00009E
:10294000084B80B50F2219685A60074A00AF136818
:1029500001F00F010BB150689847BD46BDE88040BB
:10296000FEF75EB900600240880A00200000000007
:10297000084B80B5F02219685A60074A00AF936887
:10298000C1F303110BB1D0689847BD46BDE8804044
:10299000FEF746B900600240880A002000000000EF
:1029A000094B80B54FF4706219685A60074A00AF4E
:1029B0001369C1F303210BB150699847BD46BDE8C7
:1029C0008040FEF72DB900BF00600240880A002059
:1029D000094B80B54FF4704219685A60074A00AF3E
:1029E0009369C1F303310BB1D0699847BD46BDE887
:1029F0008040FEF715B900BF00600240880A002041
:102A0000094B80B54FF4702219685A60074A00AF2D
:102A1000136AC1F303410BB1506A9847BD46BDE844
:102A20008040FEF7FDB800BF00600240880A002029
:102A3000094B80B54FF4700219685A60074A00AF1D
:102A4000936AC1F303510BB1D06A9847BD46BDE804
:102A50008040FEF7E5B800BF00600240880A002011
:102A6000094B80B54FF0706219685A60074A00AF91
:102A7000136BC1F303610BB1506B9847BD46BDE8C2
:102A80008040FEF7CDB800BF00600240880A0020F9
:102A90000B4A0023B0B513601A460A4C0A4900AF2E
:102AA0000C2505FB03F00059026041F83320013387
:102AB000072BF6D1054B4FF0FF325A60B0BD00BF77
:102AC000C00A002060AD0008880A002000600240B3
:102AD000F8B5DFF870E0467A0125DEF8004005FA27
:102AE00006FC1CEA040F00AF24D1144D45F8362033
:102AF00005EBC6056B604CEA0403CEF800305B06BC
:102B000018BF0F4C45681EBFE36943F08073E36153
:102B100003681C6824F00F041C60067A0F24B4407C
:102B20002C6000241C603AB10901807AFEF7D8F8C5
:102B30002046F8BD2846F8BD1046F8BD880A00209A
:102B400000380240C00A0020000000000000000021
:102B500098B5044600AF807AFEF7EAF8627A084931
:102B6000012303FA02F20B6823EA02030B605B06FF
:102B700001BF044AD36923F08073D36198BD00BFBD
:102B8000C00A0020003802400000000000000000E1
:102B900043F67F60294B80B41A6900AF62F40042AB
:102BA0001A6100221A61996961F0805199619A61F4
:102BB00059694FF0FF31596121495A6148608A6073
:102BC00007220A60D1F8EC2D42F08072C1F8EC2D9A
:102BD0001C490A6842F001020A605A6A01F1602148
:102BE00042F080525A620A6842F480720A605A6B5C
:102BF00002F44032B2F5803F07D05A6B42F4000233
:102C00005A635A6B22F400025A635A6B0B4942F41E
:102C100080725A634A6B094B9005FBD55A6B52027E
:102C200007D45A6B42F480325A635A6B42F48002E2
:102C30005A63BD4680BCFFF72BBF00BF003802407F
:102C400010E000E0001000E00000000000000000C4
:102C500080B5374B4FF080525A62364A00AF536806
:102C6000344913F0100FFAD14FF400630B604B6836
:102C700013F01002FBD12E4B9A605A6822F4604286
:102C800042F440425A604FF080725A634FF48072AF
:102C90001A601968264A8905FBD5136843F00103B9
:102CA0001360136822499B07FBD54B6BD8050CD4E6
:102CB000204B1A6842F480721A604A6B42F48072A8
:102CC0004A631A6822F480721A6019494B6B184AD9
:102CD00013F4007FFAD0936843F4080393601368F9
:102CE00043F0807313601168114B8901FBD51A689A
:102CF00000211A609A6842F422529A605A6B42F498
:102D000080325A630C4A11609A6842F003029A605A
:102D10009968074A01F00C010C29F9D1136A43F0B4
:102D200001031362D36A43F00103D36280BD00BF85
:102D30000038024000700040003C024000000000EB
:102D400098B5094C00AF2046FEF782FF074B602183
:102D5000A362074B1220E36242F28A532363BD460B
:102D6000BDE89840FDF7BCBFC40A00200024014024
:102D700060AD00080000000000000000000000003E
:102D800098B5037800AF012B044617D10C4B98423D
:102D90000ED103460B4A0621C06AFFF799FEE36A8B
:102DA000094A1B689A60094A136A43F40073136264
:102DB000A36A00225A609A6001229A6098BD00BFFF
:102DC000C40A0020412F0008582401400038024066
:102DD00098B5037800AF022B04460ED1C06AFFF706
:102DE000B7FEA36A00225A609A60044B9C4201BF5E
:102DF000034A136A23F40073136298BDC40A0020C7
:102E00000038024000000000000000000000000048
:102E1000B0B5026900AF1378016B0BB141F020012E
:102E2000C36A85681B68C468DD605588012C04FB93
:102E300005F488BF41F004015C601960196841F035
:102E400001011960836A002119605169D960916993
:102E50001961D1695961116A1963516A5963916A9B
:102E60009963D16AD963116B1964D168126941F011
:102E7000806112F0804F42F4407241F4807114BFBF
:102E800042F0030242F0010259609A60B0BD0000B6
:102E9000C36A80B5196800AF0A6822F00F020A60A1
:102EA000197A5A680F238B401360836A00225A6094
:102EB0009A6001229A6080BD0000000000000000BE
:102EC00098B51A4B00211A681960930600AF27D5F0
:102ED000174CE36A1B685B6813B3236903B320468E
:102EE000FFF7D6FF23699B684BB1052222700121B1
:102EF000204698472378052B04BF02232370002225
:102F00002261202383F31188606930B1084B5A6134
:102F10004FF0FF338362FEF763F8002383F31188D9
:102F2000BD46BDE89840FDF77BBE00BF00240140D0
:102F3000C40A0020000000000000000000000000A3
:102F4000B0B50D46290700AF044619D5FFF7A0FF1D
:102F500003699B6843B105220270002198472378DA
:102F6000052B04BF0223237000222261202383F358
:102F70001188606900284CD062614FF0FF3345E052
:102F80000369002B48D06A0705D55B681BB1C2688E
:102F9000816852089847AB073ED521690B7893B1F9
:102FA0004B68002B38D0E268012A81BF498852085B
:102FB0005143A06894BFA16800EB41012046BD4683
:102FC000BDE8B04018472046FFF762FF21694B6813
:102FD0008BB104222270E268012A81BF498852081D
:102FE0005143A06894BFA16800EB41012046984777
:102FF0002378042B03D10223237000232361202391
:1030000083F31188606920B1002363618362FDF757
:10301000E7FF002383F31188B0BD0000000000002B
:1030200080B50748074B01225A61436800AF5B68CF
:1030300000219847BD46BDE88040FDF7F1BD00BFC7
:10304000F80A002000040140000000000000000019
:1030500080B50748074B02225A61436800AFDB681E
:1030600001219847BD46BDE88040FDF7D9BD00BFAE
:10307000F80A0020000401400000000000000000E9
:1030800080B50748074B04225A61436800AF5B696B
:1030900002219847BD46BDE88040FDF7C1BD00BF95
:1030A000F80A0020000401400000000000000000B9
:1030B00080B50748074B08225A61436800AFDB69B7
:1030C00003219847BD46BDE88040FDF7A9BD00BF7C
:1030D000F80A002000040140000000000000000089
:1030E00080B50748074B10225A61436800AF5B6AFE
:1030F00004219847BD46BDE88040FDF791BD00BF63
:10310000F80A002000040140000000000000000058
:1031100098B5174B00AF5C6904F478725A61A30646
:1031200004D5144805214368DB6A9847600604D536
:103130001048062143685B6B9847210604D50D486B
:1031400007214368DB6B9847E20504D5094808214D
:1031500043685B6C9847A30504D50648092143687A
:10316000DB6C9847BD46BDE89840FDF759BD00BFF0
:1031700000040140F80A00200000000000000000E8
:1031800098B51A4B00AF5C6904F47C425A61620541
:1031900004D517480A2143685B6D9847230504D579
:1031A00013480B214368DB6D9847E00404D51048B1
:1031B0000C2143685B6E9847A10404D50C480D218F
:1031C0004368DB6E9847620404D509480E214368C2
:1031D0005B6F9847230404D505480F214368DB6FD4
:1031E0009847BD46BDE89840FDF71ABD0004014070
:1031F000F80A0020000000000000000000000000AD
:1032000080B50848084B4FF480325A61436800AFDC
:10321000D3F8843010219847BD46BDE88040FDF7C3
:10322000FFBC00BFF80A00200004014000000000BD
:1032300080B50848084B4FF400325A61436800AF2C
:10324000D3F88C3011219847BD46BDE88040FDF78A
:10325000E7BC00BFF80A00200004014000000000A5
:1032600080B50848084B4FF480225A61436800AF8C
:10327000D3F8943012219847BD46BDE88040FDF751
:10328000CFBC00BFF80A002000040140000000008D
:1032900080B50848084B4FF400225A61436800AFDC
:1032A000D3F89C3013219847BD46BDE88040FDF718
:1032B000B7BC00BFF80A0020000401400000000075
:1032C00080B50848084B4FF480125A61436800AF3C
:1032D000D3F8A43014219847BD46BDE88040FDF7DF
:1032E0009FBC00BFF80A002000040140000000005D
:1032F00098B50D4B00AF5C6904F4C0025A61A2029C
:1033000005D50A4815214368D3F8AC3098476302C5
:1033100005D5064816214368D3F8B4309847BD4612
:10332000BDE89840FDF77CBC00040140F80A00208D
:1033300080B5602100AF0620FDF7D2FC6021072098
:10334000FDF7CEFC60210820FDF7CAFC60210920B2
:10335000FDF7C6FC60210A20FDF7C2FC60211720A2
:10336000FDF7BEFC60212820FDF7BAFC602101209A
:10337000FDF7B6FC60212920FDF7B2FC60212A2070
:10338000FDF7AEFC60210220FDF7AAFC60210320BE
:10339000FDF7A6FC60211620BD46BDE88040FDF784
:1033A0009FBC0000000000000000000000000000C2
:1033B00080B5062000AFFDF7BBFC0720FDF7B8FC89
:1033C0000820FDF7B5FC0920FDF7B2FC0A20FDF747
:1033D000AFFC1720FDF7ACFC2820FDF7A9FC01206D
:1033E000FDF7A6FC2920FDF7A3FC2A20FDF7A0FC91
:1033F0000220FDF79DFC0320FDF79AFC1620BD4638
:10340000BDE88040FDF794BC000000000000000013
:1034100080B4034800AFBD4680BCFEF781BC00BF4E
:10342000F80A00200000000000000000000000007A
:1034300080B5037800AF022B01D1FFF7B9FF044B31
:1034400000225A601A604FF0FF325A6180BD00BFFF
:103450000004014000000000000000000000000027
:103460004068244BF0B550F831609C6801228A40D6
:1034700016F0010F14BF224324EA02029A60DC68AE
:1034800001228A4016F0020F14BF224324EA0202EE
:10349000DA6000EBC1056C6800AF012244B11C6822
:1034A0008A4014431C605C6824EA02025A6007E008
:1034B0005C688A4014435C601C6824EA02021A605B
:1034C0000F2915D821F0030301F0030203F1804313
:1034D00050F8311003F5803392009C68C1F303115A
:1034E0000F20914000FA02F224EA02020A439A6095
:1034F000F0BD00BF0004014000000000000000001B
:10350000012202FA01F1CA43084B80B5186800AFE6
:1035100010401860586810405860986810409860D3
:10352000D8680240DA60596180BD00BF00040140E4
:10353000B0B5037800AF012B054601D1FFF7F8FEC7
:1035400000246B68214653F8343028465B0702D5C7
:10355000FFF786FF01E0FFF7D3FF0134172CF0D10E
:10356000B0BD0000000000000000000000000000EE
:103570004B6880B543608B6800AF8360CB68C360E5
:103580000B6943614B6903628B6943620B6803609B
:1035900080BD0000000000000000000000000000EE
:1035A000174B80B5D969024641F03F01D961996A4C
:1035B00000AF41F03F019962996A41F03F01996281
:1035C00001461048FFF7D4FF0F4802F11C01FFF736
:1035D000CFFF0E4802F13801FFF7CAFF0C4802F195
:1035E0005401FFF7C5FF0B4802F17001FFF7C0FF60
:1035F000094802F18C01BD46BDE88040FFF7B8BF25
:10360000003802400000024000040240000802406E
:10361000000C0240001002400014024000000000B4
:103620002DE9F04F83B0C2F3C31300AF02F00306DD
:10363000C2F38008C2F3C10CC2F3411E7B600022BA
:103640004FF00F094FF0010A4FF0030BCB072DD5B8
:103650007C6802F007039B0004FA03F509FA03F300
:10366000DB43072A95BF046A446A2340234095BF81
:103670001D431D430562456243680AFA02F423EACA
:10368000040343EA0803436053000BFA03F3DB43EC
:1036900084681C4044EA0C048460C4681C4044EA0A
:1036A0000E04C4600468234033430360490808D013
:1036B0004FEA48084FEA8C0C4FEA8E0EB6000132F2
:1036C000C4E70C37BD46BDE8F08F000000000000E5
:1036D000044A80B5938900AF9BB243F08003938185
:1036E00080BD00BF00380140000000000000000065
:1036F0003F4B2DE9F0415D6F00AFAE892C88B5F8E6
:103700000480A4B22207B6B21FFA88F819D014F0C8
:10371000080F0CBF00218021E30748BF41F02001C2
:10372000A00748BF41F04001620748BF41F48071E3
:10373000202383F311882F48FDF78AFF002383F3AA
:103740001188E30510D5202383F311884FF400710D
:103750002848FDF77DFF002383F311882B8823F48D
:1037600080731B041B0C2B80A0060AD5202383F337
:1037700011881F485FFA88F1FEF7B2FB002383F33C
:103780001188310618D5220616D5202383F3118817
:103790001948FEF79DF8002809DA08211548FDF7B9
:1037A00057FF26F0C00343F04003AB8101E080B235
:1037B000A880002383F31188630613D5202383F3A5
:1037C000118810210B48FDF743FF002383F3118874
:1037D00026F04006B6B2AE812B8823F040031B04CE
:1037E0001B0C2B80BD46BDE8F041FDF719BA00BFA8
:1037F000000B0020040B0020300B00200000000014
:1038000098B5054C00AF054A00212046FEF718FB8D
:10381000034B636798BD00BF000B0020D136000842
:10382000003801400000000000000000000000001F
:10383000B0B5037A1A4C00AF002918BF0C46012B13
:1038400005460BD1174B984208D1174AC021136A7D
:10385000252043F480431362FDF742FA6B6F134A4D
:10386000934208BF1249226818BF1249B1FBF2F215
:1038700092B21A81E28842F0400292B21A82228900
:1038800042F0010292B29A82A28842F4045242F0BB
:103890002C0292B29A8100221A801A889B88B0BDAD
:1038A000C0AD0008000B0020003802400038014085
:1038B00000093D000024F4000000000000000000AA
:1038C00080B4037A00AF022B11D1436F00229A819A
:1038D0001A829A82074B984209D1074A2520136A17
:1038E00023F480431362BD4680BCFDF721BABD4678
:1038F00080BC7047000B0020003802400000000030
:1039000003682DE9F04103F1005303F540530C46E1
:103910005B0091B2550881809E46294600AFE1B117
:10392000A069D4F810C0461C6645A66128BFE668A9
:10393000007828BFA661D4F81880013908F1010683
:10394000A66198F80080B44598BFE66840EA082070
:1039500098BFA6614EF8040BE1E7D1070AD5A0692C
:10396000411CA161007843F825002369994224BFD6
:10397000E368A361202383F31188A36800251A4418
:10398000A2602068A04206D0036823605C60FDF757
:1039900027FB8562F5E7002383F31188BDE8F081FA
:1039A00080B400AFBD4680BCFDF73AB9000000000E
:1039B00080B4034800AFBD4680BCFEF7E9BC00BF41
:1039C000780B002000000000000000000000000054
:1039D000B0B5027800AF012A044619D10D4B9842C8
:1039E00010D10D490D4D4B6A132043F400034B6277
:1039F0002A64D021FDF774F9E0211420FDF770F955
:103A000000232B642046BD46BDE8B040FEF798BDBC
:103A1000B0BD00BF780B002000380240005C0040C1
:103A200080B5037800AF012B10D1094B98420DD11E
:103A30001320FDF77DF91420FDF77AF9054B0322D9
:103A40001A64054A536A23F40003536280BD00BF21
:103A5000780B0020005C00400038024000000000AD
:103A600080B590F87E30034A43F0800300AFD36402
:103A700080BD00BF005C00400000000000000000AE
:103A800000EB8103F0B5DC6800AF236803F00303AB
:103A9000013B022B96BF284A4FF4007232F81320E4
:103AA000A3680BB142F02002E3680BB142F400526C
:103AB00047F6700642EA01058B0025F4F04503F154
:103AC000804303F5B84325F070051D601D6816405E
:103AD00086EA05021A60628A3E2A02F1FF3308D99B
:103AE00043F01F0301335B116FEAC3636FEA534373
:103AF00006E043F001030133022593FBF5F39B023B
:103B00000E4D9BB22D6D05F1005505F5405505EBA9
:103B1000C101490000258D808B81D0F88050238A17
:103B20002B44C0F880300D60D0F880301A44C0F8C3
:103B300080208B60F0BD00BFD0AD0008005C00406D
:103B40000C4B90B40021802419655964DC644468EE
:103B500000AFE4688C420CBF4FF41C444FF41E4489
:103B60001C644023C0F88030034BC360BD4690BC4A
:103B7000FFF786BF005C0040E0AD000800000000D9
:103B800080B5064B00AF53F8210010F4405004D02C
:103B9000B0F5805F0CBF0120022080BD005C0040BA
:103BA00080B5064B00AF53F8210010F0300003D071
:103BB00010280CBF0120022080BD00BF005C004027
:103BC0000C4B80B51B6D00AF03F1005303F5405360
:103BD00003EBC10149008B6803F1005303F5405327
:103BE0005B0003F1100153F8040B8B4222F8020B27
:103BF000F9D180BD005C0040000000000000000022
:103C000000EB8101C96880B58A6900AF53680BB9C0
:103C1000012304E0498A013B0B44B3FBF1F3138217
:103C200080BD000000000000000000000000000057
:103C300000EB8100C368B0B45C6917481B8A6268F6
:103C4000006D9A4228BF1A46237800F1005000AF59
:103C5000C90000F5405033B10844E1684000BD465A
:103C6000B0BCFFF74DBE01444900086895B200F1B1
:103C7000005000F540500132E46840008D80520849
:103C8000934205D034F8131040F823100133F7E7BE
:103C9000BD46B0BC704700BF005C004000000000A3
:103CA000890001F1804101F5B84180B50B6800AF92
:103CB00023F4904323F0700383F440530B6080BDE2
:103CC000890001F1804101F5B84180B50B6800AF72
:103CD00023F4F04323F0400383F030030B6080BDF6
:103CE0002DE9F04F83B0B64B00AF5C6C1D4614F469
:103CF000806F0CD0B34E3046FEF722FC73681B6811
:103D000013B10021304698476FF480636B64260539
:103D10000ED5AB4BAB481A6C1D4642F008021A6434
:103D2000426812680AB1032190476FF400636B6424
:103D3000E50411D5A24B9A6C100409D41A6CA14861
:103D400022F008021A6443681B680BB104219847EB
:103D50009B4B6FF480525A64A10508D5994843687B
:103D6000DB6803B19847964B6FF400725A64DFF832
:103D70005492DFF84C82230440F1558104F00F0483
:103D8000A50005F1804505F5B845D5F800B08D4B87
:103D900004F1020A03EB8A031BF0800F5E686BD00C
:103DA0002B68E10023F4F14323F070032B60D8F873
:103DB0005030D6F814E003F1005303F540530B44A0
:103DC0005B009888DEF808201FFA80FCDEF80430DB
:103DD0006244CEF808209A1A41D0338A9A4228BF0A
:103DE0001A469EF8003063B1D8F8500000F1005038
:103DF00000F5405008444000DEF80C10FFF780FD4D
:103E000022E0DEF80C006044CEF80C00D8F850E058
:103E10001FFA82FC0EF1005E0EF5405E714449000F
:103E2000D1F800E001320EF1005E0EF5405E4FEA7F
:103E30004E0EA1F804C052089A4205D030F8131073
:103E40004EF823100133F7E7202383F311885D48F0
:103E50002146FFF735FF002383F311880CE001238F
:103E600003FA04F2574B21461B8923EA0203554A01
:103E700013811046B36898471BF4004F00F0D080C0
:103E80002B681BF4006F23F4784323F070032B603E
:103E900005D009EB8A0ADAF804305B68B4E0D8F898
:103EA000503003F1005303F5405303EBC4035B00B0
:103EB0009A8992B27A60C2F3090BB269117800292B
:103EC0006AD098684FEA5B0C00F1005000F5405052
:103ED000400001464FEA8C0C00EB0C03D2F80CA01A
:103EE0003B603B68994226D0DAF8143051F804EB75
:103EF0005A1CCAF8142083F800E0DAF81420DAF823
:103F000010304FEA1E2E9A4224BFDAF80C30CAF85D
:103F10001430DAF814305A1CCAF8142083F800E080
:103F2000DAF81030DAF814209A4224BFDAF80C30AC
:103F3000CAF81430D5E77B686044DA0710D5DAF8A0
:103F400014305A1CCAF8142002681A70DAF81030BB
:103F5000DAF814209A4224BFDAF80C30CAF8143088
:103F6000202383F31188DAF808305B44CAF808305C
:103F70000023DAF8000050450AD002687B60CAF8D6
:103F80000020C2F804A0FDF72BF87B688362F0E7FD
:103F9000002383F311881AE09B680BF1010103F100
:103FA000005303F540535B004908D06803EB8101DF
:103FB0008B4209D053F804EB20F802EBF8E700BF7E
:103FC000005C0040780B0020D3685B44D360B2698A
:103FD00093685B4493605368CBEB03035360138A8D
:103FE000013B9BB21382728A934500D383B90123AC
:103FF00003FA04F2B9F80A3023EA0203A9F80A30F6
:1040000009EB8403DB68DB6821460A48984707E030
:104010002B6823F4904323F0700383F440532B6008
:10402000D8F84440A7E60C37BD46BDE8F04FFCF792
:10403000F7BD00BF780B002000000000000000006A
:10404000890001F1804101F5B84180B50B6800AFEE
:1040500023F4904323F0700383F480530B6080BDFE
:10406000890001F1804101F5B84180B50B6800AFCE
:1040700023F4F04323F0400383F010030B6080BD72
:10408000890001F1804180B501F5B8410B6800AFAE
:1040900003F44053B3F5405F07D00B6823F4F043BB
:1040A00023F0400383F400530B6080BD0000000048
:1040B000890001F1804180B501F5B8410B6800AF7E
:1040C00003F03003302B07D00B6823F4F04323F0C8
:1040D000400383F020030B6080BD0000000000005F
:1040E00080B5084B00AF1A7852B901221A7000F05F
:1040F0000FF800F055F8BD46BDE8804000F018BB51
:1041000080BD00BF180C002000000000000000006F
:1041100080B5064B00AF9B6933B9FDF751FDBD4635
:10412000BDE88040FCF74CBE80BD00BF440A0020C3
:1041300080B4034600AF48B1421C0BD04FF47A70F4
:104140004343013BB3FBF0F0013003E0BD4680BCCC
:10415000FDF7FEB8BD4680BCFDF7EAB800000000E0
:1041600080B4034600AF78B1421C1FBF4FF47A7091
:104170005843074B00F1FF301CBFB0FBF3F0013098
:10418000BD4680BCFDF7D4B8BD4680BC704700BFBB
:1041900040420F000000000000000000000000008E
:1041A00080B500AF80BD00000000000000000000EE
:1041B0002DE9F04F83B04FF0000806468B46C1460C
:1041C0001F4A00AF15687A6065B16A682D68B2420F
:1041D0001188328808BF09F10109914208BF08F12E
:1041E0000108F1E771682846FDF742FC044610B368
:1041F0007268294605F09CF8D6F808A06660BAF106
:10420000000F09D043464A4659462046D04718B9C0
:104210002046FDF775FC0EE07B681A68094B0AB171
:104220001A6800E0064A14601C60F36820461BB15F
:104230009847204600E028460C37BD46BDE8F08F81
:10424000200C00201C0C00200000000000000000DA
:1042500090B5084B00AF1B68002243B15C6824880E
:10426000844202D18A4202D001321B68F5E7184627
:1042700090BD00BF200C00200000000000000000E6
:1042800090B583B01C460193054B02AF00931346D3
:104290000A460146A06B01F083FE0437BD4690BD7F
:1042A000D1440008000000000000000000000000F1
:1042B00080B400AFBD4680BCFFF7E2BF0000000045
:1042C0002DE9F047436800AF1A6C04461AB1BD46A9
:1042D000BDE8F0471047DA691AB3C28B920705D5DB
:1042E0009B6A9847E38B23F00203E383B4F92430FD
:1042F000B4F9265020465D436368DB6998476368DC
:104300001B6A0BB120469847636825B15B6A20465B
:104310009847013DF8E720469B6ABD46BDE8F04757
:104320001847B0F92090B0F92280868CC58C4E4495
:10433000454436B22DB2B4F92230AB4211DAB4F9A9
:104340002030B34207DA636820469B6B9847238C82
:1043500001332384F3E7638CA4F820900133638452
:10436000E9E7A4F82280BDE8F08700000000000023
:104370002DE9F041426800AF936B0446002B2BD12E
:10438000136AEBB1C38B03F002039BB28BB9B0F994
:104390002060B0F9225003844384038983844389D5
:1043A000C384D3699847E38B268443F00203658472
:1043B000E383636820461B6A984763685B6A0AE088
:1043C0000123C3848384D3699847636820465B6A6A
:1043D000984763689B6A2046BD46BDE8F041184790
:1043E000B0F92030B0F928202DE9F0419A42BEBF43
:1043F000028403858384B0F92050B0F9283000AFDF
:104400009D42044604D1BD46BDE8F041FFF7B0BF70
:1044100041680E6C36B15A1C531B83840123C3843C
:10442000334640E00A6A002A28D0C28B02F002021A
:1044300092B27AB90389B0F92260838443894284B5
:10444000C3840284CB699847E38B258443F002033D
:104450006684E383238D204601335B1BA38463685A
:104460001B6A9847636820465B6A9847A38C013BA8
:104470001BB2A384002BF5D1BDE8F081CA69B2B1AB
:1044800001335B1B83840123C38490476368204608
:104490005B6A9847A38C013B1BB2A384002BF5D128
:1044A000204663689B6ABD46BDE8F0411847B4F9F1
:1044B0002020B4F928309A4207DC636820469B6BC1
:1044C0009847238C01332384F1E7BDE8F081000095
:1044D000F0B400AF3C69B4F940508D4228DCB4F927
:1044E00044508D4224DDB4F93E608518B5421FDD8D
:1044F000B4F94250A8421BDAB042BFBF921B121857
:10450000304602F0FF028618AE42C4BF2A1AD2B269
:10451000802B0DD9431E208420461A4494F83C3049
:104520006184228584F83030BD46F0BCFFF758BF67
:10453000BD46F0BC70470000000000000000000015
:10454000B0B50446B0F92230B0F92A2000AF9A4243
:10455000BEBF43854284C384B0F92200B4F92A3037
:10456000984205D12046BD46BDE8B040FFF700BFE8
:104570006268116C49B101331B1A2046E3840123A0
:10458000A384BD46BDE8B0400847D369002B2AD0BC
:10459000E38B9B0706D5936A20469847E38B23F06D
:1045A0000203E383638D628C01339B1AE38401234E
:1045B000A38463682046DB69984763681B6A0BB174
:1045C00020469847636820465B6A9847E38C013B26
:1045D0001BB2E384002BF5D1204663689B6ABD467D
:1045E000BDE8B0401847B4F92220B4F92A309A4205
:1045F00007DC636820469B6B9847638C01336384B8
:10460000F1E7B0BD00000000000000000000000065
:104610002DE9F04F83B0B0F92230B0F92A4000AF55
:10462000A342814605D10C37BD46BDE8F04FFFF7E8
:10463000D7BEB0F92020B0F92850AA4205D10C37D6
:10464000BD46BDE8F04FFFF77BBFD5BFAD1A551B88
:104650002DB22DB2D4BF4FF0010A4FF0FF3AA34262
:10466000D5BFE41A1C1B24B224B2D4BF4FF0010BF7
:104670004FF0FF3BAC422ADC64001FFA85F8A4B27D
:10468000C8EB040293B2C8EB03081EB21FFA88F805
:10469000002213B29D4243DB48467A60FFF768FE72
:1046A000002EB9F820307A6805DA2644534436B231
:1046B000A9F8203009E05344A9F82030B9F8223095
:1046C00046445B4436B2A9F822300132E1E76D007E
:1046D0001FFA84F8ADB2C8EB050293B2C8EB030829
:1046E0001EB21FFA88F8002213B29C4218DB48461B
:1046F0007A60FFF73DFE002EB9F82230A8BFB9F866
:1047000020107A68B2BF7619464451445B44B2BF68
:1047100036B236B2A9F82010A9F822300132E3E708
:104720000C37BD46BDE8F08F00000000000000001F
:1047300080B4064800AF418811F0010103D1BD46A5
:1047400080BCFFF735BDBD4680BC704770D4000803
:1047500090B403770023C383436842775B6900AF5B
:104760004161BD4690BC18470000000000000000F9
:10477000B0B50A4D00AF2B680446834204D1002136
:104780006720FFF765FD286063689B6923B12046B9
:10479000BD46BDE8B0401847B0BD00BF240C0020A6
:1047A00080B4436800AFDB6D13B1BD4680BC1847D1
:1047B000BD4680BC70470000000000000000000003
:1047C00098B5044600AF0385B7F9103001844385DE
:1047D0003B7D428480F83030FFF71AFFE38B9B0764
:1047E00007D5636820469B6A9847E38B23F0020352
:1047F000E38398BD000000000000000000000000FE
:10480000B0B5436800AFDA6B04461AB180F83010D7
:10481000DB6B28E01D6C4DB142840284028980F874
:104820003010828442891B6CC2841CE0DA69F2B1C8
:10483000B0F9082045840584B0F90A5080F830109A
:10484000C584DB6982845543984763681B6A0BB152
:1048500020469847636825B15B6A20469847013D2A
:10486000F8E720469B6ABD46BDE8B04018471546AC
:1048700080F830104284B4F92220B4F90A309A4208
:1048800012DA2584B4F92020B4F908309A4207DA04
:10489000636820469B6B9847238C01332384F1E7A0
:1048A000638C01336384E6E7B0BD000000000000C4
:1048B00098B5044600AF0021FFF7A2FF2046FFF79E
:1048C0006FFF024B1A6802B91C6098BD240C0020CF
:1048D000F0B400AFB7F910603D7D01844284838459
:1048E000C68480F83050BD46F0BCFFF7E9BC00003C
:1048F0002DE9F04F91B000AF9A46B7F96830044601
:104900007B63B7F96C300E463B637B6B1546002B1F
:104910000CDA7A6B4FF4B47392FBF3F3013B03EBC5
:104920004303C3EB0313A2EBC3030AE07B6BB3F5B2
:10493000B47F08DB4FF4B47293FBF2F3796B02FBA4
:1049400013131BB27B633B6B002B0CDA3A6B4FF4F7
:10495000B47392FBF3F3013B03EB4303C3EB031389
:10496000A2EBC3030AE03B6BB3F5B47F08DB4FF463
:10497000B47293FBF2F3396B02FB13131BB23B636C
:104980007B6B2D2293FBF2F3FB62F96A012303FA9E
:1049900001F1F96397F83C10F961396B91FBF2F280
:1049A0009340BB6397F83830BA617B617B6B8B4275
:1049B00021D010DDFB694FF000085B00DBB223B1B2
:1049C00048EA03085B00DBB2F9E77B695B08BBB12F
:1049D00048EA0308FAE7FB6B1B060FD4FB694FF0AC
:1049E00000085B00DBB27A69934209D248EA030807
:1049F0005B00DBB2F7E74FF0FF0801E04FF0000883
:104A00007B6B2D2293FBF2F3796B02FB13131BB22A
:104A1000002BFB6918BF0023BB6297F8703084F845
:104A20003030B8F1000F00F0F0801FFA8AF9C9F1B8
:104A3000040B0FFA8BF318F0600F3B6206D009EB02
:104A40000503638426842046FFF792FC18F0060FC6
:104A500006D0C9EB0503638426842046FFF788FC53
:104A600018F0810F06D009EB0603658423842046E5
:104A7000FFF77EFC18F0180F07D0C9EB0609658414
:104A8000A4F820902046FFF773FCD1464FF0010BAD
:104A900008EA0B033B6108F00203DBB2FB6008F09D
:104AA0000403DBB2BB603B6943B106EB090323841B
:104AB000CBEB050363842046FFF75AFCFB6843B148
:104AC00006EB0B032384C9EB050363842046FFF741
:104AD0004FFCBB6843B1CBEB06032384C9EB050352
:104AE00063842046FFF744FC18F0080F08D0C9EB98
:104AF00006032384CBEB050363842046FFF738FCD1
:104B000018F0100F08D0C9EB0603238405EB0B0344
:104B100063842046FFF72CFC18F0200F08D0CBEB65
:104B20000603238405EB090363842046FFF720FC7A
:104B300018F0400F08D006EB0B03238405EB0903A4
:104B400063842046FFF714FC18F0800F08D006EBB2
:104B50000903238405EB0B0363842046FFF708FC5D
:104B60003B6A002B0BF1010308DA3A6A02EB4B0BAC
:104B70000BF1030B0FFA8BF23A620DE0396AC9EBC5
:104B80000B0B01EB4B0B0BF1050B09F1FF320FFA8D
:104B90008BF139620FFA82F90FFA83FBCB4582DB86
:104BA00018F0C00F08D006EB0B03238405EB0903B4
:104BB00063842046FFF7DCFB18F00C0F08D0CBEB2A
:104BC00006032384C9EB050363842046FFF7D0FB6B
:104BD00018F0030F08D006EB0B032384C9EB050381
:104BE00063842046FFF7C4FB18F0300F0DD0CBEBE9
:104BF000060BA944A4F820B0A4F822902046FFF7A1
:104C0000B7FBB8F1FF0F00F0A3845046FBF722FC7E
:104C1000FB6BC7E9080113F0990F786B0DD0FBF718
:104C200019FC1BA3D3E90023FBF77AFC00221A4BE3
:104C3000FBF7A0FD04F0D4FE0CE0FBF70BFC14A383
:104C4000D3E90023FBF76CFC0022134BFBF792FD2A
:104C500004F02EFED7E90823FBF762FC04F070FE97
:104C6000FBF7FEFEBB6B0FFA80F813F0990F386B61
:104C700014D0FBF7EFFB06A3D3E90023FBF750FCAE
:104C80000022054BFBF776FD04F0AAFE13E000BFFF
:104C9000182D4454FB21094000806640FBF7DAFBE5
:104CA00093A3D3E90023FBF73BFC0022924BFBF7D5
:104CB00061FD04F0FDFDD7E90823FBF731FC04F0AA
:104CC0003FFEFBF7CDFEFB6B0FFA80F913F0B40F3C
:104CD000BB6B1CBFC8F100080FFA88F87A6913F0A3
:104CE000B40FFB691CBFC9F100090FFA89F993429F
:104CF000FB6B1FFA8AFB03F020033B6200F0778115
:104D0000CBF104031BB27B633B6A2BB9BB6A580629
:104D100002D4BB6B590606D50BEB050326846384CE
:104D20002046FFF725FBFB6B13F00203FB6105D167
:104D3000BB6A5A0702D4BB6B5B0706D5CBEB0503F6
:104D4000268463842046FFF713FB97F93C30002B41
:104D50003B6304DBBB6AD80701D4BB6933B90BEBF7
:104D60000603238465842046FFF702FBFB6B13F0E8
:104D700008037B6105D1BB6AD90602D4BB6BDA0696
:104D800007D5CBEB060BA4F820B065842046FFF7CF
:104D9000EFFABB6B4FF0010B03F00203BB60FB6B40
:104DA00003F00403BB62BB6B03F004037B60FB6A8C
:104DB0000BB9C34503DABB6953B9CB4508DC06EB35
:104DC0000A022284CBEB050262842046FFF7D0FA68
:104DD000FB690BB1C34503DDBB6853B1CB4508DBB1
:104DE00006EB0B022284CAEB050262842046FFF721
:104DF000BFFABB6A0BB1C34503DA7B6853B1CB453D
:104E000008DCCBEB06022284CAEB05026284204652
:104E1000FFF7AEFA7B690BB1C34504DDBB6B1B0723
:104E20000AD5CB4508DBCAEB06022284CBEB050290
:104E300062842046FFF79CFAFB6B13F010033B6182
:104E400001D0C34504DABB6BD8060AD5CB4508DCD4
:104E5000CAEB0602228405EB0B0262842046FFF7B0
:104E600087FA3B6A0BB1C34504DDBB6B99060AD5D3
:104E7000CB4508DBCBEB0602228405EB0A026284F9
:104E80002046FFF775FAFB6B13F04003FB6001D07F
:104E9000C34504DABB6B5A060AD5CB4508DC06EBE2
:104EA0000B02228405EB0A0262842046FFF760FAB7
:104EB0003B6B002B01DAC34504DDBB6B1B060AD537
:104EC000CB4508DB06EB0A02228405EB0B02628469
:104ED0002046FFF74DFA7B6B0BF10102002B0DDA38
:104EE00003EB4B0303331BB27B6315E0AFF300808E
:104EF000182D4454FB210940008066407B6B0AF169
:104F0000FF31CAEB0B0A03EB4A0A0AF1050A0FFA52
:104F10008AF37B630FFA81FA0FFA82FBD345FFF61F
:104F200046AFFB680BB1C3450EDABB6B580601D523
:104F3000CB4509DD3B6B002B01DAC34504DDBB6BC0
:104F400019060AD5CB4508DB06EB0B02228405EBDC
:104F50000A0262842046FFF70BFABB6A0BB1C34515
:104F60000DDABB6B5A0701D5CB4508DD7B690BB168
:104F7000C34504DDBB6B1B070AD5CB4508DBCBEB78
:104F800006022284CAEB050262842046FFF7F0F98C
:104F9000FB6A0BB9C3450CDABB690BB9CB4508DD1D
:104FA000FB690BB1C34504DDBB6B98070AD5CB4544
:104FB00008DB06EB0B022284CAEB05026284204662
:104FC000FFF7D6F93B6913B1C34580F2B482BB6BDE
:104FD000D90602D5CB4540F3AE823B6A13B1C34537
:104FE00040F3A982BB6B9A0640F1B282AEE27B6BC2
:104FF0003A6B9342CBF104031BB240F35281BB6383
:10500000FB6B13F0600F03D1BB6A13F0C00F06D027
:105010000BEB0503268463842046FFF7A9F9FB6B9D
:1050200013F0060F03D1BB6A13F00C0F06D0CBEBC5
:105030000503268463842046FFF79AF9FB6B13F07F
:10504000810F02D1BB6A9B0706D00BEB06032384BA
:1050500065842046FFF78CF9FB6B13F0180F03D122
:10506000BB6A13F0300F07D0CBEB060BA4F820B0CF
:1050700065842046FFF77CF9FB6B4FF0010B03F0D2
:1050800002037B63FB6B03F00403BB61FB6B03F068
:105090000803BB62FB6A63B9C34501DACB4508DC90
:1050A00006EB0A022284CBEB050262842046FFF75E
:1050B0005FF97B6B63B1C34501DDCB4508DB06EBD4
:1050C0000B022284CAEB050262842046FFF750F9E6
:1050D000BB6963B1C34501DACB4508DCCBEB060203
:1050E0002284CAEB050262842046FFF741F9BB6ABD
:1050F00063B1C34501DDCB4508DBCAEB0602228460
:10510000CBEB050262842046FFF732F9FB6B13F00C
:1051100010033B620CD0C34501DACB4508DCCAEB77
:105120000602228405EB0B0262842046FFF720F979
:10513000FB6B13F02003FB610CD0C34501DDCB45B5
:1051400008DBCBEB0602228405EB0A0262842046D0
:10515000FFF70EF9FB6B13F040033B630CD0C34524
:1051600001DACB4508DC06EB0B02228405EB0A02D0
:1051700062842046FFF7FCF897F93C20002A0EDAFB
:10518000C34501DDCB450ADB06EB0A01218405EBB3
:105190000B01618420467A61FFF7EAF87A69BB6BFC
:1051A0000BF10101002B05DA03EB4B0303331BB2B8
:1051B000BB630DE0BB6B0AF1FF30CAEB0B0A03EBDC
:1051C0004A0A0AF1050A0FFA8AF3BB630FFA80FA5A
:1051D0000FFA81FBD345FFF65DAFBB6923B1C34531
:1051E00009DACB4507DD22E0BB6A7BB1C34502DDAE
:1051F000CB45C0F2B981CBEB06012184CAEB050196
:1052000061842046FA63FFF7B3F8FA6B3B6B9BB1FE
:10521000C34509DB06EB0B02228405EB0A0262841C
:105220002046FFF7A5F810E0CB45F3DD0BE0BB6AA5
:10523000002BE0D13B6B33B9002A06DAC345E9DD28
:10524000CB45E7DA97E1002AE4DBFB6A73B9C34593
:1052500009DB06EB0B022284CAEB050262842046BE
:10526000FFF786F80CE0CB45F3DD06E07B6B3BB146
:10527000C345EEDDCB45ECDA85E17B6B002BE8D155
:105280003B6A33B1C34580F25681CB4540F353812D
:105290007BE1FB69002B00F05B81C34500F3568185
:1052A00049E17B633B6A13B1B9F1000F05D0FB6B99
:1052B000580609D5B8F1000F06D10BEB050326847B
:1052C00063842046FFF754F8FB6B13F002033B6343
:1052D00002D0B9F1000F05D0FB6B590709D5B8F121
:1052E000000F06D1CBEB0503268463842046FFF72D
:1052F0003FF897F93C30002BBB6302DAB9F1000F9D
:1053000004D0FB6A4BB9B8F1000F06D10BEB0603D2
:10531000238465842046FFF72BF8FB6B13F008030A
:10532000BB6202D0B9F1000F05D0FB6BDA060AD5DB
:10533000B8F1000F07D1CBEB060BA4F820B06584C1
:105340002046FFF715F8FB6B4FF0010B03F0040349
:10535000BB61FB6B03F01003FB61FB6B03F04003CD
:10536000FB63FB6A6BB9C345C0F21381CB4508DC14
:1053700006EB0A022284CBEB050262842046FEF78C
:10538000F7FF3B6B63B1C3450ADCCB4508DB06EB9B
:105390000B022284CAEB050262842046FEF7E8FF76
:1053A000BB696BB1C345C0F2F980CB4508DCCBEBE0
:1053B00006022284CAEB050262842046FEF7D8FF6B
:1053C000BB6A63B1C3450ADCCB4508DBCAEB060206
:1053D0002284CBEB050262842046FEF7C9FFFB69FD
:1053E0006BB1C345C0F2DF80CB4508DCCAEB0602D7
:1053F000228405EB0B0262842046FEF7B9FF3B6A6C
:1054000063B1C3450ADCCB4508DBCBEB0602228443
:1054100005EB0A0262842046FEF7AAFFFB6B6BB124
:10542000C345C0F2C580CB4508DC06EB0B022284E5
:1054300005EB0A0262842046FEF79AFFBB6B002B45
:105440000CDAC3450ADCCB4508DB06EB0A022284F2
:1054500005EB0B0262842046FEF78AFF7B6B0BF1A3
:105460000102002B05DA03EB4B0303331BB27B6312
:105470000DE07B6B0AF1FF31CAEB0B0A03EB4A0A22
:105480000AF1050A0FFA8AF37B630FFA81FA0FFA21
:1054900082FBD345FFF665AFBB6923B1C345C0F2BC
:1054A0008C80CB4506DDBB6A6BB1C34500F38A80B7
:1054B000CB4508DBCBEB06022284CAEB05026284F3
:1054C0002046FEF755FFFB6B1BB9BB6B002B12DAB6
:1054D0000DE0C3457EDBCB45F7DC06EB0B022284F7
:1054E00005EB0A0262842046FEF742FF03E0C34553
:1054F00077DCCB45F1DAFB6A13B13B6B73B911E092
:10550000C34571DBCB45F8DC06EB0B022284CAEB0A
:10551000050262842046FEF72BFF03E0C3456ADCE8
:10552000CB45F1DAFB6913B93B6A6BB910E0C345AF
:1055300065DBCB45F8DCCBEB060655442684658459
:105540002046FEF715FF03E0C34501DCCB45F2DA48
:10555000E38B9B0757D5636820469B6A9847E38B8C
:1055600023F00203E3834EE03B6B002B7FF452AE4B
:10557000002ABFF66AAEFB6A002B3FF46AAE7B6B73
:10558000002B3FF47DAE3B6A00E0FB69002BDFD0CF
:10559000D1E73B6B002B7FF4F8AE01E7BB6A002B31
:1055A0007FF412AF1BE73B6A002B7FF42CAF35E78B
:1055B000BB6B002BBFF652AF45E7BB6A002B7FF4F5
:1055C00077AF03E0FB6B002B85D107E0FB6B002B73
:1055D0003FF47BAFBB6B002B8DDA8AE7BB6B002BF4
:1055E00089DAFB6A23B98DE73B6B002B98D199E7E9
:1055F0003B6B002B96D0FB69002B9AD1A8E73B6A46
:10560000002BA3D1A4E74437BD46BDE8F08F00BF0F
:1056100090B4436800AF1C6D0CB301290184426350
:1056200019D192B2B2F57A7F0CD040F2E9339A42A6
:1056300011D1B0F90830B0F90A209342B4BF5A230F
:10564000002307E0B0F90830B0F90A209342ACBF5C
:105650005A23002343632346BD4690BC1847BD46EA
:1056600090BC704700000000000000000000000037
:105670002DE9F84F002B00AF04468A469346B7F950
:10568000285053DD002D51DD4E1E1E441FFA82F9B5
:1056900097F82C3036B24D4480F83030ADB2731AE2
:1056A00005F1FF38022B0FFA88F82184628424DD8B
:1056B0000685FEF795FEC3452DD0A4F82280A4F8F8
:1056C00020A026852046CBEB0808FEF789FEB8F11E
:1056D000020F20DD09F10109023D0FFA89F92DB20F
:1056E000A4F820A0A4F8229065852046FEF728FFA4
:1056F0002684A4F8229065850AE0A0F82A80FEF7A7
:105700001FFFB24507D02684A4F822B0A4F82A804F
:105710002046FEF715FFE38B9B0707D563682046FD
:105720009B6A9847E38B23F00203E383BDE8F88F7D
:105730002DE9F04F8FB0994604AFB7F95480064673
:105740004FEA48034B4539627A62B7F950A097F89F
:10575000585001DC53450CDD4B4630467A6A396AB5
:105760007D65C7F850A02C37BD46BDE8F04FFFF768
:105770007FBFB7F820B01FFA88F40BEB04039BB28D
:10578000FB61B7F91C305A22BB61BB8CB9697B61E4
:10579000E3189BB23B61B7F91030D944FB60B423E6
:1057A0008DE80C0002954346FA68FFF7A1F81FFA4E
:1057B00089F3C4EB030B1FFA8BFBBB600BF1FF33C8
:1057C0001BB27B6000215A238DE80A00FA68434629
:1057D000796830460295FFF78BF87B694FF4877044
:1057E0009A441FFA8AFAC4EB0A04A4B204F1FF39FE
:1057F0000FFA89F94FF4B4738DE809004A4643461D
:10580000796830460295FFF773F84FF4877EB4232A
:105810008DE808404A464346B96930460295FFF78D
:1058200067F8FB69ABF1020B03F101087B6A0FFA21
:1058300088F80FFA8BFB00937A6A5B464146304644
:105840000195FEF7BDFF3B69023C03F10109BB680E
:105850000FFA89F9013B1BB224B24A461946304679
:105860008DE83000FEF7ACFF0AF1FF3212B28DE88E
:1058700024005B4641463046FEF7A2FF3B6A4A469B
:10588000194630467D653C652C37BD46BDE8F04F76
:10589000FEF796BF000000000000000000000000BE
:1058A0002DE9F04F9A460546544689B000AFD7F827
:1058B0004880396108F18043013BFA600AEB8301BB
:1058C0000AF104028A42B4F9023006D8B2F90200A1
:1058D0009842B8BF14460432F4E75445994698BF3D
:1058E0000E46B4F9002088BF261F1204FA61B6F9EB
:1058F00002C063450FD1B8F1000F00F0DA80B6F9AD
:10590000000056454FEA0040F8618CBF043E0E4649
:1059100008F1FF38EBE78C422CBF54460434B4F94D
:1059200002E073450ED1B8F1000F00F0C280B4F967
:1059300000208C424FEA024234BF0434544608F13E
:10594000FF38ECE7F869B6F900B0C3EB0C0CC0EB1C
:105950000B4B9BFBFCF0B4F900C0C3EB0E03C2EB96
:105960000C4C9CFBF3F37B61FB69B86103F5004BC6
:1059700097F84C3002F5004285F830303B8AFB61E5
:10598000013BBB60B6F90200B4F902309842A8BFEF
:10599000184638613B69994530DA4FEA2B431014B9
:1059A000834210DA87E80600FA6913442B84FB6807
:1059B0004B446B84BB68184428852846FEF710FDCD
:1059C00097E8060011E010DD87E80600FA69104448
:1059D000FA68288402EB0900BA68688413442B85AE
:1059E0002846FEF7FDFC97E80600BB6909F10109AE
:1059F0009B447B690FFA89F91A44CBE7B8F1000F91
:105A00002DD0B6F90230386908F1FF38834221D130
:105A1000564594BF0E46043EB6F9023099450DD165
:105A2000B8F1000F1BD0B6F9000056454FEA004B05
:105A30008CBF043E0E4608F1FF38EDE7B6F900C012
:105A4000C9EB0303CBEB0C4C9CFBF3F30BF5004BC6
:105A5000BB6197E78C4234BF0434544619E0EB8BAA
:105A60009B0726D56B6828469B6A9847EB8B23F0EB
:105A70000203EB831DE0B8F1000FF0D08C42B4F9C3
:105A8000002028BF54464FEA024238BF043408F1D0
:105A9000FF38B4F902008145EDD0B4F90030C9EB0C
:105AA0000000C2EB034393FBF0F302F500427B617D
:105AB00068E72437BD46BDE8F08F00000000000015
:105AC0002DE9F04F95B002AFB7F9704092B289B2AC
:105AD0005B1AA41AB8609BB297F87400FA61A2B27C
