:020000040800F2
:1000000000010020010F0008D1510008D151000863
:10001000D1510008D1510008D1510008C10F00088A
:10002000C10F0008C10F0008C10F0008F10F000840
:10003000C10F0008C10F0008C10F0008C11000085F
:10004000C10F0008C12D0008512E0008812E0008A4
:10005000C10F0008C10F0008E12B0008112C000897
:10006000412C0008712C0008A12C000881250008F3
:10007000B1250008E12500081126000841260008E6
:1000800071260008A1260008812A00080133000813
:10009000B1350008C10F0008B12E0008D12C0008AE
:1000A000C10F0008C10F0008C10F0008C10F0008F0
:1000B000C10F0008C10F0008C10F0008C10F0008E0
:1000C000C10F0008C10F0008C10F0008C10F0008D0
:1000D000C10F000891300008C10F0008C10F0008CF
:1000E000412D0008F12D0008212E0008C10F000845
:0400F000C10F000834
:1001000080B51D4B002400AF5C6001F041FE01F0A2
:100110004FF803F04DFC194B22461868214604F0B5
:100120001FF8174B4FF0FF329A602146DA601548EE
:1001300001F066FF40F282324FF40071124802F083
:100140003FFF40F282324FF480610F4802F038FFE7
:1001500021460E4801F074FE05F0EAF905F050FE64
:1001600021460A4801F06CFE05F04AF80A2001F029
:10017000AFFA05F055F8F9E700000140040C002043
:10018000002004E0E00A002000000240A40A002051
:1001900081F0004102E000BF83F0004330B54FEA38
:1001A00041044FEA430594EA050F08BF90EA020FA5
:1001B0001FBF54EA000C55EA020C7FEA645C7FEA38
:1001C000655C00F0E2804FEA5454D4EB5555B8BF5B
:1001D0006D420CDD2C4480EA020281EA030382EACC
:1001E000000083EA010180EA020281EA0303362D5E
:1001F00088BF30BD11F0004F4FEA01314FF4801C31
:100200004CEA113102D0404261EB410113F0004F42
:100210004FEA03334CEA133302D0524263EB4303F9
:1002200094EA050F00F0A780A4F10104D5F1200E97
:100230000DDB02FA0EFC22FA05F2801841F10001F2
:1002400003FA0EF2801843FA05F359410EE0A5F1C6
:1002500020050EF1200E012A03FA0EFC28BF4CF0F7
:10026000020C43FA05F3C01851EBE37101F00045AD
:1002700007D54FF0000EDCF1000C7EEB00006EEBBA
:100280000101B1F5801F1BD3B1F5001F0CD3490844
:100290005FEA30004FEA3C0C04F101044FEA44529B
:1002A00012F5800F80F09A80BCF1004F08BF5FEA22
:1002B000500C50F1000041EB045141EA050130BD02
:1002C0005FEA4C0C404141EB010111F4801FA4F1A5
:1002D0000104E9D191F0000F04BF01460020B1FAFA
:1002E00081F308BF2033A3F10B03B3F120020CDA32
:1002F0000C3208DD02F1140CC2F10C0201FA0CF010
:1003000021FA02F10CE002F11402D8BFC2F1200C74
:1003100001FA02F120FA0CFCDCBF41EA0C0190402A
:10032000E41AA2BF01EB0451294330BD6FEA040473
:100330001F3C1CDA0C340EDC04F11404C4F120025E
:1003400020FA04F001FA02F340EA030021FA04F370
:1003500045EA030130BDC4F10C04C4F1200220FAC7
:1003600002F001FA04F340EA0300294630BD21FA05
:1003700004F0294630BD94F0000F83F4801306BFCB
:1003800081F480110134013D4EE77FEA645C18BFBF
:100390007FEA655C29D094EA050F08BF90EA020F56
:1003A00005D054EA000C04BF1946104630BD91EA4E
:1003B000030F1EBF0021002030BD5FEA545C05D151
:1003C0004000494128BF41F0004130BD14F5800490
:1003D0003CBF01F5801130BD01F0004545F0FE4104
:1003E00041F470014FF0000030BD7FEA645C1ABF39
:1003F000194610467FEA655C1CBF0B46024650EA70
:10040000013406BF52EA033591EA030F41F400219B
:1004100030BD00BF90F0000F04BF0021704730B521
:100420004FF4806404F132044FF000054FF00001F6
:1004300050E700BF90F0000F04BF0021704730B5B7
:100440004FF4806404F1320410F0004548BF40428C
:100450004FF000013EE700BF42004FEAE2014FEAE1
:1004600031014FEA02701FBF12F07F4393F07F4FBC
:1004700081F06051704792F0000F14BF93F07F4FEE
:10048000704730B54FF4607401F0004521F0004131
:1004900020E700BF50EA010208BF704730B54FF0B7
:1004A00000050AE050EA010208BF704730B511F0BC
:1004B000004502D5404261EB41014FF4806404F1F4
:1004C00032045FEA915C3FF4DCAE4FF003025FEA76
:1004D000DC0C18BF03325FEADC0C18BF033202EBFE
:1004E000DC02C2F1200300FA03FC20FA02F001FA58
:1004F00003FE40EA0E0021FA02F11444C1E600BFF7
:1005000070B54FF0FF0C4CF4E06C1CEA11541DBFA9
:100510001CEA135594EA0C0F95EA0C0F00F0DEF874
:100520002C4481EA030621EA4C5123EA4C5350EA59
:10053000013518BF52EA033541F4801143F48013AA
:1005400038D0A0FB02CE4FF00005E1FB02E506F03B
:100550000042E0FB03E54FF00006E1FB03569CF090
:10056000000F18BF4EF0010EA4F1FF04B6F5007F96
:1005700064F5407404D25FEA4E0E6D4146EB060608
:1005800042EAC62141EA55514FEAC52040EA5E5091
:100590004FEACE2EB4F1FD0C88BFBCF5E06F1ED83B
:1005A000BEF1004F08BF5FEA500E50F1000041EB72
:1005B000045170BD06F0004646EA010140EA02001F
:1005C00081EA0301B4EB5C04C2BFD4EB0C0541EA41
:1005D000045170BD41F480114FF0000E013C00F356
:1005E000AB8014F1360FDEBF002001F0004170BD7A
:1005F000C4F10004203C35DA0C341BDC04F1140493
:10060000C4F1200500FA05F320FA04F001FA05F21E
:1006100040EA020001F0004221F0004110EBD370EB
:1006200021FA04F642EB06015EEA430E08BF20EA17
:10063000D37070BDC4F10C04C4F1200500FA04F3BA
:1006400020FA05F001FA04F240EA020001F000414C
:1006500010EBD37041F100015EEA430E08BF20EABF
:10066000D37070BDC4F1200500FA05F24EEA020E07
:1006700020FA04F301FA05F243EA020321FA04F036
:1006800001F0004121FA04F220EA020000EBD370ED
:100690005EEA430E08BF20EAD37070BD94F0000FED
:1006A0000FD101F00046400041EB010111F4801F21
:1006B00008BF013CF7D041EA060195F0000F18BFD2
:1006C000704703F00046520043EB030313F4801F0E
:1006D00008BF013DF7D043EA0603704794EA0C0FC8
:1006E0000CEA135518BF95EA0C0F0CD050EA4106DE
:1006F00018BF52EA4306D1D181EA030101F000415B
:100700004FF0000070BD50EA410606BF1046194682
:1007100052EA430619D094EA0C0F02D150EA01368E
:1007200013D195EA0C0F05D152EA03361CBF1046CF
:1007300019460AD181EA030101F0004141F0FE416E
:1007400041F470014FF0000070BD41F0FE4141F4F2
:10075000780170BD70B54FF0FF0C4CF4E06C1CEAF2
:1007600011541DBF1CEA135594EA0C0F95EA0C0FA7
:1007700000F0A7F8A4EB050481EA030E52EA033562
:100780004FEA013100F088804FEA03334FF0805583
:1007900045EA131343EA12634FEA022245EA1115B0
:1007A00045EA10654FEA00260EF000419D4208BF61
:1007B000964244F1FD0404F5407402D25B084FEA0E
:1007C0003202B61A65EB03055B084FEA32024FF4BA
:1007D00080104FF4002CB6EB020E75EB030E22BF17
:1007E000B61A754640EA0C005B084FEA3202B6EBD7
:1007F000020E75EB030E22BFB61A754640EA5C0086
:100800005B084FEA3202B6EB020E75EB030E22BF15
:10081000B61A754640EA9C005B084FEA3202B6EB16
:10082000020E75EB030E22BFB61A754640EADC00D5
:1008300055EA060E18D04FEA051545EA16754FEA37
:1008400006164FEAC30343EA52734FEAC2025FEA55
:100850001C1CC0D111F4801F0BD141EA00014FF0E4
:1008600000004FF0004CB6E711F4801F04BF0143B5
:100870000020B4F1FD0C88BFBCF5E06F3FF6AFAED1
:10088000B5EB030C04BFB6EB020C5FEA500C50F161
:10089000000041EB045170BD0EF0004E4EEA1131E4
:1008A00014EB5C04C2BFD4EB0C0541EA045170BDEB
:1008B00041F480114FF0000E013C90E645EA060E2F
:1008C0008DE60CEA135594EA0C0F08BF95EA0C0F5D
:1008D0003FF43BAF94EA0C0F0AD150EA01347FF4A5
:1008E00034AF95EA0C0F7FF425AF104619462CE77C
:1008F00095EA0C0F06D152EA03353FF4FDAE1046DF
:10090000194622E750EA410618BF52EA43067FF42F
:10091000C5AE50EA41047FF40DAF52EA43057FF4BF
:10092000EBAE12E700000000000000000000000035
:100930004FEA4102B2F1E04324BFB3F5001CDCF101
:10094000FE5C0DD901F0004C4FEAC0024CEA507039
:10095000B2F1004F40EB830008BF20F00100704768
:1009600011F0804F21D113F13872BCBF01F000406B
:10097000704741F480114FEA5252C2F11802C2F19D
:10098000200C10FA0CF320FA02F018BF40F001001E
:100990004FEAC1234FEAD32303FA0CFC40EA0C00D0
:1009A00023FA02F34FEA4303CCE77FEA625307D10D
:1009B00050EA01331EBF4FF0FE4040F44000704744
:1009C00001F0004040F0FE4040F40000704700BFDE
:1009D00080F0004002E000BF81F0004142001FBFF4
:1009E0005FEA410392EA030F7FEA226C7FEA236CFD
:1009F0006AD04FEA1262D2EB1363C1BFD2184140F2
:100A000048404140B8BF5B42192B88BF704710F087
:100A1000004F40F4000020F07F4018BF404211F02A
:100A2000004F41F4000121F07F4118BF494292EA92
:100A3000030F3FD0A2F1010241FA03FC10EB0C00BE
:100A4000C3F1200301FA03F100F0004302D549424B
:100A500060EB4000B0F5000F13D3B0F1807F06D3F8
:100A600040084FEA310102F10102FE2A51D2B1F1F0
:100A7000004F40EBC25008BF20F0010040EA0300E5
:100A80007047490040EB000010F4000FA2F1010292
:100A9000EDD1B0FA80FCACF1080CB2EB0C0200FA1C
:100AA0000CF0AABF00EBC25052421843BCBFD0406A
:100AB0001843704792F0000F81F4000106BF80F4E4
:100AC00000000132013BB5E74FEA41037FEA226CA7
:100AD00018BF7FEA236C21D092EA030F04D092F072
:100AE000000F08BF0846704790EA010F1CBF0020A6
:100AF000704712F07F4F04D1400028BF40F0004003
:100B0000704712F100723CBF00F50000704700F022
:100B1000004343F0FE4040F4000070477FEA226249
:100B200016BF08467FEA23630146420206BF5FEA1A
:100B3000412390EA010F40F4800070474FF000031A
:100B400004E000BF10F0004348BF40425FEA000CE1
:100B500008BF704743F0964301464FF000001CE089
:100B600050EA010208BF70474FF000030AE000BFDF
:100B700050EA010208BF704711F0004302D540421D
:100B800061EB41015FEA010C02BF8446014600208F
:100B900043F0B64308BFA3F18053A3F50003BCFAAA
:100BA0008CF2083AA3EBC25310DB01FA02FC634457
:100BB00000FA02FCC2F12002BCF1004F20FA02F25E
:100BC00043EB020008BF20F00100704702F1200251
:100BD00001FA02FCC2F1200250EA4C0021FA02F2B2
:100BE00043EB020008BF20EADC7070470000000001
:100BF0004FF0FF0C1CEAD0521EBF1CEAD15392EA00
:100C00000C0F93EA0C0F6FD01A4480EA010C4002DB
:100C100018BF5FEA41211ED04FF0006343EA501035
:100C200043EA5111A0FB01310CF00040B1F5000F77
:100C30003EBF490041EAD3715B0040EA010062F126
:100C40007F02FD2A1DD8B3F1004F40EBC25008BF10
:100C500020F00100704790F0000F0CF0004C08BF2E
:100C600049024CEA502040EA51207F3AC2BFD2F1FB
:100C7000FF0340EAC250704740F400004FF0000309
:100C8000013A5DDC12F1190FDCBF00F00040704743
:100C9000C2F10002410021FA02F1C2F1200200FA81
:100CA00002FC5FEA310040F1000053EA4C0308BF48
:100CB00020EADC70704792F0000F00F0004C02BF99
:100CC000400010F4000F013AF9D040EA0C0093F014
:100CD000000F01F0004C02BF490011F4000F013B6E
:100CE000F9D041EA0C018FE70CEAD15392EA0C0FDC
:100CF00018BF93EA0C0F0AD030F0004C18BF31F047
:100D0000004CD8D180EA010000F00040704790F01C
:100D1000000F17BF90F0004F084691F0000F91F0C0
:100D2000004F14D092EA0C0F01D142020FD193EA86
:100D30000C0F03D14B0218BF084608D180EA01000E
:100D400000F0004040F0FE4040F40000704740F0EA
:100D5000FE4040F4400070474FF0FF0C1CEAD052B8
:100D60001EBF1CEAD15392EA0C0F93EA0C0F69D014
:100D7000A2EB030280EA010C49024FEA402037D07F
:100D80004FF0805343EA111143EA10130CF0004076
:100D90008B4238BF5B0042F17D024FF4000C8B4266
:100DA00024BF5B1A40EA0C00B3EB510F24BFA3EB46
:100DB000510340EA5C00B3EB910F24BFA3EB910316
:100DC00040EA9C00B3EBD10F24BFA3EBD10340EA70
:100DD000DC001B0118BF5FEA1C1CE0D1FD2A3FF6B6
:100DE00050AF8B4240EBC25008BF20F0010070476B
:100DF0000CF0004C4CEA50207F32C2BFD2F1FF030E
:100E000040EAC250704740F400004FF00003013A3E
:100E100037E792F0000F00F0004C02BF400010F4E2
:100E2000000F013AF9D040EA0C0093F0000F01F0F6
:100E3000004C02BF490011F4000F013BF9D041EA18
:100E40000C0195E70CEAD15392EA0C0F08D142024B
:100E50007FF47DAF93EA0C0F7FF470AF084676E71E
:100E600093EA0C0F04D14B023FF44CAF08466EE7F7
:100E700030F0004C18BF31F0004CCAD130F00042C5
:100E80007FF45CAF31F000437FF43CAF5FE700BF1D
:100E90004FEA4002B2F1FE4F0FD34FF09E03B3EB87
:100EA00012620DD94FEA002343F0004310F0004FC7
:100EB00023FA02F018BF404270474FF0000070471D
:100EC00012F1610F01D1420205D110F0004008BFBC
:100ED0006FF0004070474FF00000704700000000C6
:100EE00080B500AF80BD00000000000000000000E1
:100EF000FEE700000000000000000000000000000D
:100F000072B6214B83F30988022282F31488BFF35F
:100F10006F8F1E4A1E494FF055308A4202D242F866
:100F2000040BFAE71B4A4FF055319A4202D242F8BD
:100F3000041BFAE704F014F9174A184B18498B42BE
:100F400004D252F8040F43F8040BF8E7154B164A85
:100F50000021934202D243F8041BFAE7FFF7C0FFD7
:100F6000124C134DAC4203D254F8043B9847F9E7B6
:100F7000FFF7C6F80F4C104DAC4203D254F8043BB7
:100F80009847F9E7FFF7B4FF0005002000000020B4
:100F90000001002000010020248C00080005002032
:100FA0001805002018050020800E0020F40000081D
:100FB000F4000008F4000008F4000008000000003D
:100FC000FEE700000000000000000000000000003C
:100FD00080B500AF72B6FEE7000000000000000020
:100FE00000F0FEFA00DF000000000000000000003A
:100FF00080B500AFEFF30983203383F30988002322
:1010000083F3118880BD0000000000000000000094
:1010100080B50B4B00229A600A4A00AFDA601021BB
:10102000072000F09DF84FF400710A2000F098F8B6
:1010300080210B20BD46BDE8804000F091B800BF84
:1010400000ED00E00003FA050000000000000000D1
:1010500080B5202300AF83F31188154B5B6813F430
:10106000006321D0EFF30982A2F1200383F3098802
:1010700010494FF0807342F8043C8B69096893F87B
:10108000220089689B6820B1994294BF0023012304
:1010900003E0994234BF002301230BB1064B00E06B
:1010A000064B42F8083C80BD83F3118880BD00BF29
:1010B00000ED00E0240A0020E10F0008E40F000822
:1010C00080B5202300AF83F3118800F0A9F8002336
:1010D00083F31188BD46BDE88040FFF7B9BF00002B
:1010E0002DE9F04FC1F80CD0D0F80CD0BDE8F08F4E
:1010F00080B5002300AF83F311882846A04700F095
:101100002FFB80BD00000000000000000000000078
:1011100020F0030202F1604202F56142C300B0B563
:1011200003F01803D2F80053FF249C40994025EAAD
:1011300004042143C2F8001300F01F02400980009C
:10114000012300F16040934000F56140C0F8803118
:1011500000AF0360B0BD0000000000000000000010
:1011600000F0030320F0030000F1604090B500F5AB
:101170006D40DB008469FF229A4024EA0202994014
:10118000114300AF816190BD00000000000000002D
:1011900080B5034B034A9B6900AF9A6130BFFDE7FE
:1011A000240A0020E06100080000000000000000A8
:1011B00080B582B002AFFFF72BFF00F0F9F800F026
:1011C000AFF800F005FD00F043FD00F059F84021B4
:1011D0000C4800F01DFA0C490C4B0122C3618861D8
:1011E00080F82020002383F3118862B608488969BB
:1011F00088610093B021074B074800F041FABD46D3
:1012000080BD00BF18050020240A00200001002036
:10121000206200089111000858050020000000001D
:10122000F8B5144B00AF9B6993F8222012B1013A34
:1012300083F822205A6A01325A620F4BDA681C4640
:101240000132DA601A689A4213D025469368013B4E
:1012500093602268936863B91168D6682960D36087
:101260004D6083F311881069B047202383F3118800
:10127000EFE7F8BD240A0020140A00200000000057
:10128000044A80B51346402143F8081B00AF536061
:1012900080BD00BF08060020000000000000000024
:1012A0000D4A0E495368C96880B519600C4910335E
:1012B000896900AF43F80C1C816A43F8081C90F858
:1012C000201003F8041C02F581618B4228BF02F153
:1012D0000803536080BD00BF08060020140A0020E8
:1012E000240A0020000000000000000000000000B0
:1012F00098B5084C00AF2060074803F041FF206814
:1013000003F03EFF03F054FFBD46BDE89840FFF7F1
:101310005FBE00BF100A0020F0610008000000005E
:1013200080B5054B4FF0FF329A60002200AF5B6042
:101330001B60DA6080BD00BF140A002000000000BE
:1013400090B5C2600A4A0361136800AF9C68A1426D
:1013500002D9091B1B68F9E75C680360446093428B
:101360005860206081601EBF9A68511A996090BDD4
:10137000140A00200000000000000000000000002F
:101380000368084A80B593421CBF9968826800AF21
:101390001CBF52189A604268136003685A600023A9
:1013A000C36080BD140A002000000000000000009F
:1013B00080B5044B002200AF5B601B609A605B61EC
:1013C0001B6180BD240A0020000000000000000016
:1013D00080B5002380F820308268064B00AF1B6880
:1013E00099689142FBD25A6803604260586010606D
:1013F00080BD00BF240A00200000000000000000A3
:1014000080B5202300AF83F3118890F82030032BA0
:1014100003D00D2B05D04BB90EE0826A93680133DF
:10142000936090E80C001A60026853604FF0FF333D
:101430008362FFF7CDFF002383F3118880BD000096
:10144000B0B5114C1423A56900AF85F8223023688C
:1014500085F820001A68284654602260012283F82B
:101460002020A361FFF71CFFEA69ADF124039A4233
:1014700002D90648FFF73CFF2946A069BD46BDE8F2
:10148000B040FFF72DBE00BF240A00201062000804
:10149000B0B54B1C86B0054600AF0B4C0DD0A36910
:1014A0000A4A381DFFF74CFF2846FFF7C9FF3B6982
:1014B0002BB1381DFFF764FF01E0FFF7C1FFA369FF
:1014C0001837986ABD46B0BD240A002001140008F0
:1014D000F8B5134E8162B36981689A6800AF914292
:1014E000044604D8BD46BDE8F840FFF771BF184672
:1014F000FFF76EFF0546012384F82030B461FFF743
:10150000CFFEEA69ADF124039A4202D90548FFF7FC
:10151000EFFE29462046BD46BDE8F840FFF7E0BD96
:10152000240A0020106200080000000000000000F3
:10153000B0B5114C00AF2368A5691A6828465460FD
:101540002260012283F82020A361142385F8223031
:10155000FFF73EFF2846FFF7A3FEEA69ADF124033B
:101560009A4202D90548FFF7C3FE2946A069BD4645
:10157000BDE8B040FFF7B4BD240A002010620008A7
:10158000154BB0B51D461A689C69116800AF4B60D9
:101590001960012182F820109A61002284F820202D
:1015A000A2681B6899689142FBD85A682360626000
:1015B00020465C601460FFF773FEE269ADF124031E
:1015C0009A4202D90548FFF793FE2146A869BD4615
:1015D000BDE8B040FFF784BD240A00201062000877
:1015E00080B4074B00AF9B6993F822301BB9BD460E
:1015F00080BCFFF79DBFBD4680BCFFF7C1BF00BFE9
:10160000240A00200000000000000000000000008C
:10161000022280F82020002280F821204263026309
:1016200042628261094A90B58160816351690261B9
:1016300041611424506100F12C0280F822400861BD
:10164000C26200F13C0200AFC26190BD240A0020DA
:101650002439B0B44418C4604350114600AFFB684D
:101660006360034B2362BD46B0BCFFF7D1BF00BF30
:10167000F110000800000000000000000000000061
:10168000F0B5044683B01D4602AF00F13C03FF26CF
:10169000A34202D004F8016BFAE7441855269C4295
:1016A00002D903F8016BFAE7202383F31188BB69A1
:1016B00000932B46FFF7CCFF00210446FFF708FFFD
:1016C000002383F3118820460437BD46F0BD000097
:1016D00080B5014600AF202383F311880620FFF771
:1016E000D7FE002383F3118880BD000000000000B6
:1016F00080B5202300AF83F31188064B1A689B69DD
:1017000092689B689A4201D3FFF712FF002383F38C
:10171000118880BD240A00200000000000000000A5
:10172000B0B50E4B00AF9C69A06204F12C05E06AD5
:10173000A84204D00368E362FFF74AFEF7E794F893
:1017400021309B0704D1226963691A6122695361C0
:101750000E20BD46BDE8B040FFF772BE240A00204F
:1017600080B4202300AF83F31188BD4680BCFFF70F
:10177000D7BF0000000000000000000000000000D3
:101780000B4690B500AF1B68994205D15A680360BB
:1017900042605860106090BD9C6882689442F2D2AA
:1017A000F4E700000000000000000000000000005E
:1017B00080B5002300AF40600060836080BD000002
:1017C000F8B51A4B846800AF06469D6944B3AB6810
:1017D000A2689A4219D2A36094F820306BB1042B0E
:1017E00013D194E80C001A60226820465360A16A65
:1017F000FFF7C6FFA36A9C68E9E794E80C001A604B
:10180000226820465360FFF7E3FD28463146FFF784
:10181000B7FF0420AE62BD46BDE8F840FFF710BE3A
:101820006B6B8560C3606863F8BD00BF240A00204D
:1018300080B5202300AF83F31188FFF7C1FF002399
:1018400083F3118880BD000000000000000000004C
:10185000B0B5144B00AF9A69202383F31188546B01
:101860002068E168A042516315D0936B41B10D68C7
:101870008D4203D0AD68AB4238BF2B46C968F5E74F
:101880009360036823605C60436BA060E360446323
:10189000FFF71EFE01E00023A360002383F31188FD
:1018A0002046B0BD240A0020000000000000000017
:1018B00080B5036B00AF194390F820300163082B0B
:1018C00003D1836A194205D180BD092B06D1836AF1
:1018D0008B4303D1FFF77CFD0023836280BD0000B2
:1018E000F8B505460E46046800AFAC4208D0E36880
:1018F000A1683343E3606068FFF7DAFF2468F4E728
:10190000F8BD000000000000000000000000000022
:1019100080B400AF61B1094B9B699862426818605E
:101920005A6043600D201360BD4680BCFFF7B0BD18
:101930004FF0FF30BD4680BC704700BF240A002036
:1019400090B500AFC361FB6800240A4440600060AA
:10195000846041618161C1600261036290BD0000E9
:10196000034680B59A69406900AF90429A6803D1F6
:1019700012B16FF0030080BD01329A60421C5A61BF
:10198000017059691A69914201D3DA685A6118687D
:10199000984208D002681A605360FFF719FD0023CF
:1019A0008362184680BD002080BD0000000000005A
:1019B000F8B5044600AF0E46202383F31188C369AF
:1019C00003B19847A5683DB931462046FFF7A0FF0F
:1019D0000028F7DA2B460BE0A269013D531CA361F6
:1019E000A56010782269934224BFE368A3610023B5
:1019F00083F31188F8BD0000000000000000000023
:101A00002DE9F84F9B4600AF044689469246D0F830
:101A10001C80202383F311880025B8F1000F01D02A
:101A20002046C047A6684EB959462046FFF770FFCA
:101A30000028F7D0334683F3118817E0A369013EED
:101A40005A1CA261A6601B7809F805302369A269B7
:101A50009A4224BFE368A361002383F31188013510
:101A6000AA4503D0202383F31188D6E72846BDE892
:101A7000F88F0000000000000000000000000000DF
:101A800080B500AFC361BB6882600A4440600060FB
:101A900041618161C1600261036280BD000000009C
:101AA0002DE9F041202300AF04460E46904683F313
:101AB0001188A56855B941462046FFF729FF00283F
:101AC000F7DA2B4683F31188BDE8F0816369013DA5
:101AD0005A1C6261A5601E70236962699A4224BF24
:101AE000E3686361E3690BB120469847002383F301
:101AF00011881846BDE8F0810000000000000000D9
:101B000098B54269816900AF8A420346826803D171
:101B100012B16FF0020098BD01329A604A1C9A61BE
:101B20000C7819698A4201D3DA689A611868984278
:101B300006D002681A605360FFF74AFC00238362F4
:101B4000204698BD000000000000000000000000DA
:101B50002DE9F84F9A4600AF04460E469046D0F85D
:101B60001C90202383F311884FF0000BA5684DB91A
:101B700051462046FFF7CCFE0028F7D02B4683F3D2
:101B800011881FE06369013D5A1C6261A5603278CB
:101B9000751C1A70236962699A4224BFE368636105
:101BA000B9F1000F01D02046C847002383F3118804
:101BB000B8F101080BF1010B04D0202383F3118845
:101BC0002E46D3E75846BDE8F88F0000000000001D
:101BD000064B80B5064A23F007031360054B064AFF
:101BE00023F0070300AF136080BD00BF870E002005
:101BF000440A002000400020400A002000000000AD
:101C00000749084A073020F0070380B508681268C2
:101C100000AF121A93429ABF1B180B60002080BDC0
:101C2000440A0020400A00200000000000000000DC
:101C300080B5202300AF83F31188FFF7E1FF002375
:101C400083F3118880BD0000000000000000000048
:101C500080B40648064B00AF036000238360C36076
:101C60001030BD4680BCFFF7A3BD00BF480A00206E
:101C7000311C00080000000000000000000000000F
:101C8000F8B51F4D0731002818BF054600AF05F114
:101C9000100021F0070405F10806FFF7C9FD3068C0
:101CA000E8B143689C4218D804F108029342D0F886
:101CB00000E002D2C6F800E009E040F802E0811836
:101CC0006FF00702121B13444B60316044600446FE
:101CD00044F8085BFFF7BCFD10E00646DFE7FFF7BE
:101CE000B7FD2B680BB9002408E004F10800984701
:101CF0000028F8D04460056000F108042046F8BDD3
:101D0000480A002000000000000000000000000061
:101D1000F8B50446A0F1080550F8080C00AF00F132
:101D200008061030FFF784FD3346B3421A6801D02D
:101D3000AB4225D20AB1954222D244F8082C1D604C
:101D400054F8040C54F8086C00F108016A18B24207
:101D500007D152680244083244F8042C6A5844F807
:101D6000082C586800F1080119448D420AD154F832
:101D7000042C024408325A6054F8082C1A6001E01E
:101D80001346D2E7BD46BDE8F840FFF761BD00004D
:101D900080B500AF00F0FCFC084801F0D1F800F07D
:101DA00037F800F08DF800F0FBF800F079F900F05A
:101DB00057F9BD46BDE8804003F0DAB9008A000853
:101DC00080B5094B814200AF5B6803D9834203D2DF
:101DD000002080BD834204D28B422CBF0020012012
:101DE00080BD012080BD00BF001000E000000000A9
:101DF00098B5054B00AF5A68141821461046FFF7F6
:101E0000DFFF0028F9D198BD001000E000000000BD
:101E100080B400AFBD4680BC00F092BD0000000061
:101E200080B401230370002343608360C3600361B7
:101E3000436100AF1830BD4680BCFFF7B9BC00005D
:101E400098B5044600AF202383F31188416000F069
:101E500097FD02232370002383F3118898BD0000AF
:101E6000B0B51D4600AF0446202383F31188032339
:101E7000C560084D82600161037000F0A9FDAB6987
:101E800002206361FFF7DCFAAB69986A002383F3F1
:101E90001188B0BD240A00200000000000000000EE
:101EA00080B4183000AFBD4680BCFFF7C1BC000055
:101EB00080B400AFBD4680BCFFF7CABC0000000084
:101EC00080B400AFBD4680BC01F012B80000000035
:101ED00080B501230370002300AF436080BD000084
:101EE00080B40C3000AFBD4680BCFFF789BD000058
:101EF00080B44FF0FF3300AF0C30BD4680BCFFF71D
:101F00007FBD000000000000000000000000000095
:101F100080B4303000AFBD4680BCFFF719BE000072
:101F200080B44FF0FF3300AF3030BD4680BCFFF7C8
:101F30000FBE0000000000000000000000000000D4
:101F400080B40C3000AFBD4680BCFFF731BD00004F
:101F500080B44FF0FF3100AF0C30BD4680BCFFF7BE
:101F600027BD00000000000000000000000000008D
:101F700080B4303000AFBD4680BCFFF791BD00009B
:101F800080B44FF0FF3200AF3030BD4680BCFFF769
:101F900087BD0000000000000000000000000000FD
:101FA00080B400AFBD4680BC01F0FAB8000000006C
:101FB0000346B0B5044615460D4A82B043F8042BDB
:101FC00043600123037202AF00900B46102200F120
:101FD00054010C30FFF7B4FC00942B46102204F19E
:101FE000640104F13000FFF74BFDBD46B0BD00BFFA
:101FF0004062000800000000000000000000000037
:1020000098B5044600AF202383F3118801F0E0F86F
:1020100002232372002383F3118898BD000000007F
:10202000B0B5436900AF04460D461BB9042108440E
:10203000FFF756FC294604F10C00FFF791FC00283D
:1020400006DA8021201DBD46BDE8B040FFF748BC40
:10205000B0BD000000000000000000000000000013
:1020600080B500AF80BD000000000000000000004F
:1020700098B5044690F8763000AF80F87E3001F0D5
:1020800057F963681B6813B1012120469847032361
:10209000237098BD00000000000000000000000058
:1020A00080B400AFBD4680BC01F032B90000000032
:1020B00090B501230370002300AF436000F12802B4
:1020C00000F1440442F8043FA2424FF00001D36102
:1020D000F8D10181418190BD0000000000000000A6
:1020E000B0B400EB8104E4680025A46900AF25705A
:1020F000E2606360A560BD46B0BC01F0E9B90000D4
:10210000B0B400EB8104E4680025646900AF257079
:10211000E2606360A560BD46B0BC01F0F1B90000AB
:10212000F8B5458900AF45FA01F414F001044FF009
:10213000010308D103FA01F242EA0503438101F0E9
:1021400017FA2046F8BD1846F8BD00000000000050
:10215000F8B5058900AF45FA01F414F001044FF019
:10216000010308D103FA01F242EA0503038101F0F9
:102170000FFA2046F8BD1846F8BD00000000000028
:1021800080B402230370002300AFA0F87C3080F8F5
:102190007E3080F87F300381438100F1080200F136
:1021A000280142F8043F8A42FBD1002380F86430C2
:1021B000BD4680BC01F02CB900000000000000000A
:1021C000F8B50446002380F8643000AF00F17402D3
:1021D00001F05EF963689B6833B994F8743013F0CA
:1021E000600640F0CB8005E020469847002840F08C
:1021F000D780F2E794F8755003F07F0343EA052592
:10220000B5F5407F40D00EDC022D7BD003DC5DB302
:10221000012D70D0B2E0B5F5807F2CD0B5F5817F6F
:1022200000F08A80AAE0B5F5C06F3BD00CDC40F22C
:1022300002339D4200F09180B5F5A06F40F09E8082
:10224000A666E666814B54E0B5F5106F3FD040F6C8
:1022500002439D424FD0B5F5006F40F08F8004F1EE
:102260007F03A366012330E004F17C03A36602230D
:10227000E366256794E094F87630012B7ED1B4F8BC
:102280007C3023F0020307E094F87630012B75D1FF
:10229000B4F87C3043F00203A4F87C30A666E6660E
:1022A000266783E094F87920616894F878304D6867
:1022B00043EA022394F8771094F876202046A84742
:1022C00000285BD04368A3660368E36632E094F8B5
:1022D000763084F87F300BB9032300E004232370A9
:1022E00063681B6813B10221204698470023A36648
:1022F000E36623675AE0564BA3660223E366002396
:1023000023674DE094F87810204611F0800F01F01B
:102310000F0102D001F0ACF801E001F099F80128BA
:1023200005D002282AD14B4BE066A36602E04A4B57
:10233000E566A366266733E094F87630F3B994F83F
:10234000783013F00F01D1D01A06204602D501F0E3
:1023500017FBCBE701F0FCFAC8E794F876306BB9CD
:1023600094F8783013F00F01C0D01B06204602D538
:1023700001F0DEFABAE701F0CBFAB7E70021204618
:1023800001F0D6FA0021204601F0C2FA63681B680A
:1023900013B1052120469847062384F86430F8BD20
:1023A000B4F87A30E26E934200D2E36694F9743066
:1023B000E56E002B22DA85B1012384F86430A26E29
:1023C0002B4600212046FFF79BFE202383F3118834
:1023D00000212046FFF7BCFE21E0032384F864308F
:1023E0002A462B4629462046FFF77AFE202383F310
:1023F000118829462046FFF793FE22E08DB1042381
:1024000084F86430A26E2B4600212046FFF768FE58
:10241000202383F3118800212046FFF781FE00234B
:1024200010E0052384F864302A462B4629462046CE
:10243000FFF766FE202383F3118829462046FFF725
:1024400087FE2B4683F31188F8BD00BF712000087A
:1024500060620008706200088062000800000000EE
:10246000B0B590F8643000AF022B044620D0052BA5
:1024700032D0012B35D1B0F87A30C26E934217D9E1
:10248000C3681D8AB2FBF5F305FB132585B92B46FE
:102490002A462946FFF734FE202383F31188294674
:1024A0002046FFF755FE2B4683F31188022326E0D2
:1024B000032384F8643000231A4619462046FFF7A8
:1024C0000FFE202383F3118800212046FFF728FE0A
:1024D000002383F31188B0BD036F03B19847002335
:1024E0000DE0002101F024FA0021204601F010FA4D
:1024F00063681B6813B1052120469847062384F8BA
:102500006430B0BD000000000000000000000000CA
:1025100098B590F8643000AF032B044614D0042B18
:102520001BD1052380F8643000231A461946FFF7B3
:10253000E7FD202383F3118800212046FFF708FEE2
:10254000002383F3118898BDC3689B699B6823B9F6
:10255000036F03B1984700230EE00021204601F0ED
:10256000E7F90021204601F0D3F963681B6813B135
:10257000052120469847062384F8643098BD000062
:10258000084B80B50F2219685A60074A00AF1368DC
:1025900001F00F010BB150689847BD46BDE880407F
:1025A000FEF756BD00600240680A002000000000EF
:1025B000084B80B5F02219685A60074A00AF93684B
:1025C000C1F303110BB1D0689847BD46BDE8804008
:1025D000FEF73EBD00600240680A002000000000D7
:1025E000094B80B54FF4706219685A60074A00AF12
:1025F0001369C1F303210BB150699847BD46BDE88B
:102600008040FEF725BD00BF00600240680A002040
:10261000094B80B54FF4704219685A60074A00AF01
:102620009369C1F303310BB1D0699847BD46BDE84A
:102630008040FEF70DBD00BF00600240680A002028
:10264000094B80B54FF4702219685A60074A00AFF1
:10265000136AC1F303410BB1506A9847BD46BDE808
:102660008040FEF7F5BC00BF00600240680A002011
:10267000094B80B54FF4700219685A60074A00AFE1
:10268000936AC1F303510BB1D06A9847BD46BDE8C8
:102690008040FEF7DDBC00BF00600240680A0020F9
:1026A000094B80B54FF0706219685A60074A00AF55
:1026B000136BC1F303610BB1506B9847BD46BDE886
:1026C0008040FEF7C5BC00BF00600240680A0020E1
:1026D0000B4A0023B0B513601A460A4C0A4900AFF2
:1026E0000C2505FB03F00059026041F8332001334B
:1026F000072BF6D1054B4FF0FF325A60B0BD00BF3B
:10270000A00A002090620008680A002000600240D1
:10271000F8B5DFF870E0467A0125DEF8004005FAEA
:1027200006FC1CEA040F00AF24D1144D45F83620F6
:1027300005EBC6056B604CEA0403CEF800305B067F
:1027400018BF0F4C45681EBFE36943F08073E36117
:1027500003681C6824F00F041C60067A0F24B44040
:102760002C6000241C603AB10901807AFEF7D0FC8D
:102770002046F8BD2846F8BD1046F8BD680A00207E
:1027800000380240A00A0020000000000000000005
:1027900043F67F60294B80B41A6900AF62F40042AF
:1027A0001A6100221A61996961F0805199619A61F8
:1027B00059694FF0FF31596121495A6148608A6077
:1027C00007220A60D1F8EC2D42F08072C1F8EC2D9E
:1027D0001C490A6842F001020A605A6A01F160214C
:1027E00042F080525A620A6842F480720A605A6B60
:1027F00002F44032B2F5803F07D05A6B42F4000237
:102800005A635A6B22F400025A635A6B0B4942F422
:1028100080725A634A6B094B9005FBD55A6B520282
:1028200007D45A6B42F480325A635A6B42F48002E6
:102830005A63BD4680BCFFF74BBF00BF0038024063
:1028400010E000E0001000E00000000000000000C8
:1028500080B5374B4FF080525A62364A00AF53680A
:10286000344913F0100FFAD14FF400630B604B683A
:1028700013F01002FBD12E4B9A605A6822F460428A
:1028800042F440425A604FF080725A634FF48072B3
:102890001A601968264A8905FBD5136843F00103BD
:1028A0001360136822499B07FBD54B6BD8050CD4EA
:1028B000204B1A6842F480721A604A6B42F48072AC
:1028C0004A631A6822F480721A6019494B6B184ADD
:1028D00013F4007FFAD0936843F4080393601368FD
:1028E00043F0807313601168114B8901FBD51A689E
:1028F00000211A609A6842F422529A605A6B42F49C
:1029000080325A630C4A11609A6842F003029A605E
:102910009968074A01F00C010C29F9D1136A43F0B8
:1029200001031362D36A43F00103D36280BD00BF89
:102930000038024000700040003C024000000000EF
:1029400098B5094C00AF2046FFF76AFA074B6021A3
:10295000A362074B1220E36242F28A532363BD460F
:10296000BDE89840FEF7D4BBA40A00200024014033
:10297000906200080000000000000000000000005D
:1029800098B5037800AF012B044617D10C4B984241
:102990000ED103460B4A0621C06AFFF7B9FEE36A6F
:1029A000094A1B689A60094A136A43F40073136268
:1029B000A36A00225A609A6001229A6098BD00BF03
:1029C000A40A0020012B00085824014000380240CE
:1029D000B0B5026900AF1378016B0BB141F0200173
:1029E000C36A85681B68C468DD605588012C04FBD8
:1029F00005F488BF41F004015C601960196841F07A
:102A000001011960836A002119605169D9609169D7
:102A10001961D1695961116A1963516A5963916ADF
:102A20009963D16AD963116B1964D168126941F055
:102A3000806112F0804F42F4407241F4807114BF03
:102A400042F0030242F0010259609A60B0BD0000FA
:102A5000C36A80B5196800AF0A6822F00F020A60E5
:102A6000197A5A680F238B401360836A00225A60D8
:102A70009A6001229A6080BD000000000000000002
:102A800098B51A4B00211A681960930600AF27D534
:102A9000174CE36A1B685B6813B3236903B32046D2
:102AA000FFF7D6FF23699B684BB1052222700121F5
:102AB000204698472378052B04BF02232370002269
:102AC0002261202383F31188606930B1084B5A6179
:102AD0004FF0FF338362FEF77BFC002383F3118802
:102AE000BD46BDE89840FEF7B3BA00BF00240140E0
:102AF000A40A002000000000000000000000000008
:102B0000B0B50D46290700AF044619D5FFF7A0FF61
:102B100003699B6843B1052202700021984723781E
:102B2000052B04BF0223237000222261202383F39C
:102B30001188606900284CD062614FF0FF3345E096
:102B40000369002B48D06A0705D55B681BB1C268D2
:102B5000816852089847AB073ED521690B7893B13D
:102B60004B68002B38D0E268012A81BF498852089F
:102B70005143A06894BFA16800EB41012046BD46C7
:102B8000BDE8B04018472046FFF762FF21694B6857
:102B90008BB104222270E268012A81BF4988520861
:102BA0005143A06894BFA16800EB410120469847BB
:102BB0002378042B03D102232370002323612023D5
:102BC00083F31188606920B1002363618362FEF79B
:102BD000FFFB002383F31188B0BD0000000000005C
:102BE00080B50748074B01225A61436800AF5B6814
:102BF00000219847BD46BDE88040FEF729BA00BFD6
:102C0000D80A00200004014000000000000000007D
:102C100080B50748074B02225A61436800AFDB6862
:102C200001219847BD46BDE88040FEF711BA00BFBC
:102C3000D80A00200004014000000000000000004D
:102C400080B50748074B04225A61436800AF5B69AF
:102C500002219847BD46BDE88040FEF7F9B900BFA4
:102C6000D80A00200004014000000000000000001D
:102C700080B50748074B08225A61436800AFDB69FB
:102C800003219847BD46BDE88040FEF7E1B900BF8B
:102C9000D80A0020000401400000000000000000ED
:102CA00080B50748074B10225A61436800AF5B6A42
:102CB00004219847BD46BDE88040FEF7C9B900BF72
:102CC000D80A0020000401400000000000000000BD
:102CD00098B5174B00AF5C6904F478725A61A3068B
:102CE00004D5144805214368DB6A9847600604D57B
:102CF0001048062143685B6B9847210604D50D48B0
:102D000007214368DB6B9847E20504D50948082191
:102D100043685B6C9847A30504D5064809214368BE
:102D2000DB6C9847BD46BDE89840FEF791B900BFFF
:102D300000040140D80A002000000000000000004C
:102D400098B51A4B00AF5C6904F47C425A61620585
:102D500004D517480A2143685B6D9847230504D5BD
:102D600013480B214368DB6D9847E00404D51048F5
:102D70000C2143685B6E9847A10404D50C480D21D3
:102D80004368DB6E9847620404D509480E21436806
:102D90005B6F9847230404D505480F214368DB6F18
:102DA0009847BD46BDE89840FEF752B9000401407F
:102DB000D80A002000000000000000000000000011
:102DC00080B50848084B4FF480325A61436800AF21
:102DD000D3F8843010219847BD46BDE88040FEF707
:102DE00037B900BFD80A00200004014000000000ED
:102DF00080B50848084B4FF400325A61436800AF71
:102E0000D3F88C3011219847BD46BDE88040FEF7CD
:102E10001FB900BFD80A00200004014000000000D4
:102E200080B50848084B4FF480225A61436800AFD0
:102E3000D3F8943012219847BD46BDE88040FEF794
:102E400007B900BFD80A00200004014000000000BC
:102E500080B50848084B4FF400225A61436800AF20
:102E6000D3F89C3013219847BD46BDE88040FEF75B
:102E7000EFB800BFD80A00200004014000000000A5
:102E800080B50848084B4FF480125A61436800AF80
:102E9000D3F8A43014219847BD46BDE88040FEF722
:102EA000D7B800BFD80A002000040140000000008D
:102EB00098B50D4B00AF5C6904F4C0025A61A202E0
:102EC00005D50A4815214368D3F8AC30984763020A
:102ED00005D5064816214368D3F8B4309847BD4657
:102EE000BDE89840FEF7B4B800040140D80A0020BD
:102EF00080B4034800AFBD4680BCFEF7E9BF00BF09
:102F0000D80A0020000000000000000000000000BF
:102F10004B6880B543608B6800AF8360CB68C3604B
:102F20000B6943614B6903628B6943620B68036001
:102F300080BD000000000000000000000000000054
:102F4000174B80B5D969024641F03F01D961996AB2
:102F500000AF41F03F019962996A41F03F019962E7
:102F600001461048FFF7D4FF0F4802F11C01FFF79C
:102F7000CFFF0E4802F13801FFF7CAFF0C4802F1FB
:102F80005401FFF7C5FF0B4802F17001FFF7C0FFC6
:102F9000094802F18C01BD46BDE88040FFF7B8BF8B
:102FA00000380240000002400004024000080240D5
:102FB000000C02400010024000140240000000001B
:102FC0002DE9F04F83B0C2F3C31300AF02F0030644
:102FD000C2F38008C2F3C10CC2F3411E7B60002221
:102FE0004FF00F094FF0010A4FF0030BCB072DD51F
:102FF0007C6802F007039B0004FA03F509FA03F367
:10300000DB43072A95BF046A446A2340234095BFE7
:103010001D431D430562456243680AFA02F423EA30
:10302000040343EA0803436053000BFA03F3DB4352
:1030300084681C4044EA0C048460C4681C4044EA70
:103040000E04C4600468234033430360490808D079
:103050004FEA48084FEA8C0C4FEA8E0EB600013258
:10306000C4E70C37BD46BDE8F08F0000000000004B
:10307000044A80B5938900AF9BB243F080039381EB
:1030800080BD00BF003801400000000000000000CB
:103090003F4B2DE9F0415D6F00AFAE892C88B5F84C
:1030A0000480A4B22207B6B21FFA88F819D014F02F
:1030B000080F0CBF00218021E30748BF41F0200129
:1030C000A00748BF41F04001620748BF41F480714A
:1030D000202383F311882F48FEF702FC002383F39B
:1030E0001188E30510D5202383F311884FF4007174
:1030F0002848FEF7F5FB002383F311882B8823F47F
:1031000080731B041B0C2B80A0060AD5202383F39D
:1031100011881F485FFA88F1FEF782FF002383F3CE
:103120001188310618D5220616D5202383F311887D
:103130001948FEF7E5FC002809DA08211548FEF7D2
:10314000CFFB26F0C00343F04003AB8101E080B227
:10315000A880002383F31188630613D5202383F30B
:10316000118810210B48FEF7BBFB002383F3118865
:1031700026F04006B6B2AE812B8823F040031B0434
:103180001B0C2B80BD46BDE8F041FDF761BF00BFC1
:10319000E00A0020E40A0020100B002000000000DC
:1031A00098B5054C00AF054A00212046FEF700FF08
:1031B000034B636798BD00BFE00A00207130000830
:1031C0000038014000000000000000000000000086
:1031D000B0B5037A1A4C00AF002918BF0C46012B7A
:1031E00005460BD1174B984208D1174AC021136AE4
:1031F000252043F480431362FDF78AFF6B6F134A67
:10320000934208BF1249226818BF1249B1FBF2F27B
:1032100092B21A81E28842F0400292B21A82228966
:1032200042F0010292B29A82A28842F4045242F021
:103230002C0292B29A8100221A801A889B88B0BD13
:10324000F0620008E00A0020003802400038014027
:1032500000093D000024F400000000000000000010
:1032600003682DE9F04103F1005303F540530C4688
:103270005B0091B2550881809E46294600AFE1B1BE
:10328000A069D4F810C0461C6645A66128BFE66850
:10329000007828BFA661D4F81880013908F101062A
:1032A000A66198F80080B44598BFE66840EA082017
:1032B00098BFA6614EF8040BE1E7D1070AD5A069D3
:1032C000411CA161007843F825002369994224BF7D
:1032D000E368A361202383F31188A36800251A44BF
:1032E000A2602068A04206D0036823605C60FEF7FD
:1032F0006FF88562F5E7002383F31188BDE8F0815C
:1033000080B400AFBD4680BCFDF7A2BE0000000047
:1033100080B4034800AFBD4680BCFEF7C9BE00BF05
:10332000580B00200000000000000000000000001A
:1033300080B590F87E30034A43F0800300AFD36439
:1033400080BD00BF005C00400000000000000000E5
:1033500000EB8103F0B5DC6800AF236803F00303E2
:10336000013B022B96BF284A4FF4007232F813201B
:10337000A3680BB142F02002E3680BB142F40052A3
:1033800047F6700642EA01058B0025F4F04503F18B
:10339000804303F5B84325F070051D601D68164095
:1033A00086EA05021A60628A3E2A02F1FF3308D9D2
:1033B00043F01F0301335B116FEAC3636FEA5343AA
:1033C00006E043F001030133022593FBF5F39B0272
:1033D0000E4D9BB22D6D05F1005505F5405505EBE1
:1033E000C101490000258D808B81D0F88050238A4F
:1033F0002B44C0F880300D60D0F880301A44C0F8FB
:1034000080208B60F0BD00BF00630008005C0040BE
:103410000C4B90B40021802419655964DC64446825
:1034200000AFE4688C420CBF4FF41C444FF41E44C0
:103430001C644023C0F88030034BC360BD4690BC81
:10344000FFF786BF005C004010630008000000002A
:1034500080B5064B00AF53F8210010F4405004D063
:10346000B0F5805F0CBF0120022080BD005C0040F1
:1034700080B5064B00AF53F8210010F0300003D0A8
:1034800010280CBF0120022080BD00BF005C00405E
:103490000C4B80B51B6D00AF03F1005303F5405397
:1034A00003EBC10149008B6803F1005303F540535E
:1034B0005B0003F1100153F8040B8B4222F8020B5E
:1034C000F9D180BD005C0040000000000000000059
:1034D00000EB8101C96880B58A6900AF53680BB9F8
:1034E000012304E0498A013B0B44B3FBF1F313824F
:1034F00080BD00000000000000000000000000008F
:1035000000EB8100C368B0B45C6917481B8A62682D
:10351000006D9A4228BF1A46237800F1005000AF90
:10352000C90000F5405033B10844E1684000BD4691
:10353000B0BCFFF795BE01444900086895B200F1A0
:10354000005000F540500132E46840008D80520880
:10355000934205D034F8131040F823100133F7E7F5
:10356000BD46B0BC704700BF005C004000000000DA
:10357000890001F1804101F5B84180B50B6800AFC9
:1035800023F4904323F0700383F440530B6080BD19
:10359000890001F1804101F5B84180B50B6800AFA9
:1035A00023F4F04323F0400383F030030B6080BD2D
:1035B0002DE9F04F83B0B64B00AF5C6C1D4614F4A0
:1035C000806F0CD0B34E3046FEF7DAFD73681B688F
:1035D00013B10021304698476FF480636B64260571
:1035E0000ED5AB4BAB481A6C1D4642F008021A646C
:1035F000426812680AB1032190476FF400636B645C
:10360000E50411D5A24B9A6C100409D41A6CA14898
:1036100022F008021A6443681B680BB10421984722
:103620009B4B6FF480525A64A10508D599484368B2
:10363000DB6803B19847964B6FF400725A64DFF869
:103640005492DFF84C82230440F1558104F00F04BA
:10365000A50005F1804505F5B845D5F800B08D4BBE
:1036600004F1020A03EB8A031BF0800F5E686BD043
:103670002B68E10023F4F14323F070032B60D8F8AA
:103680005030D6F814E003F1005303F540530B44D7
:103690005B009888DEF808201FFA80FCDEF8043012
:1036A0006244CEF808209A1A41D0338A9A4228BF41
:1036B0001A469EF8003063B1D8F8500000F100506F
:1036C00000F5405008444000DEF80C10FFF7C8FD3C
:1036D00022E0DEF80C006044CEF80C00D8F850E090
:1036E0001FFA82FC0EF1005E0EF5405E7144490047
:1036F000D1F800E001320EF1005E0EF5405E4FEAB7
:103700004E0EA1F804C052089A4205D030F81310AA
:103710004EF823100133F7E7202383F311885D4827
:103720002146FFF735FF002383F311880CE00123C6
:1037300003FA04F2574B21461B8923EA0203554A38
:1037400013811046B36898471BF4004F00F0D080F7
:103750002B681BF4006F23F4784323F070032B6075
:1037600005D009EB8A0ADAF804305B68B4E0D8F8CF
:10377000503003F1005303F5405303EBC4035B00E7
:103780009A8992B27A60C2F3090BB2691178002962
:103790006AD098684FEA5B0C00F1005000F5405089
:1037A000400001464FEA8C0C00EB0C03D2F80CA051
:1037B0003B603B68994226D0DAF8143051F804EBAC
:1037C0005A1CCAF8142083F800E0DAF81420DAF85A
:1037D00010304FEA1E2E9A4224BFDAF80C30CAF895
:1037E0001430DAF814305A1CCAF8142083F800E0B8
:1037F000DAF81030DAF814209A4224BFDAF80C30E4
:10380000CAF81430D5E77B686044DA0710D5DAF8D7
:1038100014305A1CCAF8142002681A70DAF81030F2
:10382000DAF814209A4224BFDAF80C30CAF81430BF
:10383000202383F31188DAF808305B44CAF8083093
:103840000023DAF8000050450AD002687B60CAF80D
:103850000020C2F804A0FDF7BBFD7B688362F0E79F
:10386000002383F311881AE09B680BF1010103F137
:10387000005303F540535B004908D06803EB810116
:103880008B4209D053F804EB20F802EBF8E700BFB5
:10389000005C0040580B0020D3685B44D360B269E1
:1038A00093685B4493605368CBEB03035360138AC4
:1038B000013B9BB21382728A934500D383B90123E3
:1038C00003FA04F2B9F80A3023EA0203A9F80A302D
:1038D00009EB8403DB68DB6821460A48984707E068
:1038E0002B6823F4904323F0700383F440532B6040
:1038F000D8F84440A7E60C37BD46BDE8F04FFDF7C9
:10390000A7BB00BF580B0020000000000000000013
:10391000890001F1804101F5B84180B50B6800AF25
:1039200023F4904323F0700383F480530B6080BD35
:10393000890001F1804101F5B84180B50B6800AF05
:1039400023F4F04323F0400383F010030B6080BDA9
:10395000890001F1804180B501F5B8410B6800AFE5
:1039600003F44053B3F5405F07D00B6823F4F043F2
:1039700023F0400383F400530B6080BD000000007F
:10398000890001F1804180B501F5B8410B6800AFB5
:1039900003F03003302B07D00B6823F4F04323F0FF
:1039A000400383F020030B6080BD00000000000096
:1039B00080B5084B00AF1A7852B901221A7000F096
:1039C0000FF800F055F8BD46BDE8804000F020BA81
:1039D00080BD00BFF80B00200000000000000000C8
:1039E00080B5064B00AF9B6933B9FEF7D1F9BD46F0
:1039F000BDE88040FDF7DCBB80BD00BF240A00208D
:103A000080B4034600AF48B1421C0BD04FF47A702B
:103A10004343013BB3FBF0F0013003E0BD4680BC03
:103A2000FDF766BEBD4680BCFDF752BE000000003B
:103A300080B4034600AF78B1421C1FBF4FF47A70C8
:103A40005843074B00F1FF301CBFB0FBF3F00130CF
:103A5000BD4680BCFDF73CBEBD4680BC704700BF84
:103A600040420F00000000000000000000000000C5
:103A700080B500AF80BD0000000000000000000025
:103A80002DE9F04F83B04FF0000806468B46C14643
:103A90001F4A00AF15687A6065B16A682D68B24246
:103AA0001188328808BF09F10109914208BF08F165
:103AB0000108F1E771682846FEF7E2F8044610B302
:103AC0007268294602F0B4F9D6F808A06660BAF127
:103AD000000F09D043464A4659462046D04718B9F8
:103AE0002046FEF715F90EE07B681A68094B0AB10B
:103AF0001A6800E0064A14601C60F36820461BB197
:103B00009847204600E028460C37BD46BDE8F08FB8
:103B1000000C0020FC0B0020000000000000000052
:103B200090B5084B00AF1B68002243B15C68248845
:103B3000844202D18A4202D001321B68F5E718465E
:103B400090BD00BF000C002000000000000000003D
:103B500090B583B01C460193054B02AF009313460A
:103B60000A460146A06B00F003FC0437BD4690BD39
:103B7000A13D00080000000000000000000000005F
:103B800080B400AFBD4680BCFFF7E2BF000000007C
:103B90002DE9F047436800AF1A6C04461AB1BD46E0
:103BA000BDE8F0471047DA691AB3C28B920705D512
:103BB0009B6A9847E38B23F00203E383B4F9243034
:103BC000B4F9265020465D436368DB699847636813
:103BD0001B6A0BB120469847636825B15B6A204693
:103BE0009847013DF8E720469B6ABD46BDE8F0478F
:103BF0001847B0F92090B0F92280868CC58C4E44CD
:103C0000454436B22DB2B4F92230AB4211DAB4F9E0
:103C10002030B34207DA636820469B6B9847238CB9
:103C200001332384F3E7638CA4F820900133638489
:103C3000E9E7A4F82280BDE8F0870000000000005A
:103C40002DE9F041426800AF936B0446002B2BD165
:103C5000136AEBB1C38B03F002039BB28BB9B0F9CB
:103C60002060B0F92250038443840389838443890C
:103C7000C384D3699847E38B268443F002036584A9
:103C8000E383636820461B6A984763685B6A0AE0BF
:103C90000123C3848384D3699847636820465B6AA1
:103CA000984763689B6A2046BD46BDE8F0411847C7
:103CB000B0F92030B0F928202DE9F0419A42BEBF7A
:103CC000028403858384B0F92050B0F9283000AF16
:103CD0009D42044604D1BD46BDE8F041FFF7B0BFA8
:103CE00041680E6C36B15A1C531B83840123C38474
:103CF000334640E00A6A002A28D0C28B02F0020252
:103D000092B27AB90389B0F92260838443894284EC
:103D1000C3840284CB699847E38B258443F0020374
:103D20006684E383238D204601335B1BA384636891
:103D30001B6A9847636820465B6A9847A38C013BDF
:103D40001BB2A384002BF5D1BDE8F081CA69B2B1E2
:103D500001335B1B83840123C3849047636820463F
:103D60005B6A9847A38C013B1BB2A384002BF5D15F
:103D7000204663689B6ABD46BDE8F0411847B4F928
:103D80002020B4F928309A4207DC636820469B6BF8
:103D90009847238C01332384F1E7BDE8F0810000CC
:103DA000F0B400AF3C69B4F940508D4228DCB4F95E
:103DB00044508D4224DDB4F93E608518B5421FDDC4
:103DC000B4F94250A8421BDAB042BFBF921B12188E
:103DD000304602F0FF028618AE42C4BF2A1AD2B2A1
:103DE000802B0DD9431E208420461A4494F83C3081
:103DF0006184228584F83030BD46F0BCFFF758BF9F
:103E0000BD46F0BC7047000000000000000000004C
:103E100080B4064800AF418811F0010103D1BD46CE
:103E200080BCFFF72DBEBD4680BC7047A08900084E
:103E300090B403770023C383436842775B6900AF84
:103E40004161BD4690BC1847000000000000000022
:103E5000B0B50A4D00AF2B680446834204D100215F
:103E60006720FFF75DFE286063689B6923B12046E9
:103E7000BD46BDE8B0401847B0BD00BF040C0020EF
:103E800080B4436800AFDB6D13B1BD4680BC1847FA
:103E9000BD4680BC7047000000000000000000002C
:103EA000B0B5436800AFDA6B04461AB180F8301041
:103EB000DB6B28E01D6C4DB142840284028980F8DE
:103EC0003010828442891B6CC2841CE0DA69F2B132
:103ED000B0F9082045840584B0F90A5080F8301004
:103EE000C584DB6982845543984763681B6A0BB1BC
:103EF00020469847636825B15B6A20469847013D94
:103F0000F8E720469B6ABD46BDE8B0401847154615
:103F100080F830104284B4F92220B4F90A309A4271
:103F200012DA2584B4F92020B4F908309A4207DA6D
:103F3000636820469B6B9847238C01332384F1E709
:103F4000638C01336384E6E7B0BD0000000000002D
:103F500098B5044600AF0021FFF7A2FF2046FFF707
:103F60008FFF024B1A6802B91C6098BD040C002038
:103F7000F0B400AFB7F910603D7D018442848384C2
:103F8000C68480F83050BD46F0BCFFF701BE00008B
:103F90002DE9F04F87B0934604460D4600AF97F8E1
:103FA00040201FFA83FA1FFA8BF980F830201E4652
:103FB0000AEB0902CAF104031BB2218442847B612B
:103FC000FFF73EFECAEB0902258462842046ADB2AB
:103FD000FFF736FE0AEB050222842046A4F822B041
:103FE000CAEB050AFFF72CFEA4F820A0A4F822B023
:103FF0002046FFF725FE7B694FF001081FFA88FA7B
:104000001FFA86FB05EB0A0209EB0B0109B212B29B
:1040100061842284204679603B607A61FFF710FE5C
:104020007A6920462284CBEB090213B27B61BB8AFA
:104030006384FFF705FE05EB0B0213B23B613B8A7D
:1040400009EB0A0212B2238462842046BA60FFF7A9
:10405000F7FDCBEB050003B2FB60BB89BA68238494
:1040600062842046FFF7ECFD7968CAEB050212B2C4
:10407000618422842046BA60FFF7E2FDBA68BB8AF9
:10408000228463842046FFF7DBFD3B8ACAEB0902EA
:1040900012B22384628420467A61FFF7D1FDBB8986
:1040A0007A69238462842046FFF7CAFD3B680AF1DF
:1040B000010A002B04DA03EB480303331BB209E0C7
:1040C000C6EB080603EB46030BF1FF3B05331BB2BF
:1040D0000FFA8BF60FFA8AF8B0458FDB1FFA88F8D3
:1040E000B6B205EB080B09EB060A0FFA8BFB0FFAC9
:1040F0008AFAC6EB090920460FFA89F9A4F820B01C
:10410000A4F822A0C8EB0505FFF79AFD2DB22046C2
:10411000A4F820B0A4F82290FFF792FD2046258451
:10412000A4F822A0FFF78CFD2584A4F82290204655
:10413000FFF786FDE38B9B0707D5636820469B6AE4
:104140009847E38B23F00203E3831C37BD46BDE8A9
:10415000F08F0000000000000000000000000000E0
:1041600090B4436800AF1C6D0CB301290184426315
:1041700019D192B2B2F57A7F0CD040F2E9339A426B
:1041800011D1B0F90830B0F90A209342B4BF5A23D4
:10419000002307E0B0F90830B0F90A209342ACBF21
:1041A0005A23002343632346BD4690BC1847BD46AF
:1041B00090BC7047000000000000000000000000FC
:1041C0002DE9F0430446994685B004AF3D6A0023CB
:1041D000856390460E46E187A4F8402049461A467A
:1041E000284600F055F9B6B23044A4F842006B7A84
:1041F00042464344A4F8443097F82430284684F8D3
:104200003C30297B0C4B31440293002301930394EF
:10421000CDF8009009B200F07BF9E38B9B0707D53E
:10422000636820469B6A9847E38B23F00203E3838D
:104230000437BD46BDE8F083813B00080000000064
:1042400080B500AF02780B7852B12A2A0CD142789F
:1042500013B9B2FA82F005E09A4208D10130F1E7D1
:10426000B3FA83F0400980BD934202D1013001319D
:10427000E8E7002080BD0000000000000000000012
:10428000F8B500AF064600F0A3F805463DB16C68EE
:1042900030462168FFF7D4FF80B92D68F6E700F0BB
:1042A00097F805463DB16C6830466168FFF7C8FF76
:1042B00020B92D68F6E700F08BF844682046F8BD79
:1042C000F0B5026800AF13788BB3511C016019067A
:1042D0002BD503F0C001802927D0527802F0C0020C
:1042E000C02A22D00024022520221A4201684FEA67
:1042F00084140CD0052D0AD011F8016B013506F09D
:104300003F063443EDB25208A4B20160EDE7013A32
:104310001A40013D06236B4311F8016B02FA03F3C7
:1043200006F03F0634430160234398B2F0BD1846BF
:10433000F0BD0000000000000000000000000000D0
:1043400080B5036800AF013B03600268137819066B
:1043500006D503F0C003C02B02D0013A0260F4E797
:1043600080BD000000000000000000000000000010
:104370002DE9F04782B002AFD7F820807E6ACDF8F1
:10438000008001968569044689469246A84760B92F
:10439000A569524649462046AC46238A7E62C7F844
:1043A0002080BD46BDE8F0476047BD46BDE8F087C8
:1043B000B0B5436900AF0446984730B920466369F9
:1043C000218ABD46BDE8B0401847B0BD00000000DE
:1043D00080B5014800AF80BDD06A00080000000031
:1043E0002DE9F041884600AF6D2114460646FFF7DF
:1043F000DFFFC00085B220213046FFF7D9FF317BB7
:10440000204483B2C8EB0101EA180B441BB293FBB2
:10441000F5F005FB1030101A00B2BDE8F081000085
:104420002DE9F04F83B081468B46047B00AF07F146
:10443000080A0C1B3D8E3A604AF8043D24B200265F
:1044400015B35046FFF73CFF0928804608D12246A5
:1044500059464846FFF7C4FF4FF0200804460FE0D6
:1044600036B102463146484600F052F9204404B2C3
:104470002046BB6B424639687E6BB047204404B28D
:10448000013DADB24646DBE70C37BD46BDE8F08FD7
:104490002DE9F04F4FF6FF75002681469B46002A16
:1044A00018BF1546344683B000AF07F1080A4AF832
:1044B000041D7B681B781BB35046FFF701FF0928DA
:1044C000804607D1224600214846FFF789FF202673
:1044D000044611E0BBF1000F07D036B10246314669
:1044E000484600F015F9204404B241464846FFF71B
:1044F0005FFF4646204404B2013DADB2002DD8D145
:1045000020460C37BD46BDE8F08F000000000000DB
:104510002DE9F04F8BB088464FF6FF7104AFB7F826
:1045200044A000260546BAF1000F08BF8A4634466B
:10453000D7F84090934607F1180242F80C9DF968AD
:104540000978B1B110463B607A60FFF7B9FE20F000
:10455000800189B201342029A4B27A683B6806D070
:104560000D2804D0093880B2012888BF264654455A
:10457000E5D143B9FB6C00960293BB6C5A4601939C
:1045800041464B4614E0012B16D1002332464946E2
:104590002846FFF77DFFFB6C022190FBF1F00293B0
:1045A000BB6C5A4601934B46C0EB0801009609B21A
:1045B0002846FFF735FF66E0022B64D107F1180AA1
:1045C0004AF8089D0024A3B2B34204D25046FFF734
:1045D00077FE0134F7E74FF0000A1FFA88F3D04660
:1045E000287B3B60181A03B27B601FFA8AF3B34240
:1045F00049D207F11000FFF7A3FE3B6907F1140051
:104600007B61FFF75DFE092881461ED16D2128469A
:10461000FFF7CEFEC0001FFA80F920212846FFF7E1
:10462000C7FE7B683A68181A2B7B80B213441B1AAA
:104630001BB293FBF9F409FB1434C9EB00002044CE
:1046400003B27B604FF0200919E001462846FFF7CE
:10465000AFFE7B68181A84B2B8F1000F01D123B203
:1046600006E042464946284600F052F8201A03B2B6
:104670007B604A46FB6C59467868BC6CA0470AF1DF
:10468000010AC846B1E71C37BD46BDE8F08F0000FF
:1046900080B5072B00AFBA6807D9137C91FBF3F103
:1046A000C9B2535C9842B8BF505480BD00000000AE
:1046B00090B5072B00AFFC680BD9237C013891FB28
:1046C000F3F10244C9B292B2635C10B29842C8BF1F
:1046D000625490BD000000000000000000000000D7
:1046E00080B5A0F109039BB2172B00AF014607D894
:1046F000064A22FA03F303F0010383F0010023B911
:104700003039092994BF0020012080BD13008000AA
:104710002DE9F0418CB0C37B02AFDB0705460C46A8
:10472000164601D5002060E00846FFF7D9FF0028B3
:10473000F8D03046FFF7D4FF0028F3D06B7AFF2182
:104740000F331B1114BFDBB2012387F824303B74F5
:1047500000231A4607F11408D95503F8082001333D
:10476000102BF9D1234B002211460093CDF8048081
:1047700023462846FFF7FCFD1F4B002200931146FD
:104780003346044601972846FFF7F2FD0022FF2337
:10479000B95CFF2908D018F802502DB12144491BFB
:1047A000C9B28B4228BF0B460132102AF0D1FF2B31
:1047B000B8D002195210C2EB0212642192FBF1F23E
:1047C0000332D31A1BB2002B0CDC24B200B2A0427D
:1047D000B8BF20466FF0040490FBF4F000B28342AF
:1047E00002DB00E00023184640B22837BD46BDE892
:1047F000F08100BFB14600089146000800000000AB
:10480000F0B590F82A6000AF00224FF00C0EB242D3
:1048100012D20EFB02F3C56AEC18EB5A994209D387
:104820006588CB1AAB4205D26268A06832F81330B3
:104830001844F0BD0132EAE70020F0BD000000009E
:104840002DE9F04304460E46914683B002AFB4F919
:104850000400B4F9023082199A4214DB1D1A23694C
:104860005FFA85F8009342464B46B4F90610E568B6
:10487000A8472388C8EB0608A380E3881FFA88F6B8
:104880000133E380E3E766B12369E5680093B4F997
:1048900006104B46F2B2A847A58806EB0508A4F817
:1048A00004800437BD46BDE8F0830000000000002E
:1048B00090B58388B0F90220194400AF818094B28A
:1048C000B0F90410914207DB03880B441B1B838063
:1048D000C3880133C380F3E790BD000000000000EF
:1048E0002DE9F8430F2A00AF04460D4604D802EB29
:1048F0000212D2B2012173E0102A03D10B89CB80BE
:10490000BDE8F883172A71D990F8283017339342FD
:1049100038DB436A183AD2B233F8128003EB420212
:10492000C1465688C8EB0606B6B2C8EB09039BB26F
:104930009E4225D9236A13F8091011F0C00305D04F
:10494000402B07D101F03F01890140312846FFF794
:10495000AFFF12E0802B03D101F03F01FF2208E0FE
:10496000C02B0AD101F00F0202EB0212C1F30111B8
:10497000D2B201312846FFF763FF09F10109D4E7FC
:10498000BDE8F883FB2A0AD8F32A0AD8E32A0AD812
:10499000C32A0AD8832A8CBF0626072606E00226E9
:1049A00004E0032602E0042600E00526043AD4B21F
:1049B0000021013EF6B2FF2E10D0E30702D50131EF
:1049C000C9B209E019B1FF222846FFF739FF0121DA
:1049D0002846FFF76DFF00216408EAE731B132464F
:1049E0002846BD46BDE8F843FFF72ABFBDE8F88377
:1049F0002DE9F04786B0047A00AF0C44B9803981C4
:104A0000417A7A810A44BA81BA6B19463A61FA6BE3
:104A10000546FC807A61FFF7F3FEB0B30478461CCC
:104A2000B7F90A20B7F90C309A422DDA95F82830F8
:104A300016F8012B1733934221DA95F829301733F2
:104A40009A421CDC6B6A183AD2B233F8129003EB2C
:104A50004202CA46B2F80280C9EB08081FFA88F879
:104A6000C9EB0A039BB29845DAD92B6A391D13F8B2
:104A70000A202846FFF734FF0AF1010AF0E7391D42
:104A80002846FFF72DFFCBE720461837BD46BDE887
:104A9000F08700000000000000000000000000009F
:104AA00080B500AFFFF7ACFE00B1007880BD00001C
:104AB0000023B0B51D4600AF00219C0102682244CE
:104AC0000A440131402982F8015FF7D10133402BBC
:104AD000F2D1036800221A70B0BD0000000000008F
:104AE00098B5084C0423A36100AF1020FDF780F9AE
:104AF0004FF480234020A361BD46BDE89840FDF7F8
:104B000077B900BF00040240000000000000000070
:104B100098B50A4B4FF400529A6100AF084CFFF76A
:104B2000DFFF4FF40033A361FFF7DAFF0223A36135
:104B3000BD46BDE89840FFF7D3BF00BF0008024064
:104B4000000402400000000000000000000000001F
:104B500080B5094B4FF0005200AF9A61FFF7C0FFDC
:104B6000FFF7BEFFFFF7BCFFFFF7BAFFBD46BDE88A
:104B70008040FFF7B5BF00BF000802400000000002
:104B8000F0B5094A00AF014408244FF400258842DB
:104B900009D010F8013BDE431B0243EA0663936130
:104BA00094619561F3E7F0BD00040240000000004D
:104BB000F0B5234C83B04FF48013A3614FF400137E
:104BC000A36100284FF4000300AFA36107F10806BA
:104BD00014BFAA23552306F8013D4FF48065012137
:104BE0003046FFF7CDFF013DF9D18023A3610823B3
:104BF000A3614FF40023A3611023A3614FF480133A
:104C0000A3612023A361FFF783FF4FF440750426BF
:104C10004FF4A070A661FDF7EBF84FF48023A36179
:104C20004FF44860FDF7E4F8013DF1D1FFF790FF44
:104C3000034B4FF400120C379A61BD46F0BD00BF24
:104C4000000402400000000000000000000000001E
:104C5000B0B5054600AF1430FFF72AFF95F83000D5
:104C60000A24B0FA80F04009FFF7A2FF3220FEF7D5
:104C7000C7FE95F83000FFF79BFF0A20FEF7C0FE45
:104C8000013CF6D1B0BD00000000000000000000B3
:104C90002DE9F04F484D81462C4685B04FF0030B6F
:104CA00000AFFFF735FF0026B301D9F814107B6081
:104CB00000237A681A440A4492F8012FCAB90133D2
:104CC000402BF6D14FF00C084FF0040A1020C5F825
:104CD00018A0FDF78DF84FF48023AB614FF4C86046
:104CE000FDF786F8B8F10108F0D10136402EDBD18E
:104CF00054E04FF000084FF48013AB614FF4001301
:104D0000AB614FF40003AB614FF0000AD9F8140017
:104D10007B68C318534493F8013F6BB904233B608D
:104D20004FF00003012107F10F00FB73FFF728FF8D
:104D30003B68013BF3D109E0013B0C2202FB0383FA
:104D400000EB830004210130FFF71AFF0AF1010A8A
:104D5000BAF1400FDAD18023A3610823A3614FF495
:104D60000023A3611023A3614FF48013A3610423E4
:104D7000A3612023A3615020FDF73AF84FF40013FC
:104D8000A3614FF48023A3614FF4486008F1010848
:104D9000FDF72EF8B8F10C0FADD1A6E7FFF7D8FE5E
:104DA000BBF1010B7FF47DAF09F11400FFF780FE2A
:104DB0001437BD46BDE8F08F00040240000000003B
:104DC0002DE9F84F818900AFB4290546B0F92030AC
:104DD000B0F9222033D0B1F5877F4FF010084AD0C8
:104DE0005A2916D058484FF00C09184093FBF8F890
:104DF00092FBF9F3002809FB1322BEBF00F1FF303C
:104E000060F00F00013004B20FFA83FA0FFA82F952
:104E10004AE0C3F53F7303334FF00C0993FBF9FAF3
:104E2000494892FBF8F810400028BEBF00F1FF305F
:104E300060F00F00013004B209FB1A3934E0C2F50A
:104E40003F7203324FF00C0992FBF9FAC3F57F73FE
:104E50003D48033318400028BCBF00F1FF3060F02C
:104E60000F004FF01008B8BF013093FBF8F804466C
:104E700009FB1A2918E0C2F57F72334803324FF05C
:104E80000C09104092FBF8F893FBF9F20028BEBF22
:104E900000F1FF3060F00F000130044609FB1233CF
:104EA0000FFA82FA0FFA83F9D5F814B04FEA8A1A8A
:104EB0000BEB0A03434493F8016F06BB9BF80030E9
:104EC0004F2B02D92846FFF7E3FE9BF80010302253
:104ED0004A43DA4401310BEB0203C9B23032D04409
:104EE00088F8011F5E1C8BF80010934400225A7052
:104EF0009A70DA7003F8042F9B45F8D104E0013E64
:104F0000302303FB06B60136E0434FEA89094FEA36
:104F1000940E00F0030006EB090313F80E30400076
:104F20000321814023EA010195F8303049B20BB1E9
:104F3000022400E0012404FA00F00143C9B2B144A4
:104F400009F80E10BDE8F88F0F0000800000000087
:104F50002DE9F041214D224C4FF480260121AE6114
:104F600000AFA161202383F3118800222046FEF7C1
:104F700027F8002383F311884FF40028C5F8188020
:104F80006420FEF73DFD4FF48013A3614FF400133E
:104F9000A3614FF40003C4F81880A3614FF07F436E
:104FA000A36103F182434FF0005203F50233A6617F
:104FB0009A614FF40033A361202383F311884022C8
:104FC0004FF400412846FDF7FBFF002383F31188CF
:104FD0004FF00043AB61BDE8F08100BF000002402C
:104FE000000402400000000000000000000000007B
:104FF0002DE9F041B0F9208000AF0446B8F1000F70
:1050000004D0B8F1010F63D0BDE8F08190F83430DE
:10501000827B9A427BD0022B03DD032B06D0BDE8B6
:10502000F081FFF735FEFFF793FF4DE0202383F378
:105030001188384E01224FF400413046FDF7C0FF81
:10504000434683F31188344D4FF40043B3614FF46A
:105050008013AB614FF40013AB614FF40023AB61DD
:105060008023AB614FF07F43AB614FF48023AB6192
:1050700003F180434FF00052A3F5FC339A61022301
:10508000AB616420FEF7D4FC4FF48033AB61202386
:1050900083F31188052201212846FDF791FF43463D
:1050A00083F311880823B3614FF47A70FEF7C0FCD4
:1050B0000423B361FFF72CFD4FF44075FFF710FD9B
:1050C000013DFBD1FFF744FD636BA373BDE8F081A5
:1050D000426B818993B2994219D05A2B10D002DCCD
:1050E00043B1BDE8F081B42B04D0B3F5877F07D07E
:1050F000BDE8F0814FF4407363814FF4806304E0B6
:105100004FF4806363814FF440732381A281BDE833
:10511000F08100BF000002400004024000000000D7
:10512000B0B5044600AF41F601710020FCF7A8FDC0
:10513000254645F8140FFFF70BFF2846FFF7B8FC8C
:105140004FF4806323814FF440736381B423A381C0
:105150000323A3736423E37323740120B0BD000011
:1051600080B400AFBD4680BCFDF772BB00000000FC
:1051700080B500AF80BD000000000000000000000E
:10518000074A90B5114600AF013810F8013F2BB126
:1051900014882406FCD59BB28B80F6E790BD00BF37
:1051A0000038014000000000000000000000000086
:1051B00080B5024A024B00AFDA6080BD0400FA05F8
:1051C00000ED00E000000000000000000000000012
:1051D000064C0748EFF309832360FFF7D1FF054B27
:1051E000D4F800D0DA6A044ADA6000BF080C002064
:1051F000B08A000800ED00E00400FA05000000009D
:1052000080B500AF00F084F9BD46BDE8804000F0F5
:1052100037B900000000000000000000000000009E
:1052200080B500AF00F02CF9BD46BDE8804000F02D
:1052300047BB00000000000000000000000000006C
:10524000F0B587B00346134A02AF10681279B86010
:105250003A7307F11002134413F8084C0E4D06344C
:10526000642201238DE80C0039710026214628684C
:105270004823DB227E71FEF77BFE084B01961B68FC
:10528000DC22009321463B1D2868FEF799FF143766
:10529000BD46F0BDD0610008040C00200C0C0020BD
:1052A000F0B585B00346144A02AF106807F1080252
:1052B000786002EB430333F8044C104D063424B2FB
:1052C000282201238DE80C00397000262146286829
:1052D0001E2340F23A227E70FEF74AFE084B0196EA
:1052E0001B6840F23A22009321463B462868FEF7AD
:1052F00067FF0C37BD46F0BDD6610008040C0020E6
:10530000100C002000000000000000000000000061
:105310002DE9F04387B00346274A02AF52F80A0F3F
:10532000264D9288B860BA8107F1100202EB430360
:1053300033F8084C6426063424B24FF00108397162
:105340004FF00009214628688DE840014823DB2200
:1053500087F80590FEF70CFE214628688DE840018D
:105360004823DB22FEF704FE214628688DE8400131
:105370004823DB22FEF7FCFD214628688DE840012A
:105380004823DB22FEF7F4FD214628688DE8400122
:105390004823DB22FEF7ECFD094BCDF804901B6897
:1053A000DC22009321463B1D2868FEF709FF1437D5
:1053B000BD46BDE8F08300BFD0610008040C0020AA
:1053C0000C0C0020000000000000000000000000A5
:1053D00040F28F232DE9F04387B002AF3B8140F2CA
:1053E000DF234FF000097B8107F11003A7F80C9031
:1053F00003EB400030F8084C1F4D063424B26426FD
:105400004FF001083971286821468DE84001482392
:10541000DB2287F80590FEF7ABFD214628688DE872
:1054200040014823DB22FEF7A3FD214628688DE8D2
:1054300040014823DB22FEF79BFD214628688DE8CA
:1054400040014823DB22FEF793FD214628688DE8C2
:1054500040014823DB22FEF78BFD084BCDF804907A
:105460001B68DC22009321463B1D2868FEF7A8FE3E
:105470001437BD46BDE8F083040C00200C0C00205E
:10548000F0B585B000AF07F10C0207F10801381D37
:1054900000F076FAF868FBF7FBFC0646174C22236F
:1054A000174A082104F1140000F05AFE154D00239C
:1054B000A375134A3346042104F1100000F050FE96
:1054C0002B684BB94A230E4A042104F10C0000F06A
:1054D00047FE0D4B01221A602B68143746332B60B0
:1054E0002B68B3F5967F82BF064B00221A602223F9
:1054F00084E848004B23A360BD46F0BD180C002093
:10550000E88A0008140C0020780C0020000000003D
:1055100080B500AFFFF7B4FF024B012283F84020B3
:1055200080BD00BF180C002000000000000000003B
:1055300080B5084800AFFEF7A3FE074B1860074888
:10554000FEF79EFE064B1860BD46BDE88040FFF7A3
:10555000DFBF00BF086700080C0C0020CE66000803
:10556000100C0020000000000000000000000000FF
:105570002DE9F04786B0C14C02AF0322002120681C
:10558000FEF7EEFD01212068FEF78AFC012120686C
:10559000FEF786FC01212068FEF782FCDFF8188305
:1055A00004260025FA231A46FC2120680095FEF700
:1055B000EFFCFA231A4640F2F22120680095FEF72C
:1055C000E7FCAA234FF416724FF4FA712068009595
:1055D000FEF7DEFC0195D8F800305A220093AA218C
:1055E000A74B2068FEF7ECFD0195D8F800308C221F
:1055F00000934621A34B2068FEF7E2FD0195D8F801
:105600000030D22200934FF4A0719F4B2068FEF728
:10561000D7FD0195D8F800304FF4B472009364219F
:105620009A4B2068FEF7CCFD0195D8F800305A223D
:10563000009340F24E21964B2068FEF7C1FD019584
:10564000D8F800308C2200934FF42F71914B2068D2
:10565000FEF7B6FD0195D8F800304FF4B472009310
:105660004FF40C718C4B2068FEF7AAFD0195D8F819
:105670000030D222009340F22A31884B2068FEF796
:105680009FFD0195D8F800304FF4E17200934FF47C
:10569000C871834B2068FEF793FD0195D8F8003060
:1056A0004FF4FA7200934FF4DC717E4B2068FEF7E2
:1056B00087FD0195D8F800304FF4207200934FF425
:1056C000C871794B2068FEF77BFD0195D8F8003052
:1056D00040F23A2200934FF4FA71744B2068FEF7BF
:1056E0006FFD013EDFF8D0917FF45BAF704D304627
:1056F000297DFFF7A5FD697D0120FFF7A1FD297C2C
:105700003046FFF7CDFD697C0120FFF7C9FD07F1A9
:105710000C0207F10801381D00F032F9654BA8466C
:10572000D3F800A0BAF1020F09D108EB0603304606
:10573000197B0136FFF7ECFD032EF6D10AE0BAF132
:10574000010F07D1297B3046FFF742FE697B5046A7
:10575000FFF73EFED9F80030002500932068019540
:10576000474B5A22AA21FEF72BFDD9F800302068BA
:1057700000930195434B8C224621FEF721FDD9F879
:1057800000302068009301953F4BD2224FF4A07166
:10579000FEF716FDD9F800302068009301953B4BC9
:1057A0004FF4B4726421FEF70BFDD9F80030206885
:1057B00000930195364B5A2240F24E21FEF700FD30
:1057C000D9F80030206800930195324B8C224FF4B9
:1057D0002F71FEF7F5FCD9F8003020680093019591
:1057E0002D4B4FF4B4724FF40C71FEF7E9FCD9F86D
:1057F0000030206800930195284BD22240F22A31D4
:10580000FEF7DEFCD9F80030206800930195244BA8
:105810004FF4E1724FF4C871FEF7D2FCD9F80030B2
:105820002068009301951F4B4FF4FA724FF4DC711E
:10583000FEF7C6FCD9F800302068009301951A4B9A
:105840004FF420724FF4C871FEF7BAFCD9F800305B
:10585000206800930195154B40F23A224FF4FA71FB
:10586000FEF7AEFC2A4629462068FEF779FC103781
:1058700088F84050BD46BDE8F08700BF040C00200A
:10588000EF8A0008F48A00080C8B0008008B0008DF
:10589000108B00081B8B0008208B00082C8B000845
:1058A000308B0008398B00083E8B0008478B0008BE
:1058B000180C0020780C0020100C002000000000C4
:1058C0002DE9F04385B0294BDFF8AC8040225A83A4
:1058D00098F8404000AF454614B1FFF749FE41E05B
:1058E000234E032221463068FEF73AFC98F8141044
:1058F0002046FFF7A5FC98F815100120FFF7A0FC43
:1059000098F810102046FFF7CBFC98F811100120F2
:10591000FFF7C6FC07F10C0207F10801381D00F083
:105920002FF8144BD3F80090B9F1020F08D12B19BE
:105930002046197B0134FFF7EBFC032CF7D10CE078
:10594000B9F1010F09D198F80C102046FFF740FD7E
:1059500098F80D104846FFF73BFD002211463068CD
:10596000FEF7FEFB1437BD46BDE8F083000402409D
:10597000040C0020780C0020180C0020000000000F
:10598000064B80B51B6800AF0360054B01201B6808
:105990000B60044B1B68136080BD00BFC00C00206F
:1059A000D00C0020BC0C0020000000000000000013
:1059B000F0B585B000AF48B9114B302118681437E5
:1059C00003689B68BD46BDE8F04018473C463D462D
:1059D0000A22B0FBF2F302FB1300303004F8010B93
:1059E0001846002BF5D1064EAC4206D9306814F8A3
:1059F000011D03689B689847F6E71437BD46F0BD64
:105A0000800C0020000000000000000000000000EA
:105A1000B0B5064D00AF441E14F8011F21B128682F
:105A200003689B689847F7E7B0BD00BF800C002073
:105A300080B500AFFFF7ECFF044B05491868022260
:105A400003681B68BD46BDE880401847800C0020F5
:105A5000DA8A0008000000000000000000000000DA
:105A60006D4B2DE9F04318606C486D4E046800AF33
:105A70003834046005683468D3F800C02D1B694CC5
:105A8000D4F800E0F44517DADFF8BCE14FF0050C7C
:105A9000DEF800E09EFBFCFE0EEB4E0E75450BDDC6
:105AA000DFF89CE1D3F80080DEF800C0E045BCBF21
:105AB000D3F800C0CEF800C0D3F80080D4F800E0DE
:105AC000DFF854C1F0450BDDDFF878E1DCF8009039
:105AD000DEF80080C145C4BFDCF800C0CEF800C0CD
