:020000040800F2
:100000000004002041010008810500088105000866
:1000100081050008810500088105000881050008A8
:10002000810500088105000881050008A104000879
:100030008105000881050008810500088105000888
:100040008105000881050008810500088105000878
:100050008105000881050008810500088105000868
:100060008105000881050008810500087104000869
:100070004104000811040008E1030008B10300086E
:100080008103000851030008C10D00088105000824
:100090008105000881050008810500088105000828
:1000A0008105000881050008810500088105000818
:1000B000B1020008810500088105000881050008DB
:1000C00081050008810500088105000881050008F8
:1000D00081050008010C0008810500088105000861
:1000E00081050008810500088105000881050008D8
:1000F00081050008810500088105000881050008C8
:1001000081050008810500088105000881050008B7
:1001100081050008810500088105000881050008A7
:100120008105000881050008810500088105000897
:100130008105000881050008810500088105000887
:1001400072B6234880F30988022080F31488BFF335
:100150006F8F00F075FF00F06BFA4FF055301D49BE
:100160001D4A91423CBF41F8040BFAE71B49184A6B
:1001700091423CBF41F8040BFAE71949194A1A4B5E
:100180009A423EBF51F8040B42F8040BF8E70020F6
:100190001649174A91423CBF41F8040BFAE700F0B8
:1001A00007FF00F045FF134C134DAC4203DA54F83F
:1001B000041B8847F9E701F03BFA104C104DAC42A4
:1001C00003DA54F8041B8847F9E700F029BF000060
:1001D000000800200000002000040020000400208F
:1001E000A02000080008002018080020180800209F
:1001F000680D00204001000840010008400100088F
:1002000040010008000000000000000000000000A5
:100210002DE9F04FC1F80CD0C3689D46BDE8F08FC2
:10022000002383F311882846A047002000F098FEA1
:1002300000F0C6FA00DFFEE700000000000000004A
:10024000024AD36843F08003D3607047003801400E
:10025000202383F311880F4B5B6813F4006302D1F2
:1002600083F311887047EFF309834FF0807243F8EE
:10027000042CA3F1200282F30988074A11689269CD
:100280008968926891428CBF044A054A43F8082C59
:10029000704700BF00ED00E0180C0020310200089C
:1002A0003402000800000000000000000000000010
:1002B0002DE9F0414FF0804423699B0703D4BDE84A
:1002C000F041FFF7C5BF00272761202585F311887E
:1002D0001E4E626AB6F826E0F36990B2CEEB0001DA
:1002E0001A8989B2914206F11C081BD3196872441D
:1002F0004145F284DA68C1F80480F161DF6008BF2B
:10030000E76087F311881869904785F31188626A5E
:10031000B6F826E0F36990B2CEEB00011A8989B2F3
:100320008A42E3D943450AD07244121A92B2012A92
:1003300098BF0222024492B24FF080435A630023D6
:1003400083F31188BDE8F041FFF782BF180C00204D
:10035000094B1968C1F3036159B1084810B5046B22
:100360000A065A600CB1406BA047BDE81040FFF789
:100370006FBFFFF76DBF00BF006002407008002034
:10038000094B1968C1F3035159B1084810B5846A83
:100390000A055A600CB1C06AA047BDE81040FFF7DB
:1003A00057BFFFF755BF00BF006002407008002034
:1003B000094B1968C1F3034159B1084810B5046AE3
:1003C0000A045A600CB1406AA047BDE81040FFF72C
:1003D0003FBFFFF73DBF00BF006002407008002034
:1003E000094B1968C1F3033159B1084810B5846944
:1003F0000A035A600CB1C069A047BDE81040FFF77E
:1004000027BFFFF725BF00BF006002407008002033
:10041000094B1968C1F3032159B1084810B50469A3
:100420000A025A600CB14069A047BDE81040FFF7CE
:100430000FBFFFF70DBF00BF006002407008002033
:10044000094B1968C1F3031159B1084810B5846804
:100450000A015A600CB1C068A047BDE81040FFF720
:10046000F7BEFFF7F5BE00BF006002407008002035
:1004700008B5074B196811F00F0105D0054A5960FE
:1004800013680BB150689847BDE80840FFF7E0BE1D
:100490000060024070080020000000000000000022
:1004A000EFF30983203383F30988002383F3118852
:1004B000704700BF000000000000000000000000C6
:1004C00010B4202383F31188094C0A4B2268196861
:1004D000C31D23F00703891A8B429DBF9B1823601D
:1004E00010460020002383F3118810BC704700BF22
:1004F0006C08002018080020000000000000000028
:1005000010B4202383F31188037F072B0ED8DFE874
:1005100003F0260D0D2208040D08026A93680133CA
:10052000936090E80C001A60026853604FF0FF344B
:10053000002281680C4B046202771B689A688A4229
:10054000FBD25A680021036042601060586081F35A
:10055000118810BC7047036A00221A60E6E7002386
:1005600083F3118810BC7047180C002000000000B5
:10057000FEE700BF000000000000000000000000D7
:10058000FEE700BF000000000000000000000000C7
:1005900070B5017889B10446094D286803689B68E5
:1005A000984714F8011F0029F7D128680222036830
:1005B00004491B68BDE870401847014DF5E700BFCE
:1005C00064080020101E0008000000000000000069
:1005D00010B370B584B06D466C46124AA2FB00138E
:1005E000DB0803EB8301A0EB410000F13001C9B24D
:1005F00004F8011B1846002BF0D1AC420AD90A4E70
:10060000013C01E014F8011D306803689B689847BD
:10061000AC42F7D104B070BD034B302118680368B9
:100620009B681847CDCCCCCC6408002000000000AB
:100630003B4B4FF080523B495A624B68394ADB06CC
:10064000FBD411464FF4006313604B6813F01003A2
:10065000FBD1334A4FF4807011469360536823F402
:10066000604343F42043536010600B682C4A9805A4
:10067000FBD51146136843F0010313600B68284A49
:100680009B07FBD51146536B43F0010353634B6B40
:10069000234A9807FBD5536BDB050CD4214B196813
:1006A00041F480711960516B41F4807151631A6893
:1006B00022F480721A601A494B6B194A9805FBD5CF
:1006C0001146936843F408039360136843F0807302
:1006D00013600B68124A9B01FBD51146136830B4B6
:1006E0001360936810489360536B042543F4803380
:1006F0000724536305600460936843F00303936029
:100700008B68074A03F00C030C2BF9D1136A30BC39
:1007100043F001031362D36A43F00103D3627047CD
:100720000038024000700040003C02400000000021
:100730000E4B0F495A688368096FD31AC26830B4E8
:10074000D0E904455B1A01324168E418C2600268CE
:1007500045F100058B4288BF43609342C0E90445E0
:1007600030BC836038BF0360704700BF001000E0FA
:10077000180C002000000000000000000000000035
:100780000D4A30B410689469036801215A6000254D
:100790000177A16813609061257700E01B689A6873
:1007A0008A42FBD85A6821462360626014605C600C
:1007B00030BCFFF72DBD00BF180C0020000000006A
:1007C000FFF7DEBF00000000000000000000000096
:1007D000074B30B499691A6808771468012563607B
:1007E00015771C60104630BC9A61FFF711BD00BF41
:1007F000180C0020000000000000000000000000B5
:100800004FF6FF732DE9F041994286B051D0484C24
:100810004FF08047254655F81C2F7B6A0129064674
:10082000DFF810E1A06998BF0221AA4205909BB2AF
:10083000CDF810E064D01944E38C89B21089CB1A4A
:100840009BB2834238BF7963834205D912681B1A71
:1008500010899BB29842F9D34FF6FF7051680DF1A1
:10086000040802910192C1F80080C2F80480ADF83A
:100870000C301189CB1A1381A0843046FFF7A8FFF2
:10088000049B8BB1E3692A4A43451AD0029A019B23
:1008900000211360019BAB425A60049104D0198976
:1008A000BDF80C200A441A81A369186A06B0BDE895
:1008B000F081FFF78DFF1E4CA369186A06B0BDE8F2
:1008C000F08101990023A942D1614D6004932AD09F
:1008D0004FF08040456AD28C0E89BDF80C30ADB225
:1008E000AA1A33449BB292B293420B81DCD99A1A72
:1008F00093B2012B98BF02232B449BB24363D3E7EF
:100900005A18E3840DF1040892B2002002230195E5
:100910000295ADF80C10C4F81C80C4F820807A63EE
:100920003861FB60A9E74FF08042D360BCE700BFAD
:10093000180C002001050008000000000000000065
:1009400061B10246074B10B49B694468042083E8F8
:1009500014002360536010BCFFF752BF4FF0FF300C
:10096000704700BF180C00200000000000000000CD
:100970002DE9F04F83B004460D4616460193D0F89A
:100980001C804FF0200989F311880027BA46A3681C
:1009900005F1010B03B36169A368481C013B606169
:1009A000A3602B780B7023696169994224BFE368C7
:1009B0006361B8F1000F01D02046C0478AF3118867
:1009C000013E07F1010711D089F311885D46A36844
:1009D00005F1010B002BDED1019920460093FFF7B2
:1009E000AFFF009B0028D2D083F31188384603B0B4
:1009F000BDE8F08F000000000000000000000000D3
:100A00003030FFF7B5BF00BF00000000000000005D
:100A100030304FF6FF73FFF7ABBF00BF00000000A0
:100A2000F8B504460F461646202383F3118805E0E7
:100A300031462046FFF784FF002817DBA568002D0C
:100A4000F6D06269A368511C013B6161A360177015
:100A5000236962699A4224BFE3686361E3690BB169
:100A600020469847002080F31188F8BD85F311884F
:100A7000F8BD00BF00000000000000000000000002
:100A80003030FFF7CDBF00BF0000000000000000C5
:100A900030304FF6FF72FFF7C3BF00BF0000000009
:100AA0002DE9F04F044683B0894693461D46D0F8A1
:100AB0001C80202787F311880026B2460197B8F1E1
:100AC000000F07D02046C04704E029462046FFF724
:100AD00037FFD0B9A768002FF7D0A269A368511CCF
:100AE000013BA161A360137809F8013B2369A26966
:100AF0009A4224BFE368A3618AF311880136B345A3
:100B000005D0019B83F31188D9E787F3118830461C
:100B100003B0BDE8F08F00BF00000000000000003F
:100B20000C30FFF7BDBF00BF000000000000000058
:100B30000C304FF6FF73FFF7B3BF00BF000000009B
:100B400070B520230E46044683F31188C3693BB178
:100B5000984705E031462046FFF7F2FE002813DBF8
:100B6000A568002DF6D0A169A36825694A1C013B40
:100B7000AA42A36028BFE368A261087828BFA361E6
:100B8000002383F3118870BD85F3118870BD00BF09
:100B90000C30FFF7D5BF00BF0000000000000000D0
:100BA0000C304FF6FF71FFF7CBBF00BF0000000015
:100BB00008B50146202383F311880820FFF720FEA3
:100BC000002383F3118808BD00000000000000002E
:100BD00010B4044600228168064B02771B689A68AD
:100BE0008A42FBD25A6820462360626014605C60CF
:100BF00010BC7047180C002000000000000000002E
:100C00002DE9F0476B4D82B06E6FD6F80CA03368BB
:100C1000DA059CB200F18280202383F3118814F05E
:100C20002F0F49D0634F4FF0000907F10C0807E080
:100C3000A10673681CD43468A4B214F02F0F3BD003
:100C40002307F5D014F0080F0CBF00208020E10727
:100C500048BF40F02000A20748BF40F040006307B3
:100C600048BF40F4807001F033F8A1067368E2D504
:100C70006A69002A42D0296A6A6A914247D06A6941
:100C8000481C01326A6128620B702A6AEB699A4239
:100C900001D3BB693B62EB684345CCD01A68184668
:100CA000FA60C2F80480C3F82090FFF791FF34681F
:100CB000A4B214F02F0FC3D1002383F311881AF0CC
:100CC000800F01D0220637D4630612D5202383F388
:100CD00011886A6CAB6C37499A4256D04FF6BF7395
:100CE0006FF040020AEA0303F3600023326083F3EB
:100CF000118802B0BDE8F047FFF7AABA04200193BB
:100D000000F0E6FF296A6A6A019B9142B7D17A69CD
:100D1000002AB4D0802000F0DBFF8CE7202383F38F
:100D200011884FF4007000F0D3FF6FF480733360CC
:100D3000002383F311886FE7202383F31188AB6CC2
:100D40006A6C1C499A4227D0AA6B286C591C013244
:100D5000AA63A96481421F78164B01D3DA6B9A64A7
:100D600014492B6B01F13002934209D018684FF0FF
:100D7000000E086342601846C3F820E0FFF728FF22
:100D80007760002383F311889EE78B6B002BA5D03F
:100D9000102000F09DFFA1E78A6B002AD4D0082024
:100DA00000F096FF4FF63F730AEA030343F0400357
:100DB000F360E6E7A00B0020000000000000000048
:100DC0001F4B002219681A608B0637D570B51D4C71
:100DD000E36A5968486800282CD0256955B308682B
:100DE000AD6820F00F000860187C1E680F21A36A10
:100DF00001FA00F0012170605A609A60996045B173
:100E0000052323702046A8472378052B04BF02231F
:100E10002370002323610B49202282F3118860692B
:100E200028B14FF0FF3202624B61FFF7D1FE002381
:100E300083F31188BDE87040FFF70ABAFFF708BADC
:100E400000240140A808002000000000000000006D
:100E50002DE9F0410E0704462ED5C36A056959688D
:100E6000AD680A681F6822F00F020A60197C0F2221
:100E7000836A8A40012600217A60596099609E60E9
:100E80003DB105230370A8472378052B04BF022337
:100E9000237000222261202383F31188636933B118
:100EA0004FF0FF31626118461962FFF791FE00238F
:100EB00083F31188BDE8F0810369ABB18D0711D5CB
:100EC0001A78E2B15D687DB1C268012A43D95B88B6
:100ED000520802FB03F3816801EB43012B46BDE896
:100EE000F04118474A0701D4BDE8F0815B68002B48
:100EF000FAD0BDE8F041C268816852081847C16A5B
:100F00005D684E680F68336823F00F0333600E7C12
:100F1000836A0F21B140012679605A609A609E6011
:100F2000A5B104230370C2688168A8472378042B05
:100F30000CD0202383F311886369002BB7D00022E3
:100F4000626118461A62FFF743FEB0E702220023EF
:100F500022702361EDE72B46BDE8F0418168184718
:100F600038B52022034682F311880E4A9469606ADC
:100F700004F124058542236206D003686362FFF70B
:100F800027FE606AA842F8D1637F9B0704D12269DB
:100F900063691A61226953610F20BDE83840FFF789
:100FA00017BC00BF180C002000000000000000006B
:100FB000F0B5134F134D144C144B154907F1700E37
:100FC00000269C4211D91A46043951F8040F42F800
:100FD000040B9442F9D8DA43144424F00304043493
:100FE00023449D4203D943F8046B9D42FBD87745C7
:100FF00005D039697B69BC69FD691037E1E7F0BD4F
:10100000201E0008680D0020680D0020680D0020DB
:10101000B8200008000000000000000000000000F0
:10102000FEE700BF0000000000000000000000001C
:10103000704700BF0000000000000000000000003A
:10104000704700BF0000000000000000000000002A
:1010500080252E4608B5084B084A9B69084C9A61C2
:1010600026834FF47A70FFF7A3FD65834FF47A70FF
:10107000FFF79EFDF4E700BF180C0020901F00084A
:10108000000402400000000000000000000000001A
:101090002DE98048794F7A4DBB697A4ADFF80CA276
:1010A0008BB09A6105F1180605F114094FF08043E1
:1010B0005B6A10249BB20093202383F311882A6A71
:1010C000D7F81880002A00F00682D8F80800936844
:1010D000834210D2137F9060062B00F0DB81072B38
:1010E00000F0BF813BB91368516810460B6013686C
:1010F0005960FFF76DFD644B04E09968D8F808204B
:10110000914202D31B68B342F7D15A680620C8F84F
:101110000030C8F80420C2F80080C3F80480C8F882
:101120002060FFF755FB4FF0000888F311884FF05F
:10113000200B8BF3118840F2133EEB6A53485A6838
:10114000296B2861102302A8EB60A860D0600320FF
:101150005360287011601168AB6A41F001011160A1
:101160000221BA69C3F80080C3F80C80C3F810806C
:1011700059610121C3F83080C3F83480C3F8388046
:10118000C3F83C801964424959604249C3F808E0F9
:101190009960C2F820906A61FFF71AFB88F3118802
:1011A000B8698BF31188D5F818E06B6AB64583638C
:1011B00000F08D81C16B4BB11A68934203D09268E5
:1011C000914238BF1146DB68002BF5D1DEF80030C4
:1011D000DEF838208160AB6170465E60CEF8386022
:1011E0006A62C5F820E0FFF7F3FC3A68BB699268D1
:1011F0009B689A4201D9FFF7C3FA002383F3118851
:10120000013CBDF808B07FF457AF234B09201C68A0
:101210004FF47A7304FB03335C1E204BA3FB0434AE
:101220001F4BA409CAF80030FFF7C2FC20461D4C32
:10123000FFF7CEF92D21DAF8000003689B68984784
:1012400014F8011F0029F6D1174B1868FFF7C0F9F1
:101250000BEB8B030BEB43039B120B2B2BD8DFE821
:1012600013F0E000E400DC00F400F000EC00E80023
:10127000FC00F800D800D400270000BF180C0020A4
:10128000A8080020901F0008C0080020A01E000829
:10129000000100051303004020080020D34D621018
:1012A000A00B00206C2000086008002064080020CB
:1012B0008D48FFF76DF98D4B8D4AC3F800B08C4B0C
:1012C0008A491B680A33136014688A4B8A4A1B6870
:1012D00008681268E31A904212DA884A884C10684B
:1012E000C21784FB0040C2EB600202EB4202934251
:1012F00006DD844A0C6810688442BCBF096811602E
:101300007A4A7A4811687C4A1268914207DD7E4A1F
:10131000016812687C4C9142C4BF026822607B4A1B
:10132000FA2B136040F31A81704A1168724A1268EE
:10133000914240F31381764A754C127802F0FF0017
:10134000002A40F00B816D4ADFF8B4E11168CA173A
:101350008EFB01E1C2EB610202EB4202934267495C
:1013600040F3FC8001232370624A614B1B681468C0
:10137000684A1B1B0B605E4B5E491B680B60137851
:101380004BB1034610705D4A6349126841F823204F
:1013900001330A2BF7D1614B604A1B7823B100213E
:1013A00011705C4A01231370002213465A48591CDD
:1013B00050F82100DFF860E109294EF823005EF8BB
:1013C00023000B460244F1D14EF660214B4B4C48B2
:1013D0001B68CEF82430DEF82430134480FB03026F
:1013E000DB17C3EBA20391FBF3F34D4A13601368C1
:1013F00001934C4B019A1A604FF080435B6A009A4C
:101400009BB29B1A484A136050E64848FFF7C0F861
:1014100051E74748FFF7BCF84DE74648FFF7B8F8F3
:1014200049E74548FFF7B4F845E74448FFF7B0F807
:1014300041E74348FFF7ACF83DE74248FFF7A8F81B
:1014400039E74148FFF7A4F835E74048FFF7A0F82F
:1014500031E73F48FFF79CF82DE73E48FFF798F843
:1014600029E75168136896460B6013685960116A42
:101470000B4602E09A68824202D31B689942F9D176
:101480005968CEF80030CEF80410C1F800E0C3F877
:1014900004E030E6136851680B6013685960D2F8B5
:1014A00020E0734602E09968814202D31B689E45A2
:1014B000F9D15968136051600A605A60DEF808205B
:1014C000D8F80800936898423FF604AE13E6224B22
:1014D000C3F8208091E6D8F838301F4AC8F8386041
:1014E000C2F8208053621EE64820000858080020F9
:1014F000DC080020500800200C0800200408002010
:10150000676666660008002014080020E4080020D2
:1015100068080020300A002024080020100800205D
:10152000E008002060080020200800202420000897
:101530000420000868200008A41F000820200008DC
:10154000BC1F0008A81F0008981F0008F81F00080B
:10155000E81F0008D01F0008A8080020254A2648D8
:101560001168254A1268914228DA244A23491278E0
:1015700022B300220A70224C224A4FF0020C126859
:10158000D4F800E0204CCEEB0202226022681C4C12
:1015900002EBD272D4F800E01C4C0EEB6202026047
:1015A0000268C4F800C0174C22600268144C226024
:1015B00000680A781649086016490A6040F6C412A5
:1015C00093427FF716AF0C4A4FF4327313600D4A03
:1015D000114913600A4A1360104B1A6801230A600C
:1015E0000F4900220B700F4903230A70074A13604A
:1015F000FFE600BF580800200C0800206808002003
:1016000000080020140800200808002054080020CA
:101610001C0800204C08002050080020DC08002096
:1016200010080020300A0020000000000000000028
:10163000254B002219692DE9804861F400411961A8
:101640001A6199694FF0FF3461F0805199619A6194
:1016500059695C615A615A6A1C4842F080525A6268
:1016600002688BB042F4807202605A6B02F440321E
:10167000B2F5803F07D05A6B42F400025A635A6BAE
:1016800022F400025A63104B19465A6B42F48072DE
:101690005A634A6B0C4B9005FBD55A6B510207D429
:1016A0005A6B42F480325A635A6B42F480025A6396
:1016B000DFF824A000210B460D46054A0548DFF857
:1016C0001CB0CAF800100DE0003802400070004065
:1016D000F81E0008086002405C0800207008002026
:1016E00052F8140C05604BF833500133072B02F10C
:1016F00014024FF00004F3D14FF6FF714FF2F036B1
:101700004FF63F78C64D42F28A522B46DFF850E33F
:10171000C44F4FF0FF30CEF80400D7F81C9047F6C6
:10172000FF4049F03F09C7F81C90D7F82890AEF564
:10173000C04E49F03F09C7F82890D7F828904FF6D7
:10174000FF0C49F03F09C7F828904FF07C49CEF8CC
:101750000440CEF80890DFF80C93CEF80C904FF0D0
:101760002849CEF81410CEF82040CEF82440CEF808
:101770000090DFF8F492CEF80444CEF80864CEF876
:101780000C94A94ECEF81484DFF8E0924FF4A548EB
:10179000CEF82044CEF82444CEF800844FF07048B0
:1017A0007460C6F80880C6F80C9008F1A048716112
:1017B0003462746234604FF0553608F50438DFF84F
:1017C000B092CEF8044CCEF8084CCEF80C6CCEF8A3
:1017D000141CCEF8204CCEF8244CCEF8004CDFF888
:1017E00094E2C8F80440C8F80840C8F80C60C8F88B
:1017F00014108E4EC8F82040C8F82440C8F80040A5
:101800004FF00F08C9F80440C9F80880C9F80CE087
:10181000C9F81410C9F82040C9F82440C9F800409C
:10182000A9F57049C6F82890DFF84C92DFF84C8291
:101830003263C6F82C900122DFF844E24FF06009D1
:1018400032707460B460F46034617461346288F83A
:1018500012934FF48029C8F88091C8F8009006F1DF
:10186000180943F804EB4FF0100EC6F81890C6F8AC
:101870001C906B606C61C5F838E07B6ADFF80492FD
:1018800013437B62D9F808302A721343AC62ED62CD
:101890002D65C9F808304FF080439862DFF8E89171
:1018A000D96263499C61C5F84C905C636967DC60F0
:1018B0005C605A611A6005F174032B6405F10C0336
:1018C000EB602B6105F15403AB616B622B6205F198
:1018D0006403EB61EB63AB646B6405F13003554962
:1018E00003922B636B63802388F81C334FF0805383
:1018F000C8F88031C8F800308C60D1F80C904E4B9D
:1019000009EA0C0C4CEA0303DFF880C1CB60DCF879
:101910000C30DFF87C9143F08073CCF80C30D9F8B0
:1019200000C0464B4CEA020CC9F800C04FF0200939
:1019300081F81FE04FF0FF3281F8229003F11C0183
:10194000D96119620DEB0E0004929A849C6000220A
:10195000DC841C6702931B605B601B615B6100237E
:10196000CDE9082305940694079400F0A9F904A88A
:10197000FEF7DEFE324BDFF81CC1324803F1100ED9
:101980002CF00703019320F0070C029B0698AEF1A0
:101990001001C1F810E0C1F814E0039A18678C60D8
:1019A0005869CC602849CEF808404FF0400E1864C2
:1019B000C3F834E0C3F868E083F849405C661C660D
:1019C00083F84A205C64DB63016103F150005961D4
:1019D000996118651A491D48DFF8BCE0086003F1F9
:1019E00054011B4859659965019983F84820CEF840
:1019F0000010C0F800C084F3118862B6154C9969D4
:101A000003F178008C61144BD82100F001F9134BDD
:101A1000836189F311882B7A012B00F082803DE0ED
:101A2000A00B00200038024000080240A808002057
:101A30000038014000ED00E00003FA05180C00201A
:101A4000800B002000400020440C0020C10400084E
:101A500018080020701F0008710500087020000899
:101A600000600240685555650505555555555505A5
:101A70000014024050555555E01E000800E100E0FA
:101A800080200008002004E041020008F0ED00E0A2
:101A9000001000E06F0D00206C08002040F2413281
:101AA0006B6F44F240009A6042F22C120121002434
:101AB00018615961DA601C60022219685B682A7239
:101AC00084F311884FF4007000F03AF94FF480600D
:101AD00000F036F9202383F3118832787460012AEC
:101AE000414C2AD002233370002383F311883F4BEB
:101AF00041224FF4A4713E4800F08AF840253D4B46
:101B000041224FF4A4713C4800F082F82E463B4C31
:101B10002683C820FFF74CF86583C820FFF748F8F4
:101B2000F6E73B6AC02243F480433B6288F82523F2
:101B3000C8F88491C8F80490B0E7E36ADAF80010B6
:101B4000587C82400A424CD10BEBC0022C4D5460B1
:101B50004A064BF8305004D12A48C26942F08072DC
:101B6000C2615A681D6814680F2024F00F041460C5
:101B70001F7C9C68B840686021424FF000001060F4
:101B800016D1987C01244209920000F1604502F1CF
:101B9000604200F01F0002F5614204FA00F0602785
:101BA00005F5614585F80073C2F8800110605A6838
:101BB000587C012383401943CAF80010124B114985
:101BC00093600B6A114843F400730B624268B36A76
:101BD000002102F4000201244260596099609C6077
:101BE00080E75A68EAE700BFA808002091100008C3
:101BF000E808002051100008380A002000040240C4
:101C0000510E0008003802405824014000270140CE
:101C1000F8B50446202080F31188244D2439244E41
:101C20006F696018E0604FF0020E63500662002199
:101C3000AE6901234160A260A3776761617784F890
:101C40001CE02561E263A1636163A1613C612162E3
:101C5000B06804F1280304F124078242A362E3621E
:101C60006C6167622B460ED821771B6899688A429F
:101C7000FBD95A682360626014605C60002383F3C0
:101C800011882046F8BD31771B689A689042FBD9CD
:101C90005A680127336072603146166020465E60E4
:101CA0002777AC61FEF7B4FAE8E700BF180C002014
:101CB00021020008000000000000000000000000F9
:101CC000014B5B6883607047001000E0000000007B
:101CD000F8B5174F57F8044FBC4220D005460026F0
:101CE00002E02468BC421AD0E3682B43E36015B1DC
:101CF00022691342F5D06068A168436B027F0B43F1
:101D00000A2A43630CD00B2AEBD1026A32EA03039E
:101D1000E7D10662FEF75CFF2468BC42E4D1F8BD5F
:101D2000026A1342DDD00662FEF752FFF4E700BFFD
:101D3000A00B0020000000000000000000000000D8
:101D40002DE9F0432F4B002402254FF0070C4FF0F4
:101D50000F0E0127032609E0196A21EA020242EA6E
:101D600008021A62400833D0AD000134C207F9D529
:101D7000610006FA01F1C9435A6807FA04F822EA39
:101D800008025A60D3F8088004F0070208EA010844
:101D9000C3F80880D3F80C80920001EA0808022DED
:101DA000C3F80C800CFA02F80EFA02F212D0D3F843
:101DB0000090072C01EA090141EA05011960CBD91D
:101DC000596A400821EA020242EA08025A62CBD16B
:101DD000BDE8F083072C0CD8D3F8209029EA020242
:101DE00042EA08021A621A68114041F002011960C1
:101DF000B8E7D3F8249029EA020242EA08025A62BC
:101E0000F1E700BF000002400000000000000000F9
:101E10000D0A0000000000000000000000000000AB
:101E2000B8200008680D0020680D0020680D002013
:101E3000B8200008000000000000000000000000C2
:101E4000B8200008000000000000000000000000B2
:101E5000B8200008000000000000000000000000A2
:101E6000B820000800000000000000000000000092
:101E7000B820000800000000000000000000000082
:101E8000B820000800000000000000000000000072
:101E9000B820000800000000000000000000000062
:101EA0000000010000000000000000000000000130
:101EB00010000040000000000000000002000000D0
:101EC0000000000000000000000000000000000012
:101ED0000100000000000000000000000000000001
:101EE00000600240086002400100000000000000A5
:101EF00000000B00006002401C6002400200000075
:101F00000000000004010C0000600240306002404C
:101F1000040000000000000008020D000060024004
:101F20004460024008000000000000000C030E00A6
:101F300000600240586002401000000000000000F5
:101F400010040F00006002406C600240200000009E
:101F50000000000014051000006002408060024094
:101F60004000000000000000180611000000000002
:101F70006D61696E00164318040244080C101418B1
:101F8000001C1D1E000000000000000000000000FA
:101F9000626C696E6B6572002D2D2D2D2D2D2D2DF2
:101FA0002D2D2D2D000000002D2D2D2D2D2D2D2D15
:101FB0002D2D2D2D2D2D7C2D000000002D2D2D2DB6
:101FC0002D2D2D2D2D2D2D2D2D2D7C2D2D2D00004C
:101FD0002D2D2D2D2D2D2D2D2D2D2D2D2D2D7C2DE2
:101FE0002D2D2D2D2D2D00002D2D2D2D2D2D2D2D7B
:101FF0002D2D2D2D2D2D7C2D2D2D2D2D2D2D2D2DC2
:102000002D0000002D2D2D2D2D2D2D2D2D2D2D2D87
:102010002D2D7C2D2D2D2D2D2D2D2D2D2D2D2D2DA1
:102020002D2D2D002D2D2D2D2D2D2D2D2D2D2D2D0D
:102030002D2D7C2D2D2D2D2D2D2D2D2D2D2D2D2D81
:102040002D2D2D2D2D2D00002D2D2D2D2D2D2D2D1A
:102050002D2D2D2D2D2D7C2D2D2D2D2D2D2D2D2D61
:102060002D2D2D2D2D2D2D2D2D2D2D2D2D2D0000FA
:1020700069646C65000000000000000000000000C2
:10208000110A0008310B0008910A0008A10B000892
:10209000810A0008910B0008010A0008210B0008C2
:1020A000C80200005802000064000000D5020000D1
:0820B00001000000C80200005D
:0400000508000141AD
:00000001FF
