:020000040800F2
:100000000004002041010008D1050008D1050008C6
:10001000D1050008D1050008D1050008D105000868
:10002000D1050008D1050008D1050008F104000839
:10003000D1050008D1050008D1050008D105000848
:10004000D1050008D1050008D1050008D105000838
:10005000D1050008D1050008D1050008D105000828
:10006000D1050008D1050008D1050008C104000829
:10007000910400086104000831040008010400082C
:10008000D1030008A103000821130008D1050008CE
:10009000D1050008D1050008D1050008D1050008E8
:1000A000D1050008D1050008D1050008D1050008D8
:1000B00001030008D1050008D1050008D10500089A
:1000C000D1050008D1050008D1050008D1050008B8
:1000D000D105000861110008D1050008D10500080C
:1000E000D1050008D1050008D1050008D105000898
:1000F000D1050008D1050008D1050008D105000888
:10010000D1050008D1050008D1050008D105000877
:10011000D1050008D1050008D1050008D105000867
:10012000D1050008D1050008D1050008D105000857
:10013000D1050008D1050008D1050008D105000847
:1001400072B6234880F30988022080F31488BFF335
:100150006F8F01F025FA00F04BFF4FF055301D492D
:100160001D4A91423CBF41F8040BFAE71B49184A6B
:1001700091423CBF41F8040BFAE71949194A1A4B5E
:100180009A423EBF51F8040B42F8040BF8E70020F6
:100190001649174A91423CBF41F8040BFAE701F0B7
:1001A000B7F901F0F5F9134C134DAC4203DA54F8EA
:1001B000041B8847F9E700F003FC104C104DAC42DB
:1001C00003DA54F8041B8847F9E701F0D9B90000B5
:1001D000000800200000002000040020000400208F
:1001E000581800080008002000080020000800201F
:1001F000600A00204001000840010008400100089A
:1002000040010008000000000000000000000000A5
:100210002DE9F04FC1F80CD0C3689D46BDE8F08FC2
:10022000002383F311882846A047002001F048F9F5
:1002300000F05EFF00DFFEE70000000000000000AD
:10024000FEE700BF0000000000000000000000000A
:1002500010B4202383F31188094C0A4B22681968D3
:10026000C31D23F00703891A8B429DBF9B1823608F
:1002700010460020002383F3118810BC704700BF94
:10028000C4090020BC09002000000000000000009C
:10029000024AD36843F08003D360704700380140BE
:1002A000202383F311880F4B5B6813F4006302D1A2
:1002B00083F311887047EFF309834FF0807243F89E
:1002C000042CA3F1200282F30988074A116892697D
:1002D0008968926891428CBF044A054A43F8082C09
:1002E000704700BF00ED00E0000800203102000868
:1002F00034020008000000000000000000000000C0
:100300002DE9F0414FF0804423699B0703D4BDE8F9
:10031000F041FFF7C5BF00272761202585F311882D
:100320001E4E626AB6F826E0F36990B2CEEB000189
:100330001A8989B2914206F11C081BD319687244CC
:100340004145F284DA68C1F80480F161DF6008BFDA
:10035000E76087F311881869904785F31188626A0E
:10036000B6F826E0F36990B2CEEB00011A8989B2A3
:100370008A42E3D943450AD07244121A92B2012A42
:1003800098BF0222024492B24FF080435A63002386
:1003900083F31188BDE8F041FFF782BF0008002019
:1003A000094B1968C1F3036159B1084810B5046BD2
:1003B0000A065A600CB1406BA047BDE81040FFF739
:1003C0006FBFFFF76DBF00BF006002405009002003
:1003D000094B1968C1F3035159B1084810B5846A33
:1003E0000A055A600CB1C06AA047BDE81040FFF78B
:1003F00057BFFFF755BF00BF006002405009002003
:10040000094B1968C1F3034159B1084810B5046A92
:100410000A045A600CB1406AA047BDE81040FFF7DB
:100420003FBFFFF73DBF00BF006002405009002002
:10043000094B1968C1F3033159B1084810B58469F3
:100440000A035A600CB1C069A047BDE81040FFF72D
:1004500027BFFFF725BF00BF006002405009002002
:10046000094B1968C1F3032159B1084810B5046953
:100470000A025A600CB14069A047BDE81040FFF77E
:100480000FBFFFF70DBF00BF006002405009002002
:10049000094B1968C1F3031159B1084810B58468B4
:1004A0000A015A600CB1C068A047BDE81040FFF7D0
:1004B000F7BEFFF7F5BE00BF006002405009002004
:1004C00008B5074B196811F00F0105D0054A5960AE
:1004D00013680BB150689847BDE80840FFF7E0BECD
:1004E00000600240500900200000000000000000F1
:1004F000EFF30983203383F30988002383F3118802
:10050000704700BF00000000000000000000000075
:100510000E4B0F495A688368096FD31AC26830B40A
:10052000D0E904455B1A01324168E418C2600268F0
:1005300045F100058B4288BF43609342C0E9044502
:1005400030BC836038BF0360704700BF001000E01C
:100550000008002000000000000000000000000073
:1005600010B4202383F31188037F072B0ED8DFE814
:1005700003F0260D0D2208040D08026A936801336A
:10058000936090E80C001A60026853604FF0FF34EB
:10059000002281680C4B046202771B689A688A42C9
:1005A000FBD25A680021036042601060586081F3FA
:1005B000118810BC7047036A00221A60E6E7002326
:1005C00083F3118810BC7047000800200000000071
:1005D000FEE700BF00000000000000000000000077
:1005E000074B30B499691A6808771468012563606D
:1005F00015771C60104630BC9A61FFF709BE00BF3A
:1006000000080020000000000000000000000000C2
:100610004FF6FF732DE9F041994286B051D0484C16
:100620004FF08047254655F81C2F7B6A0129064666
:10063000DFF810E1A06998BF0221AA4205909BB2A1
:10064000CDF810E064D01944E38C89B21089CB1A3C
:100650009BB2834238BF7963834205D912681B1A63
:1006600010899BB29842F9D34FF6FF7051680DF193
:10067000040802910192C1F80080C2F80480ADF82C
:100680000C301189CB1A1381A0843046FFF7A8FFE4
:10069000049B8BB1E3692A4A43451AD0029A019B15
:1006A00000211360019BAB425A60049104D0198968
:1006B000BDF80C200A441A81A369186A06B0BDE887
:1006C000F081FFF78DFF1E4CA369186A06B0BDE8E4
:1006D000F08101990023A942D1614D6004932AD091
:1006E0004FF08040456AD28C0E89BDF80C30ADB217
:1006F000AA1A33449BB292B293420B81DCD99A1A64
:1007000093B2012B98BF02232B449BB24363D3E7E0
:100710005A18E3840DF1040892B2002002230195D7
:100720000295ADF80C10C4F81C80C4F820807A63E0
:100730003861FB60A9E74FF08042D360BCE700BF9F
:100740000008002061050008000000000000000013
:1007500061B10246074B10B49B694468042083E8EA
:1007600014002360536010BCFFF752BF4FF0FF30FE
:10077000704700BF000800200000000000000000DB
:100780002DE9F04F83B004460D4616460193D0F88C
:100790001C804FF0200989F311880027BA46A3680E
:1007A00005F1010B03B36169A368481C013B60615B
:1007B000A3602B780B7023696169994224BFE368B9
:1007C0006361B8F1000F01D02046C0478AF3118859
:1007D000013E07F1010711D089F311885D46A36836
:1007E00005F1010B002BDED1019920460093FFF7A4
:1007F000AFFF009B0028D2D083F31188384603B0A6
:10080000BDE8F08F000000000000000000000000C4
:100810003030FFF7B5BF00BF00000000000000004F
:1008200030304FF6FF73FFF7ABBF00BF0000000092
:10083000F8B504460F461646202383F3118805E0D9
:1008400031462046FFF784FF002817DBA568002DFE
:10085000F6D06269A368511C013B6161A360177007
:10086000236962699A4224BFE3686361E3690BB15B
:1008700020469847002080F31188F8BD85F3118841
:10088000F8BD00BF000000000000000000000000F4
:100890003030FFF7CDBF00BF0000000000000000B7
:1008A00030304FF6FF72FFF7C3BF00BF00000000FB
:1008B0002DE9F04F044683B0894693461D46D0F893
:1008C0001C80202787F311880026B2460197B8F1D3
:1008D000000F07D02046C04704E029462046FFF716
:1008E00037FFD0B9A768002FF7D0A269A368511CC1
:1008F000013BA161A360137809F8013B2369A26958
:100900009A4224BFE368A3618AF311880136B34594
:1009100005D0019B83F31188D9E787F3118830460E
:1009200003B0BDE8F08F00BF000000000000000031
:100930000C30FFF7BDBF00BF00000000000000004A
:100940000C304FF6FF73FFF7B3BF00BF000000008D
:1009500070B520230E46044683F31188C3693BB16A
:10096000984705E031462046FFF7F2FE002813DBEA
:10097000A568002DF6D0A169A36825694A1C013B32
:10098000AA42A36028BFE368A261087828BFA361D8
:10099000002383F3118870BD85F3118870BD00BFFB
:1009A0000C30FFF7D5BF00BF0000000000000000C2
:1009B0000C304FF6FF71FFF7CBBF00BF0000000007
:1009C000254B002219692DE9804861F40041196125
:1009D0001A6199694FF0FF3461F0805199619A6111
:1009E00059695C615A615A6A1C4842F080525A62E5
:1009F000026887B042F4807202605A6B02F440329F
:100A0000B2F5803F07D05A6B42F400025A635A6B2A
:100A100022F400025A63104B19465A6B42F480725A
:100A20005A634A6B0C4B9005FBD55A6B510207D4A5
:100A30005A6B42F480325A635A6B42F480025A6312
:100A4000DFF8249000210B460C46054A0548DFF8E4
:100A50001CA0C9F800100DE00038024000700040F2
:100A60003817000808600240C00900205009002023
:100A700052F8140C04604AF833400133072B02F19A
:100A800014024FF00005F3D14FF6FF714EF63F729E
:100A9000C64FC74B4FF0FF3042F28A587860D3F808
:100AA0001CE0C44E4EF03F0EC3F81CE0B346D3F832
:100AB00028E0A7F5C0474EF03F0EC3F828E0D3F872
:100AC00028E047F6FF4C4EF03F0EC3F828E04FF009
:100AD0007C4E7D60C7F808E0DFF820E34FF6FF04A6
:100AE000C7F80CE04FF0284E79613D627D62C7F88F
:100AF00000E0DFF80CE3C7F80454C7F808E4DFF8B7
:100B000004E3C7F80CE4DFF800E3C7F81424C7F8DF
:100B10002054A94AC7F82454C7F800E4A74F4FF05F
:100B2000704E5560C2F808E0DFF8E0E2D760A44FED
:100B300051611562556215604FF05532CEF8045080
:100B4000CEF80850CEF80C20CEF81410CEF8205075
:100B5000CEF82450CEF800507D60BD60FA60796117
:100B60003D627D623D600F27CEF80458053ACEF80D
:100B70000878944FCEF80C28CEF81418CEF82058E8
:100B8000CEF82458CEF80058AEF5684EC7F828E0E5
:100B9000DFF87CE28C4AC7F83080C7F82CE04FF0D1
:100BA00001084FF0600E7D60BD60FD603D617D61BC
:100BB0003D6287F8008082F812E34FF4802EC2F87D
:100BC00080E1C2F800E007F1180EC7F818E0C7F896
:100BD0001CE0DFF840E24BF804EB4FF0100EC6F8D3
:100BE00004B07561C6F838E0D3F824B086F8088000
:100BF0004BEA080BC3F824B0DFF81CB2B562DBF88F
:100C00000830F66243EA08033665CBF808304FF047
:100C10008043C3F828C0D9626C499D61F1646C4976
:100C20005D637167DD605D60C3F81480C3F80080A8
:100C300006F17403336406F10C03F360336106F1CB
:100C40005403B3617362336206F16403F361F363C7
:100C5000B364736406F130035E49336373638023C6
:100C600082F81C334FF08053C2F8803113608D60DE
:100C7000CA68594B14402343584CCB60E368584A28
:100C800043F08073E3601368564C43EA0803136033
:100C90004FF0200B04F11C0381F81FE0002281F8C3
:100CA00022B08DE82100A084E361684623622460BD
:100CB00000236460CDE9042302950395A5602461B7
:100CC0006461E584256700F073FC6846FFF720FC4B
:100CD000454A029B02F1100CC2F810C0C2F814C0C1
:100CE0004FF0400CD4F814E0C4F834C0C4F868C025
:100CF000DFF828C123673D4804F12C033C49C4F8C0
:100D000040E09561C2F800C084F8495065662566E8
:100D100084F84A806564E4639560CEF81030D5604D
:100D2000DFF8FCE06361A361324A04F1500320F074
:100D3000070021F00701236504F1540384F848807B
:100D40006365A365CEF80000116085F3118862B673
:100D5000294AA3699A618BF31188DFF8C8E06169B9
:100D6000DFF8C4C0022004F17802A36904F5967B81
:100D700084F89400C4F8808084F89550C4F8B48056
:100D8000C4F8AC5084F89680C4F84CE1C4F88C10D8
:100D9000C4F83051C4F8B050C4F89050C4F888403A
:100DA000C4F884B0C4F82CC10A613FE0006002407E
:100DB00000380240E8090020000802405655550559
:100DC000001002408809002000E100E091020008C4
:100DD0000038014000ED00E00003FA05F0ED00E00E
:100DE000001000E000080020C8090020670A002069
:100DF00000400020BC09002030180008685A5565E2
:100E0000F0F300030505555480520001000C024028
:100E10002017000800170008002004E05102000815
:100E2000C40900202102000841020008C4F89850BB
:100E3000996804F1A00004F19C0E6261C4F89CE082
:100E4000C4F8A000C4F8A40000295CD0234684F8AC
:100E500094501B6899680029FBD1A3675868E06724
:100E600002605A6081F31188594B2022C4F89030F7
:100E700082F31188337A012B00F09D8040F24132D9
:100E8000736F44F240009A6042F22C120121002458
:100E900018615961DA601C60022219685B6832725D
:100EA00084F311884FF4007000F0C2FB4FF48060AF
:100EB00000F0BEFB202383F311883A787C60012A7E
:100EC000444C22D002233B70002383F311884FF45B
:100ED0008057B846404EA6F81880202585F3118823
:100EE0004FF47A710820FFF793FB002484F31188F4
:100EF000778385F311884FF47A710820FFF788FB18
:100F000084F31188E7E71977FEE7E36AD9F8001060
:100F1000587C82400A424CD10AEBC0022F4D5460EB
:100F20004A064AF8305004D12D48C26942F0807216
:100F3000C2615A681D6814680F2024F00F04146001
:100F40001E7C9C68B040686021424FF00000106039
:100F500016D1987C01244209920000F1604502F10B
:100F6000604200F01F0002F5614204FA00F06026C2
:100F700005F5614585F80063C2F8800110605A6884
:100F8000587C012383401943C9F80010154B1449BC
:100F900093600B6A144843F400730B624268BB6AA7
:100FA000002102F4000201244260596099609C60B3
:100FB00088E75A68EAE70A480C4B016AC02441F402
:100FC0008041016283F82543C3F884215A6055E7C4
:100FD000501800088809002000040240B1130008DE
:100FE00000380240582401400027014000E100E0A1
:100FF0003B4B4FF080523B495A624B68394ADB0603
:10100000FBD411464FF4006313604B6813F01003D8
:10101000FBD1334A4FF4807011469360536823F438
:10102000604343F42043536010600B682C4A9805DA
:10103000FBD51146136843F0010313600B68284A7F
:101040009B07FBD51146536B43F0010353634B6B76
:10105000234A9807FBD5536BDB050CD4214B196849
:1010600041F480711960516B41F4807151631A68C9
:1010700022F480721A601A494B6B194A9805FBD505
:101080001146936843F408039360136843F0807338
:1010900013600B68124A9B01FBD51146136830B4EC
:1010A0001360936810489360536B042543F48033B6
:1010B0000724536305600460936843F0030393605F
:1010C0008B68074A03F00C030C2BF9D1136A30BC70
:1010D00043F001031362D36A43F00103D362704704
:1010E0000038024000700040003C02400000000058
:1010F0000D4A30B410689469036801215A600025D4
:101100000177A16813609061257700E01B689A68F9
:101110008A42FBD85A6821462360626014605C6092
:1011200030BCFFF775B800BF0008002000000000C9
:1011300010B4044600228168064B02771B689A6847
:101140008A42FBD25A6820462360626014605C6069
:1011500010BC7047000800200000000000000000E4
:101160002DE9F0476B4D82B06E6FD6F80CA0336856
:10117000DA059CB200F18280202383F3118814F0F9
:101180002F0F49D0634F4FF0000907F10C0807E01B
:10119000A10673681CD43468A4B214F02F0F3BD09E
:1011A0002307F5D014F0080F0CBF00208020E107C2
:1011B00048BF40F02000A20748BF40F0400063074E
:1011C00048BF40F4807000F0FBF9A1067368E2D5D7
:1011D0006A69002A42D0296A6A6A914247D06A69DC
:1011E000481C01326A6128620B702A6AEB699A42D4
:1011F00001D3BB693B62EB684345CCD01A68184603
:10120000FA60C2F80480C3F82090FFF791FF3468B9
:10121000A4B214F02F0FC3D1002383F311881AF066
:10122000800F01D0220637D4630612D5202383F322
:1012300011886A6CAB6C37499A4256D04FF6BF732F
:101240006FF040020AEA0303F3600023326083F385
:10125000118802B0BDE8F047FFF722B804200193DF
:1012600000F0AEF9296A6A6A019B9142B7D17A69A6
:10127000002AB4D0802000F0A3F98CE7202383F368
:1012800011884FF4007000F09BF96FF480733360A5
:10129000002383F311886FE7202383F31188AB6C5D
:1012A0006A6C1C499A4227D0AA6B286C591C0132DF
:1012B000AA63A96481421F78164B01D3DA6B9A6442
:1012C00014492B6B01F13002934209D018684FF09A
:1012D000000E086342601846C3F820E0FFF728FFBD
:1012E0007760002383F311889EE78B6B002BA5D0DA
:1012F000102000F065F9A1E78A6B002AD4D00820FD
:1013000000F05EF94FF63F730AEA030343F040032F
:10131000F360E6E7E809002000000000000000009C
:101320001F4B002219681A608B0637D570B51D4C0B
:10133000E36A5968486800282CD0256955B30868C5
:10134000AD6820F00F000860187C1E680F21A36AAA
:1013500001FA00F0012170605A609A60996045B10D
:10136000052323702046A8472378052B04BF0223BA
:101370002370002323610B49202282F311886069C6
:1013800028B14FF0FF3202624B61FFF7D1FE00231C
:1013900083F31188BDE87040FEF782BFFEF780BF7F
:1013A0000024014088090020000000000000000027
:1013B0002DE9F0410E0704462ED5C36A0569596828
:1013C000AD680A681F6822F00F020A60197C0F22BC
:1013D000836A8A40012600217A60596099609E6084
:1013E0003DB105230370A8472378052B04BF0223D2
:1013F000237000222261202383F31188636933B1B3
:101400004FF0FF31626118461962FFF791FE002329
:1014100083F31188BDE8F0810369ABB18D0711D565
:101420001A78E2B15D687DB1C268012A43D95B8850
:10143000520802FB03F3816801EB43012B46BDE830
:10144000F04118474A0701D4BDE8F0815B68002BE2
:10145000FAD0BDE8F041C268816852081847C16AF5
:101460005D684E680F68336823F00F0333600E7CAD
:10147000836A0F21B140012679605A609A609E60AC
:10148000A5B104230370C2688168A8472378042BA0
:101490000CD0202383F311886369002BB7D000227E
:1014A000626118461A62FFF743FEB0E7022200238A
:1014B00022702361EDE72B46BDE8F04181681847B3
:1014C00038B52022034682F311880E4A9469606A77
:1014D00004F124058542236206D003686362FFF7A6
:1014E00027FE606AA842F8D1637F9B0704D1226976
:1014F00063691A61226953610F20BDE83840FFF724
:101500006FB800BF000800200000000000000000CD
:10151000F0B5134F134D144C144B154907F1700ED1
:1015200000269C4211D91A46043951F8040F42F89A
:10153000040B9442F9D8DA43144424F0030404342D
:1015400023449D4203D943F8046B9D42FBD8774561
:1015500005D039697B69BC69FD691037E1E7F0BDE9
:10156000B0170008600A0020600A0020600A00200E
:1015700058180008000000000000000000000000F3
:10158000FEE700BF000000000000000000000000B7
:10159000704700BF000000000000000000000000D5
:1015A000704700BF000000000000000000000000C5
:1015B000014B5B6883607047001000E00000000092
:1015C000F8B5174F57F8044FBC4220D00546002607
:1015D00002E02468BC421AD0E3682B43E36015B1F3
:1015E00022691342F5D06068A168436B027F0B4308
:1015F0000A2A43630CD00B2AEBD1026A32EA0303B6
:10160000E7D10662FFF794FD2468BC42E4D1F8BD3F
:10161000026A1342DDD00662FFF78AFDF4E700BFDD
:10162000E8090020000000000000000000000000A9
:101630002DE9F0432F4B002402254FF0070C4FF00B
:101640000F0E0127032609E0196A21EA020242EA85
:1016500008021A62400833D0AD000134C207F9D540
:10166000610006FA01F1C9435A6807FA04F822EA50
:1016700008025A60D3F8088004F0070208EA01085B
:10168000C3F80880D3F80C80920001EA0808022D04
:10169000C3F80C800CFA02F80EFA02F212D0D3F85A
:1016A0000090072C01EA090141EA05011960CBD934
:1016B000596A400821EA020242EA08025A62CBD182
:1016C000BDE8F083072C0CD8D3F8209029EA020259
:1016D00042EA08021A621A68114041F002011960D8
:1016E000B8E7D3F8249029EA020242EA08025A62D3
:1016F000F1E700BF00000240000000000000000011
:101700002108000841090008A1080008B1090008E3
:1017100091080008A1090008110800083109000813
:10172000006002400860024001000000000000006C
:1017300000000B00006002401C600240020000003C
:101740000000000004010C00006002403060024014
:10175000040000000000000008020D0000600240CC
:101760004460024008000000000000000C030E006E
:1017700000600240586002401000000000000000BD
:1017800010040F00006002406C6002402000000066
:10179000000000001405100000600240806002405C
:1017A00040000000000000001806110000000000CA
:1017B00058180008600A0020600A0020600A002013
:1017C00058180008000000000000000000000000A1
:1017D0005818000800000000000000000000000091
:1017E0005818000800000000000000000000000081
:1017F0005818000800000000000000000000000071
:101800005818000800000000000000000000000060
:101810005818000800000000000000000000000050
:101820005818000800000000000000000000000040
:101830006D61696E00164318040244080C101418F8
:10184000001C1D1E00000000000000000000000041
:0818500069646C6500000000F2
:0400000508000141AD
:00000001FF
